{"contracts/TimeCapsuleVault.sol":{"TimeCapsuleVault":{"abi":[{"inputs":[{"internalType":"uint256","name":"_unlockTime","type":"uint256"},{"internalType":"address","name":"_owner","type":"address"},{"internalType":"uint256","name":"_targetPrice","type":"uint256"},{"internalType":"uint256","name":"_targetAmount","type":"uint256"},{"internalType":"address","name":"_priceFeedAddress","type":"address"}],"stateMutability":"nonpayable","type":"constructor"},{"anonymous":false,"inputs":[{"indexed":true,"internalType":"address","name":"creator","type":"address"},{"indexed":false,"internalType":"uint256","name":"amount","type":"uint256"},{"indexed":false,"internalType":"string","name":"reason","type":"string"}],"name":"AutoWithdrawal","type":"event"},{"anonymous":false,"inputs":[{"indexed":true,"internalType":"address","name":"depositor","type":"address"},{"indexed":false,"internalType":"uint256","name":"amount","type":"uint256"}],"name":"Deposit","type":"event"},{"anonymous":false,"inputs":[{"indexed":false,"internalType":"uint256","name":"currentAmount","type":"uint256"},{"indexed":false,"internalType":"uint256","name":"targetAmount","type":"uint256"},{"indexed":false,"internalType":"uint256","name":"progressPercentage","type":"uint256"}],"name":"GoalProgress","type":"event"},{"anonymous":false,"inputs":[{"indexed":false,"internalType":"int256","name":"newPrice","type":"int256"}],"name":"PriceUpdated","type":"event"},{"anonymous":false,"inputs":[{"indexed":false,"internalType":"string","name":"reason","type":"string"}],"name":"VaultUnlocked","type":"event"},{"anonymous":false,"inputs":[{"indexed":true,"internalType":"address","name":"creator","type":"address"},{"indexed":false,"internalType":"uint256","name":"amount","type":"uint256"}],"name":"Withdrawal","type":"event"},{"inputs":[],"name":"MAX_LOCK_DURATION","outputs":[{"internalType":"uint256","name":"","type":"uint256"}],"stateMutability":"view","type":"function"},{"inputs":[],"name":"MAX_PRICE_CHANGE","outputs":[{"internalType":"uint256","name":"","type":"uint256"}],"stateMutability":"view","type":"function"},{"inputs":[],"name":"MAX_TARGET_AMOUNT","outputs":[{"internalType":"uint256","name":"","type":"uint256"}],"stateMutability":"view","type":"function"},{"inputs":[],"name":"MIN_LOCK_DURATION","outputs":[{"internalType":"uint256","name":"","type":"uint256"}],"stateMutability":"view","type":"function"},{"inputs":[],"name":"PRICE_DECIMALS","outputs":[{"internalType":"uint256","name":"","type":"uint256"}],"stateMutability":"view","type":"function"},{"inputs":[],"name":"canAutoWithdraw","outputs":[{"internalType":"bool","name":"canUnlock","type":"bool"},{"internalType":"string","name":"reason","type":"string"}],"stateMutability":"view","type":"function"},{"inputs":[],"name":"canEmergencyWithdraw","outputs":[{"internalType":"bool","name":"","type":"bool"}],"stateMutability":"view","type":"function"},{"inputs":[],"name":"createdAt","outputs":[{"internalType":"uint256","name":"","type":"uint256"}],"stateMutability":"view","type":"function"},{"inputs":[],"name":"creator","outputs":[{"internalType":"address","name":"","type":"address"}],"stateMutability":"view","type":"function"},{"inputs":[],"name":"deposit","outputs":[],"stateMutability":"payable","type":"function"},{"inputs":[],"name":"emergencyWithdraw","outputs":[],"stateMutability":"nonpayable","type":"function"},{"inputs":[],"name":"getLatestPrice","outputs":[{"internalType":"int256","name":"","type":"int256"}],"stateMutability":"view","type":"function"},{"inputs":[],"name":"getLockStatus","outputs":[{"internalType":"bool","name":"isLocked","type":"bool"},{"internalType":"uint256","name":"currentPrice","type":"uint256"},{"internalType":"uint256","name":"timeRemaining","type":"uint256"},{"internalType":"bool","name":"isPriceBased","type":"bool"},{"internalType":"bool","name":"isGoalBased","type":"bool"},{"internalType":"uint256","name":"currentAmount","type":"uint256"},{"internalType":"uint256","name":"goalAmount","type":"uint256"},{"internalType":"uint256","name":"progressPercentage","type":"uint256"},{"internalType":"string","name":"unlockReason","type":"string"}],"stateMutability":"view","type":"function"},{"inputs":[],"name":"isGoalLock","outputs":[{"internalType":"bool","name":"","type":"bool"}],"stateMutability":"view","type":"function"},{"inputs":[],"name":"isPriceLock","outputs":[{"internalType":"bool","name":"","type":"bool"}],"stateMutability":"view","type":"function"},{"inputs":[],"name":"priceFeed","outputs":[{"internalType":"contract AggregatorV3Interface","name":"","type":"address"}],"stateMutability":"view","type":"function"},{"inputs":[],"name":"targetAmount","outputs":[{"internalType":"uint256","name":"","type":"uint256"}],"stateMutability":"view","type":"function"},{"inputs":[],"name":"targetPrice","outputs":[{"internalType":"uint256","name":"","type":"uint256"}],"stateMutability":"view","type":"function"},{"inputs":[],"name":"triggerAutoWithdraw","outputs":[],"stateMutability":"nonpayable","type":"function"},{"inputs":[],"name":"unlockTime","outputs":[{"internalType":"uint256","name":"","type":"uint256"}],"stateMutability":"view","type":"function"},{"inputs":[],"name":"withdraw","outputs":[],"stateMutability":"nonpayable","type":"function"}],"evm":{"bytecode":{"linkReferences":{},"object":"60a06040523480156200001157600080fd5b5060405162001db538038062001db583398101604081905262000034916200041a565b6001600160a01b038416620000905760405162461bcd60e51b815260206004820152601560248201527f496e76616c6964206f776e65722061646472657373000000000000000000000060448201526064015b60405180910390fd5b6001600160a01b038116620000e85760405162461bcd60e51b815260206004820152601a60248201527f496e76616c696420707269636520666565642061646472657373000000000000604482015260640162000087565b84156200020057428511620001405760405162461bcd60e51b815260206004820152601d60248201527f556e6c6f636b2074696d65206d75737420626520696e20667574757265000000604482015260640162000087565b620001506312cc0300426200046f565b851115620001a15760405162461bcd60e51b815260206004820152601660248201527f4c6f636b206475726174696f6e20746f6f206c6f6e6700000000000000000000604482015260640162000087565b620001af610e10426200046f565b851015620002005760405162461bcd60e51b815260206004820152601760248201527f4c6f636b206475726174696f6e20746f6f2073686f7274000000000000000000604482015260640162000087565b8115620002bc5769021e19e0c9bab2400000821115620002635760405162461bcd60e51b815260206004820152601660248201527f54617267657420616d6f756e7420746f6f206869676800000000000000000000604482015260640162000087565b66038d7ea4c68000821015620002bc5760405162461bcd60e51b815260206004820152601560248201527f54617267657420616d6f756e7420746f6f206c6f770000000000000000000000604482015260640162000087565b8215620003155760008311620003155760405162461bcd60e51b815260206004820152601d60248201527f546172676574207072696365206d75737420626520706f736974697665000000604482015260640162000087565b600080546001600160a01b0319166001600160a01b0386811691909117909155600186905560028490556003839055600480549183166001600160a81b031990921691909117841515600160a01b021760ff60a81b1916831515600160a81b0217905584151580620003875750600083115b80620003935750600082115b620003ed5760405162461bcd60e51b8152602060048201526024808201527f4174206c65617374206f6e65206c6f636b20636f6e646974696f6e20726571756044820152631a5c995960e21b606482015260840162000087565b5050426080525062000497915050565b80516001600160a01b03811681146200041557600080fd5b919050565b600080600080600060a086880312156200043357600080fd5b855194506200044560208701620003fd565b935060408601519250606086015191506200046360808701620003fd565b90509295509295909350565b808201808211156200049157634e487b7160e01b600052601160045260246000fd5b92915050565b6080516118f4620004c1600039600081816102f801528181610ebc015261111f01526118f46000f3fe60806040526004361061012a5760003560e01c8063953b8fb8116100ab578063d0e30db01161006f578063d0e30db01461031a578063db2e21bc14610322578063dc38679c14610337578063ea83ec1f1461034d578063ecd0b47d14610362578063f1a640f81461038357600080fd5b8063953b8fb8146102735780639ae8ad4514610289578063b7323881146102b3578063cb9a8c7e146102d1578063cf09e0d0146102e657600080fd5b8063653b8e1e116100f2578063653b8e1e146101d45780636fd670b9146101f7578063741bef1a1461022857806378b4330f146102485780638e15f4731461025e57600080fd5b806302d05d3f1461012f5780632084bf9f1461016c578063251c1aa31461018f5780633ccfd60b146101a55780634f1bfc9e146101bc575b600080fd5b34801561013b57600080fd5b5060005461014f906001600160a01b031681565b6040516001600160a01b0390911681526020015b60405180910390f35b34801561017857600080fd5b50610181603281565b604051908152602001610163565b34801561019b57600080fd5b5061018160015481565b3480156101b157600080fd5b506101ba610398565b005b3480156101c857600080fd5b506101816312cc030081565b3480156101e057600080fd5b506101e961073a565b604051610163929190611646565b34801561020357600080fd5b5060045461021890600160a81b900460ff1681565b6040519015158152602001610163565b34801561023457600080fd5b5060045461014f906001600160a01b031681565b34801561025457600080fd5b50610181610e1081565b34801561026a57600080fd5b50610181610925565b34801561027f57600080fd5b5061018160035481565b34801561029557600080fd5b5061029e610bb0565b60405161016399989796959493929190611669565b3480156102bf57600080fd5b5061018169021e19e0c9bab240000081565b3480156102dd57600080fd5b50610218610eaa565b3480156102f257600080fd5b506101817f000000000000000000000000000000000000000000000000000000000000000081565b6101ba610f13565b34801561032e57600080fd5b506101ba611088565b34801561034357600080fd5b5061018160025481565b34801561035957600080fd5b506101ba611358565b34801561036e57600080fd5b5060045461021890600160a01b900460ff1681565b34801561038f57600080fd5b50610181600881565b6000546001600160a01b031633146103e85760405162461bcd60e51b815260206004820152600e60248201526d139bdd08185d5d1a1bdc9a5e995960921b60448201526064015b60405180910390fd5b600454600160b01b900460ff16156104125760405162461bcd60e51b81526004016103df906116c4565b6004805460ff60b01b1916600160b01b179055476104685760405162461bcd60e51b81526020600482015260136024820152724e6f7468696e6720746f20776974686472617760681b60448201526064016103df565b600080604051806020016040528060008152509050600060015411801561049157506001544210155b156104c4575050604080518082019091526011815270151a5b59481b1bd8dac8195e1c1a5c9959607a1b60208201526001905b600454600160a01b900460ff1680156104db575081155b1561057e57306001600160a01b0316638e15f4736040518163ffffffff1660e01b8152600401602060405180830381865afa92505050801561053a575060408051601f3d908101601f19168201909252610537918101906116fb565b60015b1561057e57600254811061057c576001925060405180604001604052806014815260200173141c9a58d9481d185c99d95d081c995858da195960621b81525091505b505b600454600160a81b900460ff168015610595575081155b156105d35760035447106105d357505060408051808201909152601381527211dbd85b08185b5bdd5b9d081c995858da1959606a1b60208201526001905b816106185760405162461bcd60e51b815260206004820152601560248201527415985d5b1d081a5cc81cdd1a5b1b081b1bd8dad959605a1b60448201526064016103df565b600080546040514792916001600160a01b03169083908381818185875af1925050503d8060008114610666576040519150601f19603f3d011682016040523d82523d6000602084013e61066b565b606091505b50509050806106ae5760405162461bcd60e51b815260206004820152600f60248201526e151c985b9cd9995c8819985a5b1959608a1b60448201526064016103df565b7f783a90694c9f00c5f34817271a9bf8afb388f51995e3be1f9bc413b4af1548a8836040516106dd9190611714565b60405180910390a16000546040518381526001600160a01b03909116907f7fcf532c15f0a6db0bd6d0e038bea71d30d808c7d98cb3bf7268a95bf5081b659060200160405180910390a250506004805460ff60b01b191690555050565b60006060476000036107785750506040805180820190915260148152734e6f2066756e647320746f20776974686472617760601b6020820152600091565b600060015411801561078c57506001544210155b156107c0575050604080518082019091526011815270151a5b59481b1bd8dac8195e1c1a5c9959607a1b6020820152600191565b600454600160a01b900460ff16156108a457306001600160a01b0316638e15f4736040518163ffffffff1660e01b8152600401602060405180830381865afa92505050801561082c575060408051601f3d908101601f19168201909252610829918101906116fb565b60015b6108645750506040805180820190915260168152755072696365206665656420756e617661696c61626c6560501b6020820152600091565b60025481106108a2575050604080518082019091526014815273141c9a58d9481d185c99d95d081c995858da195960621b6020820152600192909150565b505b600454600160a81b900460ff1680156108bf57506003544710155b156108f557505060408051808201909152601381527211dbd85b08185b5bdd5b9d081c995858da1959606a1b6020820152600191565b505060408051808201909152601281527115985d5b1d081cdd1a5b1b081b1bd8dad95960721b6020820152600091565b6000600460009054906101000a90046001600160a01b03166001600160a01b031663feaf968c6040518163ffffffff1660e01b815260040160a060405180830381865afa925050508015610996575060408051601f3d908101601f191682019092526109939181019061174d565b60015b6109e25760405162461bcd60e51b815260206004820152601f60248201527f4661696c656420746f206765742070726963652066726f6d206f7261636c650060448201526064016103df565b60008413610a325760405162461bcd60e51b815260206004820152601960248201527f496e76616c69642070726963652066726f6d206f7261636c650000000000000060448201526064016103df565b60008211610a775760405162461bcd60e51b8152602060048201526012602482015271526f756e64206e6f7420636f6d706c65746560701b60448201526064016103df565b610e10610a8483426117b3565b10610ac65760405162461bcd60e51b8152602060048201526012602482015271141c9a58d94819185d18481d1bdbc81bdb1960721b60448201526064016103df565b6000600554138015610ada57506000600654115b15610ba657600060065442610aef91906117b3565b9050610e10811015610ba45760006005548613610b2d57600554610b1387826117cc565b610b1e9060646117f3565b610b289190611839565b610b4f565b600554610b3a81886117cc565b610b459060646117f3565b610b4f9190611839565b90506032811115610ba25760405162461bcd60e51b815260206004820152601860248201527f5072696365206368616e676520746f6f2065787472656d65000000000000000060448201526064016103df565b505b505b5091949350505050565b6000806000806000806000806060306001600160a01b0316638e15f4736040518163ffffffff1660e01b8152600401602060405180830381865afa925050508015610c18575060408051601f3d908101601f19168201909252610c15918101906116fb565b60015b610c255760009750610c28565b97505b600154421015610c455742600154610c4091906117b3565b610c48565b60005b60045460035491985060ff600160a01b820481169850600160a81b9091041695504794509250848015610c7d57506000600354115b610c88576000610ca0565b600354610c96856064611867565b610ca0919061187e565b915060008060015411610cb4576000610cbb565b6001544210155b600454909150600090600160a01b900460ff168015610cda575060008a115b610ce5576000610cec565b6002548a10155b600454909150600090600160a81b900460ff16610d0a576000610d11565b6003548710155b90508215610d4e5760009b5060405180604001604052806011815260200170151a5b59481b1bd8dac8195e1c1a5c9959607a1b8152509350610e9c565b8115610d8c5760009b5060405180604001604052806014815260200173141c9a58d9481d185c99d95d081c995858da195960621b8152509350610e9c565b8015610dc95760009b506040518060400160405280601381526020017211dbd85b08185b5bdd5b9d081c995858da1959606a1b8152509350610e9c565b60045460019c50600160a81b900460ff1615610e1c576040518060400160405280601781526020017f57616974696e6720666f7220676f616c20616d6f756e740000000000000000008152509350610e9c565b600454600160a01b900460ff1615610e6b576040518060400160405280601881526020017f57616974696e6720666f722070726963652074617267657400000000000000008152509350610e9c565b6040518060400160405280601581526020017457616974696e6720666f722074696d65206c6f636b60581b81525093505b505050909192939495969798565b600080600060015411610eea57610ee57f00000000000000000000000000000000000000000000000000000000000000006301e13380611892565b610efb565b600154610efb906301e13380611892565b9050804210158015610f0d5750600047115b91505090565b66038d7ea4c68000341015610f6a5760405162461bcd60e51b815260206004820152601c60248201527f4d696e696d756d206465706f73697420697320302e303031204554480000000060448201526064016103df565b69021e19e0c9bab2400000471115610fd05760405162461bcd60e51b815260206004820152602360248201527f5661756c7420776f756c6420657863656564206d6178696d756d20636170616360448201526269747960e81b60648201526084016103df565b600454600160a81b900460ff1615611049576003544790600090610ff5836064611867565b610fff919061187e565b60035460408051858152602081019290925281018290529091507ff6621229b3a1f86bff573cc1432f4f5d4bcf0e65338fde4dfaf2e37e731152cd9060600160405180910390a150505b60405134815233907fe1fffcc4923d04b559f4d29a8bfc6cda04eb5b0d3c460751c2402c5c5cc9109c9060200160405180910390a261108661135c565b565b6000546001600160a01b031633146110d35760405162461bcd60e51b815260206004820152600e60248201526d139bdd08185d5d1a1bdc9a5e995960921b60448201526064016103df565b600454600160b01b900460ff16156110fd5760405162461bcd60e51b81526004016103df906116c4565b6004805460ff60b01b1916600160b01b17905560015460009061114d576111487f00000000000000000000000000000000000000000000000000000000000000006301e13380611892565b61115e565b60015461115e906301e13380611892565b9050804210156111bc5760405162461bcd60e51b8152602060048201526024808201527f456d657267656e6379207769746864726177206e6f7420617661696c61626c65604482015263081e595d60e21b60648201526084016103df565b600047116112025760405162461bcd60e51b81526020600482015260136024820152724e6f7468696e6720746f20776974686472617760681b60448201526064016103df565b600080546040514792916001600160a01b03169083908381818185875af1925050503d8060008114611250576040519150601f19603f3d011682016040523d82523d6000602084013e611255565b606091505b50509050806112a65760405162461bcd60e51b815260206004820152601960248201527f456d657267656e6379207472616e73666572206661696c65640000000000000060448201526064016103df565b7f783a90694c9f00c5f34817271a9bf8afb388f51995e3be1f9bc413b4af1548a86040516112fc90602080825260149082015273115b595c99d95b98de481dda5d1a191c985dd85b60621b604082015260600190565b60405180910390a16000546040518381526001600160a01b03909116907f7fcf532c15f0a6db0bd6d0e038bea71d30d808c7d98cb3bf7268a95bf5081b659060200160405180910390a250506004805460ff60b01b1916905550565b6110865b600454600160b01b900460ff16156113865760405162461bcd60e51b81526004016103df906116c4565b6004805460ff60b01b1916600160b01b17905547156115f15760008060405180602001604052806000815250905060006001541180156113c857506001544210155b156113fb575050604080518082019091526011815270151a5b59481b1bd8dac8195e1c1a5c9959607a1b60208201526001905b600454600160a01b900460ff168015611412575081155b156114bb57306001600160a01b0316638e15f4736040518163ffffffff1660e01b8152600401602060405180830381865afa925050508015611471575060408051601f3d908101601f1916820190925261146e918101906116fb565b60015b61147c5750506115f1565b60025481106114b9576001925060405180604001604052806014815260200173141c9a58d9481d185c99d95d081c995858da195960621b81525091505b505b600454600160a81b900460ff1680156114d2575081155b1561151057600354471061151057505060408051808201909152601381527211dbd85b08185b5bdd5b9d081c995858da1959606a1b60208201526001905b81156115ee57600080546040514792916001600160a01b03169083908381818185875af1925050503d8060008114611564576040519150601f19603f3d011682016040523d82523d6000602084013e611569565b606091505b5050905080156115eb576000546040516001600160a01b03909116907f4ad0472683bd43f275a5e9c98856d62b677f894e5b5bc4fa3aa491c93548e100906115b490859087906118a5565b60405180910390a27f783a90694c9f00c5f34817271a9bf8afb388f51995e3be1f9bc413b4af1548a8836040516106dd9190611714565b50505b50505b6004805460ff60b01b19169055565b6000815180845260005b818110156116265760208185018101518683018201520161160a565b506000602082860101526020601f19601f83011685010191505092915050565b82151581526040602082015260006116616040830184611600565b949350505050565b60006101208b151583528a6020840152896040840152881515606084015287151560808401528660a08401528560c08401528460e0840152806101008401526116b481840185611600565b9c9b505050505050505050505050565b6020808252601f908201527f5265656e7472616e637947756172643a207265656e7472616e742063616c6c00604082015260600190565b60006020828403121561170d57600080fd5b5051919050565b6020815260006117276020830184611600565b9392505050565b805169ffffffffffffffffffff8116811461174857600080fd5b919050565b600080600080600060a0868803121561176557600080fd5b61176e8661172e565b94506020860151935060408601519250606086015191506117916080870161172e565b90509295509295909350565b634e487b7160e01b600052601160045260246000fd5b818103818111156117c6576117c661179d565b92915050565b81810360008312801583831316838312821617156117ec576117ec61179d565b5092915050565b80820260008212600160ff1b8414161561180f5761180f61179d565b81810583148215176117c6576117c661179d565b634e487b7160e01b600052601260045260246000fd5b60008261184857611848611823565b600160ff1b8214600019841416156118625761186261179d565b500590565b80820281158282048414176117c6576117c661179d565b60008261188d5761188d611823565b500490565b808201808211156117c6576117c661179d565b828152604060208201526000611661604083018461160056fea264697066735822122019b6cbe183f999650349a8c2fec0712debd8928627c492e775827e43af0e0b1164736f6c63430008140033","opcodes":"PUSH1 0xA0 PUSH1 0x40 MSTORE CALLVALUE DUP1 ISZERO PUSH3 0x11 JUMPI PUSH1 0x0 DUP1 REVERT JUMPDEST POP PUSH1 0x40 MLOAD PUSH3 0x1DB5 CODESIZE SUB DUP1 PUSH3 0x1DB5 DUP4 CODECOPY DUP2 ADD PUSH1 0x40 DUP2 SWAP1 MSTORE PUSH3 0x34 SWAP2 PUSH3 0x41A JUMP JUMPDEST PUSH1 0x1 PUSH1 0x1 PUSH1 0xA0 SHL SUB DUP5 AND PUSH3 0x90 JUMPI PUSH1 0x40 MLOAD PUSH3 0x461BCD PUSH1 0xE5 SHL DUP2 MSTORE PUSH1 0x20 PUSH1 0x4 DUP3 ADD MSTORE PUSH1 0x15 PUSH1 0x24 DUP3 ADD MSTORE PUSH32 0x496E76616C6964206F776E657220616464726573730000000000000000000000 PUSH1 0x44 DUP3 ADD MSTORE PUSH1 0x64 ADD JUMPDEST PUSH1 0x40 MLOAD DUP1 SWAP2 SUB SWAP1 REVERT JUMPDEST PUSH1 0x1 PUSH1 0x1 PUSH1 0xA0 SHL SUB DUP2 AND PUSH3 0xE8 JUMPI PUSH1 0x40 MLOAD PUSH3 0x461BCD PUSH1 0xE5 SHL DUP2 MSTORE PUSH1 0x20 PUSH1 0x4 DUP3 ADD MSTORE PUSH1 0x1A PUSH1 0x24 DUP3 ADD MSTORE PUSH32 0x496E76616C696420707269636520666565642061646472657373000000000000 PUSH1 0x44 DUP3 ADD MSTORE PUSH1 0x64 ADD PUSH3 0x87 JUMP JUMPDEST DUP5 ISZERO PUSH3 0x200 JUMPI TIMESTAMP DUP6 GT PUSH3 0x140 JUMPI PUSH1 0x40 MLOAD PUSH3 0x461BCD PUSH1 0xE5 SHL DUP2 MSTORE PUSH1 0x20 PUSH1 0x4 DUP3 ADD MSTORE PUSH1 0x1D PUSH1 0x24 DUP3 ADD MSTORE PUSH32 0x556E6C6F636B2074696D65206D75737420626520696E20667574757265000000 PUSH1 0x44 DUP3 ADD MSTORE PUSH1 0x64 ADD PUSH3 0x87 JUMP JUMPDEST PUSH3 0x150 PUSH4 0x12CC0300 TIMESTAMP PUSH3 0x46F JUMP JUMPDEST DUP6 GT ISZERO PUSH3 0x1A1 JUMPI PUSH1 0x40 MLOAD PUSH3 0x461BCD PUSH1 0xE5 SHL DUP2 MSTORE PUSH1 0x20 PUSH1 0x4 DUP3 ADD MSTORE PUSH1 0x16 PUSH1 0x24 DUP3 ADD MSTORE PUSH32 0x4C6F636B206475726174696F6E20746F6F206C6F6E6700000000000000000000 PUSH1 0x44 DUP3 ADD MSTORE PUSH1 0x64 ADD PUSH3 0x87 JUMP JUMPDEST PUSH3 0x1AF PUSH2 0xE10 TIMESTAMP PUSH3 0x46F JUMP JUMPDEST DUP6 LT ISZERO PUSH3 0x200 JUMPI PUSH1 0x40 MLOAD PUSH3 0x461BCD PUSH1 0xE5 SHL DUP2 MSTORE PUSH1 0x20 PUSH1 0x4 DUP3 ADD MSTORE PUSH1 0x17 PUSH1 0x24 DUP3 ADD MSTORE PUSH32 0x4C6F636B206475726174696F6E20746F6F2073686F7274000000000000000000 PUSH1 0x44 DUP3 ADD MSTORE PUSH1 0x64 ADD PUSH3 0x87 JUMP JUMPDEST DUP2 ISZERO PUSH3 0x2BC JUMPI PUSH10 0x21E19E0C9BAB2400000 DUP3 GT ISZERO PUSH3 0x263 JUMPI PUSH1 0x40 MLOAD PUSH3 0x461BCD PUSH1 0xE5 SHL DUP2 MSTORE PUSH1 0x20 PUSH1 0x4 DUP3 ADD MSTORE PUSH1 0x16 PUSH1 0x24 DUP3 ADD MSTORE PUSH32 0x54617267657420616D6F756E7420746F6F206869676800000000000000000000 PUSH1 0x44 DUP3 ADD MSTORE PUSH1 0x64 ADD PUSH3 0x87 JUMP JUMPDEST PUSH7 0x38D7EA4C68000 DUP3 LT ISZERO PUSH3 0x2BC JUMPI PUSH1 0x40 MLOAD PUSH3 0x461BCD PUSH1 0xE5 SHL DUP2 MSTORE PUSH1 0x20 PUSH1 0x4 DUP3 ADD MSTORE PUSH1 0x15 PUSH1 0x24 DUP3 ADD MSTORE PUSH32 0x54617267657420616D6F756E7420746F6F206C6F770000000000000000000000 PUSH1 0x44 DUP3 ADD MSTORE PUSH1 0x64 ADD PUSH3 0x87 JUMP JUMPDEST DUP3 ISZERO PUSH3 0x315 JUMPI PUSH1 0x0 DUP4 GT PUSH3 0x315 JUMPI PUSH1 0x40 MLOAD PUSH3 0x461BCD PUSH1 0xE5 SHL DUP2 MSTORE PUSH1 0x20 PUSH1 0x4 DUP3 ADD MSTORE PUSH1 0x1D PUSH1 0x24 DUP3 ADD MSTORE PUSH32 0x546172676574207072696365206D75737420626520706F736974697665000000 PUSH1 0x44 DUP3 ADD MSTORE PUSH1 0x64 ADD PUSH3 0x87 JUMP JUMPDEST PUSH1 0x0 DUP1 SLOAD PUSH1 0x1 PUSH1 0x1 PUSH1 0xA0 SHL SUB NOT AND PUSH1 0x1 PUSH1 0x1 PUSH1 0xA0 SHL SUB DUP7 DUP2 AND SWAP2 SWAP1 SWAP2 OR SWAP1 SWAP2 SSTORE PUSH1 0x1 DUP7 SWAP1 SSTORE PUSH1 0x2 DUP5 SWAP1 SSTORE PUSH1 0x3 DUP4 SWAP1 SSTORE PUSH1 0x4 DUP1 SLOAD SWAP2 DUP4 AND PUSH1 0x1 PUSH1 0x1 PUSH1 0xA8 SHL SUB NOT SWAP1 SWAP3 AND SWAP2 SWAP1 SWAP2 OR DUP5 ISZERO ISZERO PUSH1 0x1 PUSH1 0xA0 SHL MUL OR PUSH1 0xFF PUSH1 0xA8 SHL NOT AND DUP4 ISZERO ISZERO PUSH1 0x1 PUSH1 0xA8 SHL MUL OR SWAP1 SSTORE DUP5 ISZERO ISZERO DUP1 PUSH3 0x387 JUMPI POP PUSH1 0x0 DUP4 GT JUMPDEST DUP1 PUSH3 0x393 JUMPI POP PUSH1 0x0 DUP3 GT JUMPDEST PUSH3 0x3ED JUMPI PUSH1 0x40 MLOAD PUSH3 0x461BCD PUSH1 0xE5 SHL DUP2 MSTORE PUSH1 0x20 PUSH1 0x4 DUP3 ADD MSTORE PUSH1 0x24 DUP1 DUP3 ADD MSTORE PUSH32 0x4174206C65617374206F6E65206C6F636B20636F6E646974696F6E2072657175 PUSH1 0x44 DUP3 ADD MSTORE PUSH4 0x1A5C9959 PUSH1 0xE2 SHL PUSH1 0x64 DUP3 ADD MSTORE PUSH1 0x84 ADD PUSH3 0x87 JUMP JUMPDEST POP POP TIMESTAMP PUSH1 0x80 MSTORE POP PUSH3 0x497 SWAP2 POP POP JUMP JUMPDEST DUP1 MLOAD PUSH1 0x1 PUSH1 0x1 PUSH1 0xA0 SHL SUB DUP2 AND DUP2 EQ PUSH3 0x415 JUMPI PUSH1 0x0 DUP1 REVERT JUMPDEST SWAP2 SWAP1 POP JUMP JUMPDEST PUSH1 0x0 DUP1 PUSH1 0x0 DUP1 PUSH1 0x0 PUSH1 0xA0 DUP7 DUP9 SUB SLT ISZERO PUSH3 0x433 JUMPI PUSH1 0x0 DUP1 REVERT JUMPDEST DUP6 MLOAD SWAP5 POP PUSH3 0x445 PUSH1 0x20 DUP8 ADD PUSH3 0x3FD JUMP JUMPDEST SWAP4 POP PUSH1 0x40 DUP7 ADD MLOAD SWAP3 POP PUSH1 0x60 DUP7 ADD MLOAD SWAP2 POP PUSH3 0x463 PUSH1 0x80 DUP8 ADD PUSH3 0x3FD JUMP JUMPDEST SWAP1 POP SWAP3 SWAP6 POP SWAP3 SWAP6 SWAP1 SWAP4 POP JUMP JUMPDEST DUP1 DUP3 ADD DUP1 DUP3 GT ISZERO PUSH3 0x491 JUMPI PUSH4 0x4E487B71 PUSH1 0xE0 SHL PUSH1 0x0 MSTORE PUSH1 0x11 PUSH1 0x4 MSTORE PUSH1 0x24 PUSH1 0x0 REVERT JUMPDEST SWAP3 SWAP2 POP POP JUMP JUMPDEST PUSH1 0x80 MLOAD PUSH2 0x18F4 PUSH3 0x4C1 PUSH1 0x0 CODECOPY PUSH1 0x0 DUP2 DUP2 PUSH2 0x2F8 ADD MSTORE DUP2 DUP2 PUSH2 0xEBC ADD MSTORE PUSH2 0x111F ADD MSTORE PUSH2 0x18F4 PUSH1 0x0 RETURN INVALID PUSH1 0x80 PUSH1 0x40 MSTORE PUSH1 0x4 CALLDATASIZE LT PUSH2 0x12A JUMPI PUSH1 0x0 CALLDATALOAD PUSH1 0xE0 SHR DUP1 PUSH4 0x953B8FB8 GT PUSH2 0xAB JUMPI DUP1 PUSH4 0xD0E30DB0 GT PUSH2 0x6F JUMPI DUP1 PUSH4 0xD0E30DB0 EQ PUSH2 0x31A JUMPI DUP1 PUSH4 0xDB2E21BC EQ PUSH2 0x322 JUMPI DUP1 PUSH4 0xDC38679C EQ PUSH2 0x337 JUMPI DUP1 PUSH4 0xEA83EC1F EQ PUSH2 0x34D JUMPI DUP1 PUSH4 0xECD0B47D EQ PUSH2 0x362 JUMPI DUP1 PUSH4 0xF1A640F8 EQ PUSH2 0x383 JUMPI PUSH1 0x0 DUP1 REVERT JUMPDEST DUP1 PUSH4 0x953B8FB8 EQ PUSH2 0x273 JUMPI DUP1 PUSH4 0x9AE8AD45 EQ PUSH2 0x289 JUMPI DUP1 PUSH4 0xB7323881 EQ PUSH2 0x2B3 JUMPI DUP1 PUSH4 0xCB9A8C7E EQ PUSH2 0x2D1 JUMPI DUP1 PUSH4 0xCF09E0D0 EQ PUSH2 0x2E6 JUMPI PUSH1 0x0 DUP1 REVERT JUMPDEST DUP1 PUSH4 0x653B8E1E GT PUSH2 0xF2 JUMPI DUP1 PUSH4 0x653B8E1E EQ PUSH2 0x1D4 JUMPI DUP1 PUSH4 0x6FD670B9 EQ PUSH2 0x1F7 JUMPI DUP1 PUSH4 0x741BEF1A EQ PUSH2 0x228 JUMPI DUP1 PUSH4 0x78B4330F EQ PUSH2 0x248 JUMPI DUP1 PUSH4 0x8E15F473 EQ PUSH2 0x25E JUMPI PUSH1 0x0 DUP1 REVERT JUMPDEST DUP1 PUSH4 0x2D05D3F EQ PUSH2 0x12F JUMPI DUP1 PUSH4 0x2084BF9F EQ PUSH2 0x16C JUMPI DUP1 PUSH4 0x251C1AA3 EQ PUSH2 0x18F JUMPI DUP1 PUSH4 0x3CCFD60B EQ PUSH2 0x1A5 JUMPI DUP1 PUSH4 0x4F1BFC9E EQ PUSH2 0x1BC JUMPI JUMPDEST PUSH1 0x0 DUP1 REVERT JUMPDEST CALLVALUE DUP1 ISZERO PUSH2 0x13B JUMPI PUSH1 0x0 DUP1 REVERT JUMPDEST POP PUSH1 0x0 SLOAD PUSH2 0x14F SWAP1 PUSH1 0x1 PUSH1 0x1 PUSH1 0xA0 SHL SUB AND DUP2 JUMP JUMPDEST PUSH1 0x40 MLOAD PUSH1 0x1 PUSH1 0x1 PUSH1 0xA0 SHL SUB SWAP1 SWAP2 AND DUP2 MSTORE PUSH1 0x20 ADD JUMPDEST PUSH1 0x40 MLOAD DUP1 SWAP2 SUB SWAP1 RETURN JUMPDEST CALLVALUE DUP1 ISZERO PUSH2 0x178 JUMPI PUSH1 0x0 DUP1 REVERT JUMPDEST POP PUSH2 0x181 PUSH1 0x32 DUP2 JUMP JUMPDEST PUSH1 0x40 MLOAD SWAP1 DUP2 MSTORE PUSH1 0x20 ADD PUSH2 0x163 JUMP JUMPDEST CALLVALUE DUP1 ISZERO PUSH2 0x19B JUMPI PUSH1 0x0 DUP1 REVERT JUMPDEST POP PUSH2 0x181 PUSH1 0x1 SLOAD DUP2 JUMP JUMPDEST CALLVALUE DUP1 ISZERO PUSH2 0x1B1 JUMPI PUSH1 0x0 DUP1 REVERT JUMPDEST POP PUSH2 0x1BA PUSH2 0x398 JUMP JUMPDEST STOP JUMPDEST CALLVALUE DUP1 ISZERO PUSH2 0x1C8 JUMPI PUSH1 0x0 DUP1 REVERT JUMPDEST POP PUSH2 0x181 PUSH4 0x12CC0300 DUP2 JUMP JUMPDEST CALLVALUE DUP1 ISZERO PUSH2 0x1E0 JUMPI PUSH1 0x0 DUP1 REVERT JUMPDEST POP PUSH2 0x1E9 PUSH2 0x73A JUMP JUMPDEST PUSH1 0x40 MLOAD PUSH2 0x163 SWAP3 SWAP2 SWAP1 PUSH2 0x1646 JUMP JUMPDEST CALLVALUE DUP1 ISZERO PUSH2 0x203 JUMPI PUSH1 0x0 DUP1 REVERT JUMPDEST POP PUSH1 0x4 SLOAD PUSH2 0x218 SWAP1 PUSH1 0x1 PUSH1 0xA8 SHL SWAP1 DIV PUSH1 0xFF AND DUP2 JUMP JUMPDEST PUSH1 0x40 MLOAD SWAP1 ISZERO ISZERO DUP2 MSTORE PUSH1 0x20 ADD PUSH2 0x163 JUMP JUMPDEST CALLVALUE DUP1 ISZERO PUSH2 0x234 JUMPI PUSH1 0x0 DUP1 REVERT JUMPDEST POP PUSH1 0x4 SLOAD PUSH2 0x14F SWAP1 PUSH1 0x1 PUSH1 0x1 PUSH1 0xA0 SHL SUB AND DUP2 JUMP JUMPDEST CALLVALUE DUP1 ISZERO PUSH2 0x254 JUMPI PUSH1 0x0 DUP1 REVERT JUMPDEST POP PUSH2 0x181 PUSH2 0xE10 DUP2 JUMP JUMPDEST CALLVALUE DUP1 ISZERO PUSH2 0x26A JUMPI PUSH1 0x0 DUP1 REVERT JUMPDEST POP PUSH2 0x181 PUSH2 0x925 JUMP JUMPDEST CALLVALUE DUP1 ISZERO PUSH2 0x27F JUMPI PUSH1 0x0 DUP1 REVERT JUMPDEST POP PUSH2 0x181 PUSH1 0x3 SLOAD DUP2 JUMP JUMPDEST CALLVALUE DUP1 ISZERO PUSH2 0x295 JUMPI PUSH1 0x0 DUP1 REVERT JUMPDEST POP PUSH2 0x29E PUSH2 0xBB0 JUMP JUMPDEST PUSH1 0x40 MLOAD PUSH2 0x163 SWAP10 SWAP9 SWAP8 SWAP7 SWAP6 SWAP5 SWAP4 SWAP3 SWAP2 SWAP1 PUSH2 0x1669 JUMP JUMPDEST CALLVALUE DUP1 ISZERO PUSH2 0x2BF JUMPI PUSH1 0x0 DUP1 REVERT JUMPDEST POP PUSH2 0x181 PUSH10 0x21E19E0C9BAB2400000 DUP2 JUMP JUMPDEST CALLVALUE DUP1 ISZERO PUSH2 0x2DD JUMPI PUSH1 0x0 DUP1 REVERT JUMPDEST POP PUSH2 0x218 PUSH2 0xEAA JUMP JUMPDEST CALLVALUE DUP1 ISZERO PUSH2 0x2F2 JUMPI PUSH1 0x0 DUP1 REVERT JUMPDEST POP PUSH2 0x181 PUSH32 0x0 DUP2 JUMP JUMPDEST PUSH2 0x1BA PUSH2 0xF13 JUMP JUMPDEST CALLVALUE DUP1 ISZERO PUSH2 0x32E JUMPI PUSH1 0x0 DUP1 REVERT JUMPDEST POP PUSH2 0x1BA PUSH2 0x1088 JUMP JUMPDEST CALLVALUE DUP1 ISZERO PUSH2 0x343 JUMPI PUSH1 0x0 DUP1 REVERT JUMPDEST POP PUSH2 0x181 PUSH1 0x2 SLOAD DUP2 JUMP JUMPDEST CALLVALUE DUP1 ISZERO PUSH2 0x359 JUMPI PUSH1 0x0 DUP1 REVERT JUMPDEST POP PUSH2 0x1BA PUSH2 0x1358 JUMP JUMPDEST CALLVALUE DUP1 ISZERO PUSH2 0x36E JUMPI PUSH1 0x0 DUP1 REVERT JUMPDEST POP PUSH1 0x4 SLOAD PUSH2 0x218 SWAP1 PUSH1 0x1 PUSH1 0xA0 SHL SWAP1 DIV PUSH1 0xFF AND DUP2 JUMP JUMPDEST CALLVALUE DUP1 ISZERO PUSH2 0x38F JUMPI PUSH1 0x0 DUP1 REVERT JUMPDEST POP PUSH2 0x181 PUSH1 0x8 DUP2 JUMP JUMPDEST PUSH1 0x0 SLOAD PUSH1 0x1 PUSH1 0x1 PUSH1 0xA0 SHL SUB AND CALLER EQ PUSH2 0x3E8 JUMPI PUSH1 0x40 MLOAD PUSH3 0x461BCD PUSH1 0xE5 SHL DUP2 MSTORE PUSH1 0x20 PUSH1 0x4 DUP3 ADD MSTORE PUSH1 0xE PUSH1 0x24 DUP3 ADD MSTORE PUSH14 0x139BDD08185D5D1A1BDC9A5E9959 PUSH1 0x92 SHL PUSH1 0x44 DUP3 ADD MSTORE PUSH1 0x64 ADD JUMPDEST PUSH1 0x40 MLOAD DUP1 SWAP2 SUB SWAP1 REVERT JUMPDEST PUSH1 0x4 SLOAD PUSH1 0x1 PUSH1 0xB0 SHL SWAP1 DIV PUSH1 0xFF AND ISZERO PUSH2 0x412 JUMPI PUSH1 0x40 MLOAD PUSH3 0x461BCD PUSH1 0xE5 SHL DUP2 MSTORE PUSH1 0x4 ADD PUSH2 0x3DF SWAP1 PUSH2 0x16C4 JUMP JUMPDEST PUSH1 0x4 DUP1 SLOAD PUSH1 0xFF PUSH1 0xB0 SHL NOT AND PUSH1 0x1 PUSH1 0xB0 SHL OR SWAP1 SSTORE SELFBALANCE PUSH2 0x468 JUMPI PUSH1 0x40 MLOAD PUSH3 0x461BCD PUSH1 0xE5 SHL DUP2 MSTORE PUSH1 0x20 PUSH1 0x4 DUP3 ADD MSTORE PUSH1 0x13 PUSH1 0x24 DUP3 ADD MSTORE PUSH19 0x4E6F7468696E6720746F207769746864726177 PUSH1 0x68 SHL PUSH1 0x44 DUP3 ADD MSTORE PUSH1 0x64 ADD PUSH2 0x3DF JUMP JUMPDEST PUSH1 0x0 DUP1 PUSH1 0x40 MLOAD DUP1 PUSH1 0x20 ADD PUSH1 0x40 MSTORE DUP1 PUSH1 0x0 DUP2 MSTORE POP SWAP1 POP PUSH1 0x0 PUSH1 0x1 SLOAD GT DUP1 ISZERO PUSH2 0x491 JUMPI POP PUSH1 0x1 SLOAD TIMESTAMP LT ISZERO JUMPDEST ISZERO PUSH2 0x4C4 JUMPI POP POP PUSH1 0x40 DUP1 MLOAD DUP1 DUP3 ADD SWAP1 SWAP2 MSTORE PUSH1 0x11 DUP2 MSTORE PUSH17 0x151A5B59481B1BD8DAC8195E1C1A5C9959 PUSH1 0x7A SHL PUSH1 0x20 DUP3 ADD MSTORE PUSH1 0x1 SWAP1 JUMPDEST PUSH1 0x4 SLOAD PUSH1 0x1 PUSH1 0xA0 SHL SWAP1 DIV PUSH1 0xFF AND DUP1 ISZERO PUSH2 0x4DB JUMPI POP DUP2 ISZERO JUMPDEST ISZERO PUSH2 0x57E JUMPI ADDRESS PUSH1 0x1 PUSH1 0x1 PUSH1 0xA0 SHL SUB AND PUSH4 0x8E15F473 PUSH1 0x40 MLOAD DUP2 PUSH4 0xFFFFFFFF AND PUSH1 0xE0 SHL DUP2 MSTORE PUSH1 0x4 ADD PUSH1 0x20 PUSH1 0x40 MLOAD DUP1 DUP4 SUB DUP2 DUP7 GAS STATICCALL SWAP3 POP POP POP DUP1 ISZERO PUSH2 0x53A JUMPI POP PUSH1 0x40 DUP1 MLOAD PUSH1 0x1F RETURNDATASIZE SWAP1 DUP2 ADD PUSH1 0x1F NOT AND DUP3 ADD SWAP1 SWAP3 MSTORE PUSH2 0x537 SWAP2 DUP2 ADD SWAP1 PUSH2 0x16FB JUMP JUMPDEST PUSH1 0x1 JUMPDEST ISZERO PUSH2 0x57E JUMPI PUSH1 0x2 SLOAD DUP2 LT PUSH2 0x57C JUMPI PUSH1 0x1 SWAP3 POP PUSH1 0x40 MLOAD DUP1 PUSH1 0x40 ADD PUSH1 0x40 MSTORE DUP1 PUSH1 0x14 DUP2 MSTORE PUSH1 0x20 ADD PUSH20 0x141C9A58D9481D185C99D95D081C995858DA1959 PUSH1 0x62 SHL DUP2 MSTORE POP SWAP2 POP JUMPDEST POP JUMPDEST PUSH1 0x4 SLOAD PUSH1 0x1 PUSH1 0xA8 SHL SWAP1 DIV PUSH1 0xFF AND DUP1 ISZERO PUSH2 0x595 JUMPI POP DUP2 ISZERO JUMPDEST ISZERO PUSH2 0x5D3 JUMPI PUSH1 0x3 SLOAD SELFBALANCE LT PUSH2 0x5D3 JUMPI POP POP PUSH1 0x40 DUP1 MLOAD DUP1 DUP3 ADD SWAP1 SWAP2 MSTORE PUSH1 0x13 DUP2 MSTORE PUSH19 0x11DBD85B08185B5BDD5B9D081C995858DA1959 PUSH1 0x6A SHL PUSH1 0x20 DUP3 ADD MSTORE PUSH1 0x1 SWAP1 JUMPDEST DUP2 PUSH2 0x618 JUMPI PUSH1 0x40 MLOAD PUSH3 0x461BCD PUSH1 0xE5 SHL DUP2 MSTORE PUSH1 0x20 PUSH1 0x4 DUP3 ADD MSTORE PUSH1 0x15 PUSH1 0x24 DUP3 ADD MSTORE PUSH21 0x15985D5B1D081A5CC81CDD1A5B1B081B1BD8DAD959 PUSH1 0x5A SHL PUSH1 0x44 DUP3 ADD MSTORE PUSH1 0x64 ADD PUSH2 0x3DF JUMP JUMPDEST PUSH1 0x0 DUP1 SLOAD PUSH1 0x40 MLOAD SELFBALANCE SWAP3 SWAP2 PUSH1 0x1 PUSH1 0x1 PUSH1 0xA0 SHL SUB AND SWAP1 DUP4 SWAP1 DUP4 DUP2 DUP2 DUP2 DUP6 DUP8 GAS CALL SWAP3 POP POP POP RETURNDATASIZE DUP1 PUSH1 0x0 DUP2 EQ PUSH2 0x666 JUMPI PUSH1 0x40 MLOAD SWAP2 POP PUSH1 0x1F NOT PUSH1 0x3F RETURNDATASIZE ADD AND DUP3 ADD PUSH1 0x40 MSTORE RETURNDATASIZE DUP3 MSTORE RETURNDATASIZE PUSH1 0x0 PUSH1 0x20 DUP5 ADD RETURNDATACOPY PUSH2 0x66B JUMP JUMPDEST PUSH1 0x60 SWAP2 POP JUMPDEST POP POP SWAP1 POP DUP1 PUSH2 0x6AE JUMPI PUSH1 0x40 MLOAD PUSH3 0x461BCD PUSH1 0xE5 SHL DUP2 MSTORE PUSH1 0x20 PUSH1 0x4 DUP3 ADD MSTORE PUSH1 0xF PUSH1 0x24 DUP3 ADD MSTORE PUSH15 0x151C985B9CD9995C8819985A5B1959 PUSH1 0x8A SHL PUSH1 0x44 DUP3 ADD MSTORE PUSH1 0x64 ADD PUSH2 0x3DF JUMP JUMPDEST PUSH32 0x783A90694C9F00C5F34817271A9BF8AFB388F51995E3BE1F9BC413B4AF1548A8 DUP4 PUSH1 0x40 MLOAD PUSH2 0x6DD SWAP2 SWAP1 PUSH2 0x1714 JUMP JUMPDEST PUSH1 0x40 MLOAD DUP1 SWAP2 SUB SWAP1 LOG1 PUSH1 0x0 SLOAD PUSH1 0x40 MLOAD DUP4 DUP2 MSTORE PUSH1 0x1 PUSH1 0x1 PUSH1 0xA0 SHL SUB SWAP1 SWAP2 AND SWAP1 PUSH32 0x7FCF532C15F0A6DB0BD6D0E038BEA71D30D808C7D98CB3BF7268A95BF5081B65 SWAP1 PUSH1 0x20 ADD PUSH1 0x40 MLOAD DUP1 SWAP2 SUB SWAP1 LOG2 POP POP PUSH1 0x4 DUP1 SLOAD PUSH1 0xFF PUSH1 0xB0 SHL NOT AND SWAP1 SSTORE POP POP JUMP JUMPDEST PUSH1 0x0 PUSH1 0x60 SELFBALANCE PUSH1 0x0 SUB PUSH2 0x778 JUMPI POP POP PUSH1 0x40 DUP1 MLOAD DUP1 DUP3 ADD SWAP1 SWAP2 MSTORE PUSH1 0x14 DUP2 MSTORE PUSH20 0x4E6F2066756E647320746F207769746864726177 PUSH1 0x60 SHL PUSH1 0x20 DUP3 ADD MSTORE PUSH1 0x0 SWAP2 JUMP JUMPDEST PUSH1 0x0 PUSH1 0x1 SLOAD GT DUP1 ISZERO PUSH2 0x78C JUMPI POP PUSH1 0x1 SLOAD TIMESTAMP LT ISZERO JUMPDEST ISZERO PUSH2 0x7C0 JUMPI POP POP PUSH1 0x40 DUP1 MLOAD DUP1 DUP3 ADD SWAP1 SWAP2 MSTORE PUSH1 0x11 DUP2 MSTORE PUSH17 0x151A5B59481B1BD8DAC8195E1C1A5C9959 PUSH1 0x7A SHL PUSH1 0x20 DUP3 ADD MSTORE PUSH1 0x1 SWAP2 JUMP JUMPDEST PUSH1 0x4 SLOAD PUSH1 0x1 PUSH1 0xA0 SHL SWAP1 DIV PUSH1 0xFF AND ISZERO PUSH2 0x8A4 JUMPI ADDRESS PUSH1 0x1 PUSH1 0x1 PUSH1 0xA0 SHL SUB AND PUSH4 0x8E15F473 PUSH1 0x40 MLOAD DUP2 PUSH4 0xFFFFFFFF AND PUSH1 0xE0 SHL DUP2 MSTORE PUSH1 0x4 ADD PUSH1 0x20 PUSH1 0x40 MLOAD DUP1 DUP4 SUB DUP2 DUP7 GAS STATICCALL SWAP3 POP POP POP DUP1 ISZERO PUSH2 0x82C JUMPI POP PUSH1 0x40 DUP1 MLOAD PUSH1 0x1F RETURNDATASIZE SWAP1 DUP2 ADD PUSH1 0x1F NOT AND DUP3 ADD SWAP1 SWAP3 MSTORE PUSH2 0x829 SWAP2 DUP2 ADD SWAP1 PUSH2 0x16FB JUMP JUMPDEST PUSH1 0x1 JUMPDEST PUSH2 0x864 JUMPI POP POP PUSH1 0x40 DUP1 MLOAD DUP1 DUP3 ADD SWAP1 SWAP2 MSTORE PUSH1 0x16 DUP2 MSTORE PUSH22 0x5072696365206665656420756E617661696C61626C65 PUSH1 0x50 SHL PUSH1 0x20 DUP3 ADD MSTORE PUSH1 0x0 SWAP2 JUMP JUMPDEST PUSH1 0x2 SLOAD DUP2 LT PUSH2 0x8A2 JUMPI POP POP PUSH1 0x40 DUP1 MLOAD DUP1 DUP3 ADD SWAP1 SWAP2 MSTORE PUSH1 0x14 DUP2 MSTORE PUSH20 0x141C9A58D9481D185C99D95D081C995858DA1959 PUSH1 0x62 SHL PUSH1 0x20 DUP3 ADD MSTORE PUSH1 0x1 SWAP3 SWAP1 SWAP2 POP JUMP JUMPDEST POP JUMPDEST PUSH1 0x4 SLOAD PUSH1 0x1 PUSH1 0xA8 SHL SWAP1 DIV PUSH1 0xFF AND DUP1 ISZERO PUSH2 0x8BF JUMPI POP PUSH1 0x3 SLOAD SELFBALANCE LT ISZERO JUMPDEST ISZERO PUSH2 0x8F5 JUMPI POP POP PUSH1 0x40 DUP1 MLOAD DUP1 DUP3 ADD SWAP1 SWAP2 MSTORE PUSH1 0x13 DUP2 MSTORE PUSH19 0x11DBD85B08185B5BDD5B9D081C995858DA1959 PUSH1 0x6A SHL PUSH1 0x20 DUP3 ADD MSTORE PUSH1 0x1 SWAP2 JUMP JUMPDEST POP POP PUSH1 0x40 DUP1 MLOAD DUP1 DUP3 ADD SWAP1 SWAP2 MSTORE PUSH1 0x12 DUP2 MSTORE PUSH18 0x15985D5B1D081CDD1A5B1B081B1BD8DAD959 PUSH1 0x72 SHL PUSH1 0x20 DUP3 ADD MSTORE PUSH1 0x0 SWAP2 JUMP JUMPDEST PUSH1 0x0 PUSH1 0x4 PUSH1 0x0 SWAP1 SLOAD SWAP1 PUSH2 0x100 EXP SWAP1 DIV PUSH1 0x1 PUSH1 0x1 PUSH1 0xA0 SHL SUB AND PUSH1 0x1 PUSH1 0x1 PUSH1 0xA0 SHL SUB AND PUSH4 0xFEAF968C PUSH1 0x40 MLOAD DUP2 PUSH4 0xFFFFFFFF AND PUSH1 0xE0 SHL DUP2 MSTORE PUSH1 0x4 ADD PUSH1 0xA0 PUSH1 0x40 MLOAD DUP1 DUP4 SUB DUP2 DUP7 GAS STATICCALL SWAP3 POP POP POP DUP1 ISZERO PUSH2 0x996 JUMPI POP PUSH1 0x40 DUP1 MLOAD PUSH1 0x1F RETURNDATASIZE SWAP1 DUP2 ADD PUSH1 0x1F NOT AND DUP3 ADD SWAP1 SWAP3 MSTORE PUSH2 0x993 SWAP2 DUP2 ADD SWAP1 PUSH2 0x174D JUMP JUMPDEST PUSH1 0x1 JUMPDEST PUSH2 0x9E2 JUMPI PUSH1 0x40 MLOAD PUSH3 0x461BCD PUSH1 0xE5 SHL DUP2 MSTORE PUSH1 0x20 PUSH1 0x4 DUP3 ADD MSTORE PUSH1 0x1F PUSH1 0x24 DUP3 ADD MSTORE PUSH32 0x4661696C656420746F206765742070726963652066726F6D206F7261636C6500 PUSH1 0x44 DUP3 ADD MSTORE PUSH1 0x64 ADD PUSH2 0x3DF JUMP JUMPDEST PUSH1 0x0 DUP5 SGT PUSH2 0xA32 JUMPI PUSH1 0x40 MLOAD PUSH3 0x461BCD PUSH1 0xE5 SHL DUP2 MSTORE PUSH1 0x20 PUSH1 0x4 DUP3 ADD MSTORE PUSH1 0x19 PUSH1 0x24 DUP3 ADD MSTORE PUSH32 0x496E76616C69642070726963652066726F6D206F7261636C6500000000000000 PUSH1 0x44 DUP3 ADD MSTORE PUSH1 0x64 ADD PUSH2 0x3DF JUMP JUMPDEST PUSH1 0x0 DUP3 GT PUSH2 0xA77 JUMPI PUSH1 0x40 MLOAD PUSH3 0x461BCD PUSH1 0xE5 SHL DUP2 MSTORE PUSH1 0x20 PUSH1 0x4 DUP3 ADD MSTORE PUSH1 0x12 PUSH1 0x24 DUP3 ADD MSTORE PUSH18 0x526F756E64206E6F7420636F6D706C657465 PUSH1 0x70 SHL PUSH1 0x44 DUP3 ADD MSTORE PUSH1 0x64 ADD PUSH2 0x3DF JUMP JUMPDEST PUSH2 0xE10 PUSH2 0xA84 DUP4 TIMESTAMP PUSH2 0x17B3 JUMP JUMPDEST LT PUSH2 0xAC6 JUMPI PUSH1 0x40 MLOAD PUSH3 0x461BCD PUSH1 0xE5 SHL DUP2 MSTORE PUSH1 0x20 PUSH1 0x4 DUP3 ADD MSTORE PUSH1 0x12 PUSH1 0x24 DUP3 ADD MSTORE PUSH18 0x141C9A58D94819185D18481D1BDBC81BDB19 PUSH1 0x72 SHL PUSH1 0x44 DUP3 ADD MSTORE PUSH1 0x64 ADD PUSH2 0x3DF JUMP JUMPDEST PUSH1 0x0 PUSH1 0x5 SLOAD SGT DUP1 ISZERO PUSH2 0xADA JUMPI POP PUSH1 0x0 PUSH1 0x6 SLOAD GT JUMPDEST ISZERO PUSH2 0xBA6 JUMPI PUSH1 0x0 PUSH1 0x6 SLOAD TIMESTAMP PUSH2 0xAEF SWAP2 SWAP1 PUSH2 0x17B3 JUMP JUMPDEST SWAP1 POP PUSH2 0xE10 DUP2 LT ISZERO PUSH2 0xBA4 JUMPI PUSH1 0x0 PUSH1 0x5 SLOAD DUP7 SGT PUSH2 0xB2D JUMPI PUSH1 0x5 SLOAD PUSH2 0xB13 DUP8 DUP3 PUSH2 0x17CC JUMP JUMPDEST PUSH2 0xB1E SWAP1 PUSH1 0x64 PUSH2 0x17F3 JUMP JUMPDEST PUSH2 0xB28 SWAP2 SWAP1 PUSH2 0x1839 JUMP JUMPDEST PUSH2 0xB4F JUMP JUMPDEST PUSH1 0x5 SLOAD PUSH2 0xB3A DUP2 DUP9 PUSH2 0x17CC JUMP JUMPDEST PUSH2 0xB45 SWAP1 PUSH1 0x64 PUSH2 0x17F3 JUMP JUMPDEST PUSH2 0xB4F SWAP2 SWAP1 PUSH2 0x1839 JUMP JUMPDEST SWAP1 POP PUSH1 0x32 DUP2 GT ISZERO PUSH2 0xBA2 JUMPI PUSH1 0x40 MLOAD PUSH3 0x461BCD PUSH1 0xE5 SHL DUP2 MSTORE PUSH1 0x20 PUSH1 0x4 DUP3 ADD MSTORE PUSH1 0x18 PUSH1 0x24 DUP3 ADD MSTORE PUSH32 0x5072696365206368616E676520746F6F2065787472656D650000000000000000 PUSH1 0x44 DUP3 ADD MSTORE PUSH1 0x64 ADD PUSH2 0x3DF JUMP JUMPDEST POP JUMPDEST POP JUMPDEST POP SWAP2 SWAP5 SWAP4 POP POP POP POP JUMP JUMPDEST PUSH1 0x0 DUP1 PUSH1 0x0 DUP1 PUSH1 0x0 DUP1 PUSH1 0x0 DUP1 PUSH1 0x60 ADDRESS PUSH1 0x1 PUSH1 0x1 PUSH1 0xA0 SHL SUB AND PUSH4 0x8E15F473 PUSH1 0x40 MLOAD DUP2 PUSH4 0xFFFFFFFF AND PUSH1 0xE0 SHL DUP2 MSTORE PUSH1 0x4 ADD PUSH1 0x20 PUSH1 0x40 MLOAD DUP1 DUP4 SUB DUP2 DUP7 GAS STATICCALL SWAP3 POP POP POP DUP1 ISZERO PUSH2 0xC18 JUMPI POP PUSH1 0x40 DUP1 MLOAD PUSH1 0x1F RETURNDATASIZE SWAP1 DUP2 ADD PUSH1 0x1F NOT AND DUP3 ADD SWAP1 SWAP3 MSTORE PUSH2 0xC15 SWAP2 DUP2 ADD SWAP1 PUSH2 0x16FB JUMP JUMPDEST PUSH1 0x1 JUMPDEST PUSH2 0xC25 JUMPI PUSH1 0x0 SWAP8 POP PUSH2 0xC28 JUMP JUMPDEST SWAP8 POP JUMPDEST PUSH1 0x1 SLOAD TIMESTAMP LT ISZERO PUSH2 0xC45 JUMPI TIMESTAMP PUSH1 0x1 SLOAD PUSH2 0xC40 SWAP2 SWAP1 PUSH2 0x17B3 JUMP JUMPDEST PUSH2 0xC48 JUMP JUMPDEST PUSH1 0x0 JUMPDEST PUSH1 0x4 SLOAD PUSH1 0x3 SLOAD SWAP2 SWAP9 POP PUSH1 0xFF PUSH1 0x1 PUSH1 0xA0 SHL DUP3 DIV DUP2 AND SWAP9 POP PUSH1 0x1 PUSH1 0xA8 SHL SWAP1 SWAP2 DIV AND SWAP6 POP SELFBALANCE SWAP5 POP SWAP3 POP DUP5 DUP1 ISZERO PUSH2 0xC7D JUMPI POP PUSH1 0x0 PUSH1 0x3 SLOAD GT JUMPDEST PUSH2 0xC88 JUMPI PUSH1 0x0 PUSH2 0xCA0 JUMP JUMPDEST PUSH1 0x3 SLOAD PUSH2 0xC96 DUP6 PUSH1 0x64 PUSH2 0x1867 JUMP JUMPDEST PUSH2 0xCA0 SWAP2 SWAP1 PUSH2 0x187E JUMP JUMPDEST SWAP2 POP PUSH1 0x0 DUP1 PUSH1 0x1 SLOAD GT PUSH2 0xCB4 JUMPI PUSH1 0x0 PUSH2 0xCBB JUMP JUMPDEST PUSH1 0x1 SLOAD TIMESTAMP LT ISZERO JUMPDEST PUSH1 0x4 SLOAD SWAP1 SWAP2 POP PUSH1 0x0 SWAP1 PUSH1 0x1 PUSH1 0xA0 SHL SWAP1 DIV PUSH1 0xFF AND DUP1 ISZERO PUSH2 0xCDA JUMPI POP PUSH1 0x0 DUP11 GT JUMPDEST PUSH2 0xCE5 JUMPI PUSH1 0x0 PUSH2 0xCEC JUMP JUMPDEST PUSH1 0x2 SLOAD DUP11 LT ISZERO JUMPDEST PUSH1 0x4 SLOAD SWAP1 SWAP2 POP PUSH1 0x0 SWAP1 PUSH1 0x1 PUSH1 0xA8 SHL SWAP1 DIV PUSH1 0xFF AND PUSH2 0xD0A JUMPI PUSH1 0x0 PUSH2 0xD11 JUMP JUMPDEST PUSH1 0x3 SLOAD DUP8 LT ISZERO JUMPDEST SWAP1 POP DUP3 ISZERO PUSH2 0xD4E JUMPI PUSH1 0x0 SWAP12 POP PUSH1 0x40 MLOAD DUP1 PUSH1 0x40 ADD PUSH1 0x40 MSTORE DUP1 PUSH1 0x11 DUP2 MSTORE PUSH1 0x20 ADD PUSH17 0x151A5B59481B1BD8DAC8195E1C1A5C9959 PUSH1 0x7A SHL DUP2 MSTORE POP SWAP4 POP PUSH2 0xE9C JUMP JUMPDEST DUP2 ISZERO PUSH2 0xD8C JUMPI PUSH1 0x0 SWAP12 POP PUSH1 0x40 MLOAD DUP1 PUSH1 0x40 ADD PUSH1 0x40 MSTORE DUP1 PUSH1 0x14 DUP2 MSTORE PUSH1 0x20 ADD PUSH20 0x141C9A58D9481D185C99D95D081C995858DA1959 PUSH1 0x62 SHL DUP2 MSTORE POP SWAP4 POP PUSH2 0xE9C JUMP JUMPDEST DUP1 ISZERO PUSH2 0xDC9 JUMPI PUSH1 0x0 SWAP12 POP PUSH1 0x40 MLOAD DUP1 PUSH1 0x40 ADD PUSH1 0x40 MSTORE DUP1 PUSH1 0x13 DUP2 MSTORE PUSH1 0x20 ADD PUSH19 0x11DBD85B08185B5BDD5B9D081C995858DA1959 PUSH1 0x6A SHL DUP2 MSTORE POP SWAP4 POP PUSH2 0xE9C JUMP JUMPDEST PUSH1 0x4 SLOAD PUSH1 0x1 SWAP13 POP PUSH1 0x1 PUSH1 0xA8 SHL SWAP1 DIV PUSH1 0xFF AND ISZERO PUSH2 0xE1C JUMPI PUSH1 0x40 MLOAD DUP1 PUSH1 0x40 ADD PUSH1 0x40 MSTORE DUP1 PUSH1 0x17 DUP2 MSTORE PUSH1 0x20 ADD PUSH32 0x57616974696E6720666F7220676F616C20616D6F756E74000000000000000000 DUP2 MSTORE POP SWAP4 POP PUSH2 0xE9C JUMP JUMPDEST PUSH1 0x4 SLOAD PUSH1 0x1 PUSH1 0xA0 SHL SWAP1 DIV PUSH1 0xFF AND ISZERO PUSH2 0xE6B JUMPI PUSH1 0x40 MLOAD DUP1 PUSH1 0x40 ADD PUSH1 0x40 MSTORE DUP1 PUSH1 0x18 DUP2 MSTORE PUSH1 0x20 ADD PUSH32 0x57616974696E6720666F72207072696365207461726765740000000000000000 DUP2 MSTORE POP SWAP4 POP PUSH2 0xE9C JUMP JUMPDEST PUSH1 0x40 MLOAD DUP1 PUSH1 0x40 ADD PUSH1 0x40 MSTORE DUP1 PUSH1 0x15 DUP2 MSTORE PUSH1 0x20 ADD PUSH21 0x57616974696E6720666F722074696D65206C6F636B PUSH1 0x58 SHL DUP2 MSTORE POP SWAP4 POP JUMPDEST POP POP POP SWAP1 SWAP2 SWAP3 SWAP4 SWAP5 SWAP6 SWAP7 SWAP8 SWAP9 JUMP JUMPDEST PUSH1 0x0 DUP1 PUSH1 0x0 PUSH1 0x1 SLOAD GT PUSH2 0xEEA JUMPI PUSH2 0xEE5 PUSH32 0x0 PUSH4 0x1E13380 PUSH2 0x1892 JUMP JUMPDEST PUSH2 0xEFB JUMP JUMPDEST PUSH1 0x1 SLOAD PUSH2 0xEFB SWAP1 PUSH4 0x1E13380 PUSH2 0x1892 JUMP JUMPDEST SWAP1 POP DUP1 TIMESTAMP LT ISZERO DUP1 ISZERO PUSH2 0xF0D JUMPI POP PUSH1 0x0 SELFBALANCE GT JUMPDEST SWAP2 POP POP SWAP1 JUMP JUMPDEST PUSH7 0x38D7EA4C68000 CALLVALUE LT ISZERO PUSH2 0xF6A JUMPI PUSH1 0x40 MLOAD PUSH3 0x461BCD PUSH1 0xE5 SHL DUP2 MSTORE PUSH1 0x20 PUSH1 0x4 DUP3 ADD MSTORE PUSH1 0x1C PUSH1 0x24 DUP3 ADD MSTORE PUSH32 0x4D696E696D756D206465706F73697420697320302E3030312045544800000000 PUSH1 0x44 DUP3 ADD MSTORE PUSH1 0x64 ADD PUSH2 0x3DF JUMP JUMPDEST PUSH10 0x21E19E0C9BAB2400000 SELFBALANCE GT ISZERO PUSH2 0xFD0 JUMPI PUSH1 0x40 MLOAD PUSH3 0x461BCD PUSH1 0xE5 SHL DUP2 MSTORE PUSH1 0x20 PUSH1 0x4 DUP3 ADD MSTORE PUSH1 0x23 PUSH1 0x24 DUP3 ADD MSTORE PUSH32 0x5661756C7420776F756C6420657863656564206D6178696D756D206361706163 PUSH1 0x44 DUP3 ADD MSTORE PUSH3 0x697479 PUSH1 0xE8 SHL PUSH1 0x64 DUP3 ADD MSTORE PUSH1 0x84 ADD PUSH2 0x3DF JUMP JUMPDEST PUSH1 0x4 SLOAD PUSH1 0x1 PUSH1 0xA8 SHL SWAP1 DIV PUSH1 0xFF AND ISZERO PUSH2 0x1049 JUMPI PUSH1 0x3 SLOAD SELFBALANCE SWAP1 PUSH1 0x0 SWAP1 PUSH2 0xFF5 DUP4 PUSH1 0x64 PUSH2 0x1867 JUMP JUMPDEST PUSH2 0xFFF SWAP2 SWAP1 PUSH2 0x187E JUMP JUMPDEST PUSH1 0x3 SLOAD PUSH1 0x40 DUP1 MLOAD DUP6 DUP2 MSTORE PUSH1 0x20 DUP2 ADD SWAP3 SWAP1 SWAP3 MSTORE DUP2 ADD DUP3 SWAP1 MSTORE SWAP1 SWAP2 POP PUSH32 0xF6621229B3A1F86BFF573CC1432F4F5D4BCF0E65338FDE4DFAF2E37E731152CD SWAP1 PUSH1 0x60 ADD PUSH1 0x40 MLOAD DUP1 SWAP2 SUB SWAP1 LOG1 POP POP JUMPDEST PUSH1 0x40 MLOAD CALLVALUE DUP2 MSTORE CALLER SWAP1 PUSH32 0xE1FFFCC4923D04B559F4D29A8BFC6CDA04EB5B0D3C460751C2402C5C5CC9109C SWAP1 PUSH1 0x20 ADD PUSH1 0x40 MLOAD DUP1 SWAP2 SUB SWAP1 LOG2 PUSH2 0x1086 PUSH2 0x135C JUMP JUMPDEST JUMP JUMPDEST PUSH1 0x0 SLOAD PUSH1 0x1 PUSH1 0x1 PUSH1 0xA0 SHL SUB AND CALLER EQ PUSH2 0x10D3 JUMPI PUSH1 0x40 MLOAD PUSH3 0x461BCD PUSH1 0xE5 SHL DUP2 MSTORE PUSH1 0x20 PUSH1 0x4 DUP3 ADD MSTORE PUSH1 0xE PUSH1 0x24 DUP3 ADD MSTORE PUSH14 0x139BDD08185D5D1A1BDC9A5E9959 PUSH1 0x92 SHL PUSH1 0x44 DUP3 ADD MSTORE PUSH1 0x64 ADD PUSH2 0x3DF JUMP JUMPDEST PUSH1 0x4 SLOAD PUSH1 0x1 PUSH1 0xB0 SHL SWAP1 DIV PUSH1 0xFF AND ISZERO PUSH2 0x10FD JUMPI PUSH1 0x40 MLOAD PUSH3 0x461BCD PUSH1 0xE5 SHL DUP2 MSTORE PUSH1 0x4 ADD PUSH2 0x3DF SWAP1 PUSH2 0x16C4 JUMP JUMPDEST PUSH1 0x4 DUP1 SLOAD PUSH1 0xFF PUSH1 0xB0 SHL NOT AND PUSH1 0x1 PUSH1 0xB0 SHL OR SWAP1 SSTORE PUSH1 0x1 SLOAD PUSH1 0x0 SWAP1 PUSH2 0x114D JUMPI PUSH2 0x1148 PUSH32 0x0 PUSH4 0x1E13380 PUSH2 0x1892 JUMP JUMPDEST PUSH2 0x115E JUMP JUMPDEST PUSH1 0x1 SLOAD PUSH2 0x115E SWAP1 PUSH4 0x1E13380 PUSH2 0x1892 JUMP JUMPDEST SWAP1 POP DUP1 TIMESTAMP LT ISZERO PUSH2 0x11BC JUMPI PUSH1 0x40 MLOAD PUSH3 0x461BCD PUSH1 0xE5 SHL DUP2 MSTORE PUSH1 0x20 PUSH1 0x4 DUP3 ADD MSTORE PUSH1 0x24 DUP1 DUP3 ADD MSTORE PUSH32 0x456D657267656E6379207769746864726177206E6F7420617661696C61626C65 PUSH1 0x44 DUP3 ADD MSTORE PUSH4 0x81E595D PUSH1 0xE2 SHL PUSH1 0x64 DUP3 ADD MSTORE PUSH1 0x84 ADD PUSH2 0x3DF JUMP JUMPDEST PUSH1 0x0 SELFBALANCE GT PUSH2 0x1202 JUMPI PUSH1 0x40 MLOAD PUSH3 0x461BCD PUSH1 0xE5 SHL DUP2 MSTORE PUSH1 0x20 PUSH1 0x4 DUP3 ADD MSTORE PUSH1 0x13 PUSH1 0x24 DUP3 ADD MSTORE PUSH19 0x4E6F7468696E6720746F207769746864726177 PUSH1 0x68 SHL PUSH1 0x44 DUP3 ADD MSTORE PUSH1 0x64 ADD PUSH2 0x3DF JUMP JUMPDEST PUSH1 0x0 DUP1 SLOAD PUSH1 0x40 MLOAD SELFBALANCE SWAP3 SWAP2 PUSH1 0x1 PUSH1 0x1 PUSH1 0xA0 SHL SUB AND SWAP1 DUP4 SWAP1 DUP4 DUP2 DUP2 DUP2 DUP6 DUP8 GAS CALL SWAP3 POP POP POP RETURNDATASIZE DUP1 PUSH1 0x0 DUP2 EQ PUSH2 0x1250 JUMPI PUSH1 0x40 MLOAD SWAP2 POP PUSH1 0x1F NOT PUSH1 0x3F RETURNDATASIZE ADD AND DUP3 ADD PUSH1 0x40 MSTORE RETURNDATASIZE DUP3 MSTORE RETURNDATASIZE PUSH1 0x0 PUSH1 0x20 DUP5 ADD RETURNDATACOPY PUSH2 0x1255 JUMP JUMPDEST PUSH1 0x60 SWAP2 POP JUMPDEST POP POP SWAP1 POP DUP1 PUSH2 0x12A6 JUMPI PUSH1 0x40 MLOAD PUSH3 0x461BCD PUSH1 0xE5 SHL DUP2 MSTORE PUSH1 0x20 PUSH1 0x4 DUP3 ADD MSTORE PUSH1 0x19 PUSH1 0x24 DUP3 ADD MSTORE PUSH32 0x456D657267656E6379207472616E73666572206661696C656400000000000000 PUSH1 0x44 DUP3 ADD MSTORE PUSH1 0x64 ADD PUSH2 0x3DF JUMP JUMPDEST PUSH32 0x783A90694C9F00C5F34817271A9BF8AFB388F51995E3BE1F9BC413B4AF1548A8 PUSH1 0x40 MLOAD PUSH2 0x12FC SWAP1 PUSH1 0x20 DUP1 DUP3 MSTORE PUSH1 0x14 SWAP1 DUP3 ADD MSTORE PUSH20 0x115B595C99D95B98DE481DDA5D1A191C985DD85B PUSH1 0x62 SHL PUSH1 0x40 DUP3 ADD MSTORE PUSH1 0x60 ADD SWAP1 JUMP JUMPDEST PUSH1 0x40 MLOAD DUP1 SWAP2 SUB SWAP1 LOG1 PUSH1 0x0 SLOAD PUSH1 0x40 MLOAD DUP4 DUP2 MSTORE PUSH1 0x1 PUSH1 0x1 PUSH1 0xA0 SHL SUB SWAP1 SWAP2 AND SWAP1 PUSH32 0x7FCF532C15F0A6DB0BD6D0E038BEA71D30D808C7D98CB3BF7268A95BF5081B65 SWAP1 PUSH1 0x20 ADD PUSH1 0x40 MLOAD DUP1 SWAP2 SUB SWAP1 LOG2 POP POP PUSH1 0x4 DUP1 SLOAD PUSH1 0xFF PUSH1 0xB0 SHL NOT AND SWAP1 SSTORE POP JUMP JUMPDEST PUSH2 0x1086 JUMPDEST PUSH1 0x4 SLOAD PUSH1 0x1 PUSH1 0xB0 SHL SWAP1 DIV PUSH1 0xFF AND ISZERO PUSH2 0x1386 JUMPI PUSH1 0x40 MLOAD PUSH3 0x461BCD PUSH1 0xE5 SHL DUP2 MSTORE PUSH1 0x4 ADD PUSH2 0x3DF SWAP1 PUSH2 0x16C4 JUMP JUMPDEST PUSH1 0x4 DUP1 SLOAD PUSH1 0xFF PUSH1 0xB0 SHL NOT AND PUSH1 0x1 PUSH1 0xB0 SHL OR SWAP1 SSTORE SELFBALANCE ISZERO PUSH2 0x15F1 JUMPI PUSH1 0x0 DUP1 PUSH1 0x40 MLOAD DUP1 PUSH1 0x20 ADD PUSH1 0x40 MSTORE DUP1 PUSH1 0x0 DUP2 MSTORE POP SWAP1 POP PUSH1 0x0 PUSH1 0x1 SLOAD GT DUP1 ISZERO PUSH2 0x13C8 JUMPI POP PUSH1 0x1 SLOAD TIMESTAMP LT ISZERO JUMPDEST ISZERO PUSH2 0x13FB JUMPI POP POP PUSH1 0x40 DUP1 MLOAD DUP1 DUP3 ADD SWAP1 SWAP2 MSTORE PUSH1 0x11 DUP2 MSTORE PUSH17 0x151A5B59481B1BD8DAC8195E1C1A5C9959 PUSH1 0x7A SHL PUSH1 0x20 DUP3 ADD MSTORE PUSH1 0x1 SWAP1 JUMPDEST PUSH1 0x4 SLOAD PUSH1 0x1 PUSH1 0xA0 SHL SWAP1 DIV PUSH1 0xFF AND DUP1 ISZERO PUSH2 0x1412 JUMPI POP DUP2 ISZERO JUMPDEST ISZERO PUSH2 0x14BB JUMPI ADDRESS PUSH1 0x1 PUSH1 0x1 PUSH1 0xA0 SHL SUB AND PUSH4 0x8E15F473 PUSH1 0x40 MLOAD DUP2 PUSH4 0xFFFFFFFF AND PUSH1 0xE0 SHL DUP2 MSTORE PUSH1 0x4 ADD PUSH1 0x20 PUSH1 0x40 MLOAD DUP1 DUP4 SUB DUP2 DUP7 GAS STATICCALL SWAP3 POP POP POP DUP1 ISZERO PUSH2 0x1471 JUMPI POP PUSH1 0x40 DUP1 MLOAD PUSH1 0x1F RETURNDATASIZE SWAP1 DUP2 ADD PUSH1 0x1F NOT AND DUP3 ADD SWAP1 SWAP3 MSTORE PUSH2 0x146E SWAP2 DUP2 ADD SWAP1 PUSH2 0x16FB JUMP JUMPDEST PUSH1 0x1 JUMPDEST PUSH2 0x147C JUMPI POP POP PUSH2 0x15F1 JUMP JUMPDEST PUSH1 0x2 SLOAD DUP2 LT PUSH2 0x14B9 JUMPI PUSH1 0x1 SWAP3 POP PUSH1 0x40 MLOAD DUP1 PUSH1 0x40 ADD PUSH1 0x40 MSTORE DUP1 PUSH1 0x14 DUP2 MSTORE PUSH1 0x20 ADD PUSH20 0x141C9A58D9481D185C99D95D081C995858DA1959 PUSH1 0x62 SHL DUP2 MSTORE POP SWAP2 POP JUMPDEST POP JUMPDEST PUSH1 0x4 SLOAD PUSH1 0x1 PUSH1 0xA8 SHL SWAP1 DIV PUSH1 0xFF AND DUP1 ISZERO PUSH2 0x14D2 JUMPI POP DUP2 ISZERO JUMPDEST ISZERO PUSH2 0x1510 JUMPI PUSH1 0x3 SLOAD SELFBALANCE LT PUSH2 0x1510 JUMPI POP POP PUSH1 0x40 DUP1 MLOAD DUP1 DUP3 ADD SWAP1 SWAP2 MSTORE PUSH1 0x13 DUP2 MSTORE PUSH19 0x11DBD85B08185B5BDD5B9D081C995858DA1959 PUSH1 0x6A SHL PUSH1 0x20 DUP3 ADD MSTORE PUSH1 0x1 SWAP1 JUMPDEST DUP2 ISZERO PUSH2 0x15EE JUMPI PUSH1 0x0 DUP1 SLOAD PUSH1 0x40 MLOAD SELFBALANCE SWAP3 SWAP2 PUSH1 0x1 PUSH1 0x1 PUSH1 0xA0 SHL SUB AND SWAP1 DUP4 SWAP1 DUP4 DUP2 DUP2 DUP2 DUP6 DUP8 GAS CALL SWAP3 POP POP POP RETURNDATASIZE DUP1 PUSH1 0x0 DUP2 EQ PUSH2 0x1564 JUMPI PUSH1 0x40 MLOAD SWAP2 POP PUSH1 0x1F NOT PUSH1 0x3F RETURNDATASIZE ADD AND DUP3 ADD PUSH1 0x40 MSTORE RETURNDATASIZE DUP3 MSTORE RETURNDATASIZE PUSH1 0x0 PUSH1 0x20 DUP5 ADD RETURNDATACOPY PUSH2 0x1569 JUMP JUMPDEST PUSH1 0x60 SWAP2 POP JUMPDEST POP POP SWAP1 POP DUP1 ISZERO PUSH2 0x15EB JUMPI PUSH1 0x0 SLOAD PUSH1 0x40 MLOAD PUSH1 0x1 PUSH1 0x1 PUSH1 0xA0 SHL SUB SWAP1 SWAP2 AND SWAP1 PUSH32 0x4AD0472683BD43F275A5E9C98856D62B677F894E5B5BC4FA3AA491C93548E100 SWAP1 PUSH2 0x15B4 SWAP1 DUP6 SWAP1 DUP8 SWAP1 PUSH2 0x18A5 JUMP JUMPDEST PUSH1 0x40 MLOAD DUP1 SWAP2 SUB SWAP1 LOG2 PUSH32 0x783A90694C9F00C5F34817271A9BF8AFB388F51995E3BE1F9BC413B4AF1548A8 DUP4 PUSH1 0x40 MLOAD PUSH2 0x6DD SWAP2 SWAP1 PUSH2 0x1714 JUMP JUMPDEST POP POP JUMPDEST POP POP JUMPDEST PUSH1 0x4 DUP1 SLOAD PUSH1 0xFF PUSH1 0xB0 SHL NOT AND SWAP1 SSTORE JUMP JUMPDEST PUSH1 0x0 DUP2 MLOAD DUP1 DUP5 MSTORE PUSH1 0x0 JUMPDEST DUP2 DUP2 LT ISZERO PUSH2 0x1626 JUMPI PUSH1 0x20 DUP2 DUP6 ADD DUP2 ADD MLOAD DUP7 DUP4 ADD DUP3 ADD MSTORE ADD PUSH2 0x160A JUMP JUMPDEST POP PUSH1 0x0 PUSH1 0x20 DUP3 DUP7 ADD ADD MSTORE PUSH1 0x20 PUSH1 0x1F NOT PUSH1 0x1F DUP4 ADD AND DUP6 ADD ADD SWAP2 POP POP SWAP3 SWAP2 POP POP JUMP JUMPDEST DUP3 ISZERO ISZERO DUP2 MSTORE PUSH1 0x40 PUSH1 0x20 DUP3 ADD MSTORE PUSH1 0x0 PUSH2 0x1661 PUSH1 0x40 DUP4 ADD DUP5 PUSH2 0x1600 JUMP JUMPDEST SWAP5 SWAP4 POP POP POP POP JUMP JUMPDEST PUSH1 0x0 PUSH2 0x120 DUP12 ISZERO ISZERO DUP4 MSTORE DUP11 PUSH1 0x20 DUP5 ADD MSTORE DUP10 PUSH1 0x40 DUP5 ADD MSTORE DUP9 ISZERO ISZERO PUSH1 0x60 DUP5 ADD MSTORE DUP8 ISZERO ISZERO PUSH1 0x80 DUP5 ADD MSTORE DUP7 PUSH1 0xA0 DUP5 ADD MSTORE DUP6 PUSH1 0xC0 DUP5 ADD MSTORE DUP5 PUSH1 0xE0 DUP5 ADD MSTORE DUP1 PUSH2 0x100 DUP5 ADD MSTORE PUSH2 0x16B4 DUP2 DUP5 ADD DUP6 PUSH2 0x1600 JUMP JUMPDEST SWAP13 SWAP12 POP POP POP POP POP POP POP POP POP POP POP POP JUMP JUMPDEST PUSH1 0x20 DUP1 DUP3 MSTORE PUSH1 0x1F SWAP1 DUP3 ADD MSTORE PUSH32 0x5265656E7472616E637947756172643A207265656E7472616E742063616C6C00 PUSH1 0x40 DUP3 ADD MSTORE PUSH1 0x60 ADD SWAP1 JUMP JUMPDEST PUSH1 0x0 PUSH1 0x20 DUP3 DUP5 SUB SLT ISZERO PUSH2 0x170D JUMPI PUSH1 0x0 DUP1 REVERT JUMPDEST POP MLOAD SWAP2 SWAP1 POP JUMP JUMPDEST PUSH1 0x20 DUP2 MSTORE PUSH1 0x0 PUSH2 0x1727 PUSH1 0x20 DUP4 ADD DUP5 PUSH2 0x1600 JUMP JUMPDEST SWAP4 SWAP3 POP POP POP JUMP JUMPDEST DUP1 MLOAD PUSH10 0xFFFFFFFFFFFFFFFFFFFF DUP2 AND DUP2 EQ PUSH2 0x1748 JUMPI PUSH1 0x0 DUP1 REVERT JUMPDEST SWAP2 SWAP1 POP JUMP JUMPDEST PUSH1 0x0 DUP1 PUSH1 0x0 DUP1 PUSH1 0x0 PUSH1 0xA0 DUP7 DUP9 SUB SLT ISZERO PUSH2 0x1765 JUMPI PUSH1 0x0 DUP1 REVERT JUMPDEST PUSH2 0x176E DUP7 PUSH2 0x172E JUMP JUMPDEST SWAP5 POP PUSH1 0x20 DUP7 ADD MLOAD SWAP4 POP PUSH1 0x40 DUP7 ADD MLOAD SWAP3 POP PUSH1 0x60 DUP7 ADD MLOAD SWAP2 POP PUSH2 0x1791 PUSH1 0x80 DUP8 ADD PUSH2 0x172E JUMP JUMPDEST SWAP1 POP SWAP3 SWAP6 POP SWAP3 SWAP6 SWAP1 SWAP4 POP JUMP JUMPDEST PUSH4 0x4E487B71 PUSH1 0xE0 SHL PUSH1 0x0 MSTORE PUSH1 0x11 PUSH1 0x4 MSTORE PUSH1 0x24 PUSH1 0x0 REVERT JUMPDEST DUP2 DUP2 SUB DUP2 DUP2 GT ISZERO PUSH2 0x17C6 JUMPI PUSH2 0x17C6 PUSH2 0x179D JUMP JUMPDEST SWAP3 SWAP2 POP POP JUMP JUMPDEST DUP2 DUP2 SUB PUSH1 0x0 DUP4 SLT DUP1 ISZERO DUP4 DUP4 SGT AND DUP4 DUP4 SLT DUP3 AND OR ISZERO PUSH2 0x17EC JUMPI PUSH2 0x17EC PUSH2 0x179D JUMP JUMPDEST POP SWAP3 SWAP2 POP POP JUMP JUMPDEST DUP1 DUP3 MUL PUSH1 0x0 DUP3 SLT PUSH1 0x1 PUSH1 0xFF SHL DUP5 EQ AND ISZERO PUSH2 0x180F JUMPI PUSH2 0x180F PUSH2 0x179D JUMP JUMPDEST DUP2 DUP2 SDIV DUP4 EQ DUP3 ISZERO OR PUSH2 0x17C6 JUMPI PUSH2 0x17C6 PUSH2 0x179D JUMP JUMPDEST PUSH4 0x4E487B71 PUSH1 0xE0 SHL PUSH1 0x0 MSTORE PUSH1 0x12 PUSH1 0x4 MSTORE PUSH1 0x24 PUSH1 0x0 REVERT JUMPDEST PUSH1 0x0 DUP3 PUSH2 0x1848 JUMPI PUSH2 0x1848 PUSH2 0x1823 JUMP JUMPDEST PUSH1 0x1 PUSH1 0xFF SHL DUP3 EQ PUSH1 0x0 NOT DUP5 EQ AND ISZERO PUSH2 0x1862 JUMPI PUSH2 0x1862 PUSH2 0x179D JUMP JUMPDEST POP SDIV SWAP1 JUMP JUMPDEST DUP1 DUP3 MUL DUP2 ISZERO DUP3 DUP3 DIV DUP5 EQ OR PUSH2 0x17C6 JUMPI PUSH2 0x17C6 PUSH2 0x179D JUMP JUMPDEST PUSH1 0x0 DUP3 PUSH2 0x188D JUMPI PUSH2 0x188D PUSH2 0x1823 JUMP JUMPDEST POP DIV SWAP1 JUMP JUMPDEST DUP1 DUP3 ADD DUP1 DUP3 GT ISZERO PUSH2 0x17C6 JUMPI PUSH2 0x17C6 PUSH2 0x179D JUMP JUMPDEST DUP3 DUP2 MSTORE PUSH1 0x40 PUSH1 0x20 DUP3 ADD MSTORE PUSH1 0x0 PUSH2 0x1661 PUSH1 0x40 DUP4 ADD DUP5 PUSH2 0x1600 JUMP INVALID LOG2 PUSH5 0x6970667358 0x22 SLT KECCAK256 NOT 0xB6 0xCB 0xE1 DUP4 0xF9 SWAP10 PUSH6 0x349A8C2FEC0 PUSH18 0x2DEBD8928627C492E775827E43AF0E0B1164 PUSH20 0x6F6C634300081400330000000000000000000000 "},"methodIdentifiers":{"MAX_LOCK_DURATION()":"4f1bfc9e","MAX_PRICE_CHANGE()":"2084bf9f","MAX_TARGET_AMOUNT()":"b7323881","MIN_LOCK_DURATION()":"78b4330f","PRICE_DECIMALS()":"f1a640f8","canAutoWithdraw()":"653b8e1e","canEmergencyWithdraw()":"cb9a8c7e","createdAt()":"cf09e0d0","creator()":"02d05d3f","deposit()":"d0e30db0","emergencyWithdraw()":"db2e21bc","getLatestPrice()":"8e15f473","getLockStatus()":"9ae8ad45","isGoalLock()":"6fd670b9","isPriceLock()":"ecd0b47d","priceFeed()":"741bef1a","targetAmount()":"953b8fb8","targetPrice()":"dc38679c","triggerAutoWithdraw()":"ea83ec1f","unlockTime()":"251c1aa3","withdraw()":"3ccfd60b"}}}}}