{"contracts/VaultAutomation.sol":{"VaultAutomation":{"abi":[{"inputs":[],"stateMutability":"nonpayable","type":"constructor"},{"anonymous":false,"inputs":[{"indexed":true,"internalType":"address","name":"vault","type":"address"},{"indexed":false,"internalType":"string","name":"reason","type":"string"}],"name":"AutoWithdrawTriggered","type":"event"},{"anonymous":false,"inputs":[{"indexed":true,"internalType":"address","name":"factoryContract","type":"address"}],"name":"FactoryContractSet","type":"event"},{"anonymous":false,"inputs":[{"indexed":true,"internalType":"address","name":"previousOwner","type":"address"},{"indexed":true,"internalType":"address","name":"newOwner","type":"address"}],"name":"OwnershipTransferred","type":"event"},{"anonymous":false,"inputs":[{"indexed":true,"internalType":"address","name":"vault","type":"address"}],"name":"VaultAdded","type":"event"},{"anonymous":false,"inputs":[{"indexed":true,"internalType":"address","name":"vault","type":"address"}],"name":"VaultRemoved","type":"event"},{"inputs":[],"name":"MAX_VAULTS_PER_UPKEEP","outputs":[{"internalType":"uint256","name":"","type":"uint256"}],"stateMutability":"view","type":"function"},{"inputs":[],"name":"WITHDRAWAL_GAS_LIMIT","outputs":[{"internalType":"uint256","name":"","type":"uint256"}],"stateMutability":"view","type":"function"},{"inputs":[{"internalType":"address","name":"vault","type":"address"}],"name":"addVault","outputs":[],"stateMutability":"nonpayable","type":"function"},{"inputs":[{"internalType":"bytes","name":"","type":"bytes"}],"name":"checkUpkeep","outputs":[{"internalType":"bool","name":"upkeepNeeded","type":"bool"},{"internalType":"bytes","name":"performData","type":"bytes"}],"stateMutability":"view","type":"function"},{"inputs":[],"name":"factoryContract","outputs":[{"internalType":"address","name":"","type":"address"}],"stateMutability":"view","type":"function"},{"inputs":[],"name":"getMonitoredVaultCount","outputs":[{"internalType":"uint256","name":"","type":"uint256"}],"stateMutability":"view","type":"function"},{"inputs":[],"name":"getMonitoredVaults","outputs":[{"internalType":"address[]","name":"","type":"address[]"}],"stateMutability":"view","type":"function"},{"inputs":[{"internalType":"address","name":"","type":"address"}],"name":"isMonitored","outputs":[{"internalType":"bool","name":"","type":"bool"}],"stateMutability":"view","type":"function"},{"inputs":[{"internalType":"uint256","name":"","type":"uint256"}],"name":"monitoredVaults","outputs":[{"internalType":"contract TimeCapsuleVault","name":"","type":"address"}],"stateMutability":"view","type":"function"},{"inputs":[],"name":"owner","outputs":[{"internalType":"address","name":"","type":"address"}],"stateMutability":"view","type":"function"},{"inputs":[{"internalType":"bytes","name":"performData","type":"bytes"}],"name":"performUpkeep","outputs":[],"stateMutability":"nonpayable","type":"function"},{"inputs":[{"internalType":"address","name":"vault","type":"address"}],"name":"removeVault","outputs":[],"stateMutability":"nonpayable","type":"function"},{"inputs":[{"internalType":"address","name":"_factoryContract","type":"address"}],"name":"setFactoryContract","outputs":[],"stateMutability":"nonpayable","type":"function"},{"inputs":[{"internalType":"address","name":"newOwner","type":"address"}],"name":"transferOwnership","outputs":[],"stateMutability":"nonpayable","type":"function"}],"evm":{"bytecode":{"linkReferences":{},"object":"608060405234801561001057600080fd5b50600080546001600160a01b0319163317905561123c806100326000396000f3fe608060405234801561001057600080fd5b50600436106100ea5760003560e01c8063aae782491161008c578063d0bd206711610066578063d0bd2067146101eb578063d4241341146101fe578063de11c94a14610211578063f2fde38b1461022457600080fd5b8063aae782491461019b578063c701f955146101ce578063ceb68c23146101d857600080fd5b8063572059e3116100c8578063572059e3146101355780636e04ff0d146101475780638da5cb5b146101685780639e9c188a1461019357600080fd5b8063256b5a02146100ef578063330436ef146101045780634585e33b14610122575b600080fd5b6101026100fd366004610e71565b610237565b005b61010c61045a565b6040516101199190610e95565b60405180910390f35b610102610130366004610ee2565b610527565b6002545b604051908152602001610119565b61015a610155366004610ee2565b6107e6565b604051610119929190610f78565b60005461017b906001600160a01b031681565b6040516001600160a01b039091168152602001610119565b610139601481565b6101be6101a9366004610e71565b60036020526000908152604090205460ff1681565b6040519015158152602001610119565b610139620186a081565b6101026101e6366004610e71565b610a25565b61017b6101f9366004610fb4565b610c35565b61010261020c366004610e71565b610c5f565b60015461017b906001600160a01b031681565b610102610232366004610e71565b610d59565b6000546001600160a01b031633148061025a57506001546001600160a01b031633145b61029c5760405162461bcd60e51b815260206004820152600e60248201526d139bdd08185d5d1a1bdc9a5e995960921b60448201526064015b60405180910390fd5b6001600160a01b03811660009081526003602052604090205460ff16156103055760405162461bcd60e51b815260206004820152601760248201527f5661756c7420616c7265616479206d6f6e69746f7265640000000000000000006044820152606401610293565b600081905060006001600160a01b0316816001600160a01b03166302d05d3f6040518163ffffffff1660e01b8152600401602060405180830381865afa158015610353573d6000803e3d6000fd5b505050506040513d601f19601f820116820180604052508101906103779190610fcd565b6001600160a01b0316036103c65760405162461bcd60e51b8152602060048201526016602482015275125b9d985b1a59081d985d5b1d0818dbdb9d1c9858dd60521b6044820152606401610293565b6002805460018082019092557f405787fa12a823e0f2b7631cc41b3ba8828b3321ca811111fa75cd3aa3bb5ace0180546001600160a01b0319166001600160a01b03848116919091179091558316600081815260036020526040808220805460ff1916909417909355915190917f7b7ef7a864d96a85497a1ed846adb39940dd6ccef678ff6ac8d55505e09b8cc491a25050565b60025460609060009067ffffffffffffffff81111561047b5761047b610fea565b6040519080825280602002602001820160405280156104a4578160200160208202803683370190505b50905060005b60025481101561052157600281815481106104c7576104c7611000565b9060005260206000200160009054906101000a90046001600160a01b03168282815181106104f7576104f7611000565b6001600160a01b0390921660209283029190910190910152806105198161102c565b9150506104aa565b50919050565b600061053582840184611076565b90506000601482511161054957815161054c565b60145b905060005b818110156107df57600083828151811061056d5761056d611000565b6020908102919091018101516001600160a01b0381166000908152600390925260409091205490915060ff16156107cb576000819050806001600160a01b031663ea83ec1f620186a06040518263ffffffff1660e01b8152600401600060405180830381600088803b1580156105e257600080fd5b5087f1935050505080156105f4575060015b6105ff5750506107cd565b816001600160a01b03167f2b5d2fa5bae905d63bea37bb5470317d4ea7353078d83c08cca05c9added074260405161065f9060208082526014908201527321b430b4b73634b7359020baba37b6b0ba34b7b760611b604082015260600190565b60405180910390a2806001600160a01b0316316000036107c95760005b60025481101561078157826001600160a01b0316600282815481106106a3576106a3611000565b6000918252602090912001546001600160a01b03160361076f57600280546106cd90600190611128565b815481106106dd576106dd611000565b600091825260209091200154600280546001600160a01b03909216918390811061070957610709611000565b9060005260206000200160006101000a8154816001600160a01b0302191690836001600160a01b03160217905550600280548061074857610748611141565b600082815260209020810160001990810180546001600160a01b0319169055019055610781565b806107798161102c565b91505061067c565b506001600160a01b038216600081815260036020526040808220805460ff19169055517fe71f3a50e5ad81964f352c411f1d45e35438ecd1acecef59ac81d9fbbf6cbc0a9190a25b505b505b806107d78161102c565b915050610551565b5050505050565b6040805160148082526102a08201909252600091606091839160208201610280803683370190505090506000806014600280549050116108285760025461082b565b60145b905060005b818110801561083f5750601483105b156109285760006002828154811061085957610859611000565b60009182526020822001546040805163329dc70f60e11b815290516001600160a01b039092169350839263653b8e1e926004808401938290030181865afa9250505080156108c957506040513d6000823e601f3d908101601f191682016040526108c69190810190611157565b60015b6108d35750610916565b811561091257828787815181106108ec576108ec611000565b6001600160a01b03909216602092830291909101909101528561090e8161102c565b9650505b5050505b806109208161102c565b915050610830565b508115610a045760008267ffffffffffffffff81111561094a5761094a610fea565b604051908082528060200260200182016040528015610973578160200160208202803683370190505b50905060005b838110156109d75784818151811061099357610993611000565b60200260200101518282815181106109ad576109ad611000565b6001600160a01b0390921660209283029190910190910152806109cf8161102c565b915050610979565b5060019550806040516020016109ed9190610e95565b604051602081830303815290604052945050610a1b565b600094506040518060200160405280600081525093505b5050509250929050565b6000546001600160a01b0316331480610a4857506001546001600160a01b031633145b610a855760405162461bcd60e51b815260206004820152600e60248201526d139bdd08185d5d1a1bdc9a5e995960921b6044820152606401610293565b6001600160a01b03811660009081526003602052604090205460ff16610ae35760405162461bcd60e51b815260206004820152601360248201527215985d5b1d081b9bdd081b5bdb9a5d1bdc9959606a1b6044820152606401610293565b60005b600254811015610beb57816001600160a01b031660028281548110610b0d57610b0d611000565b6000918252602090912001546001600160a01b031603610bd95760028054610b3790600190611128565b81548110610b4757610b47611000565b600091825260209091200154600280546001600160a01b039092169183908110610b7357610b73611000565b9060005260206000200160006101000a8154816001600160a01b0302191690836001600160a01b031602179055506002805480610bb257610bb2611141565b600082815260209020810160001990810180546001600160a01b0319169055019055610beb565b80610be38161102c565b915050610ae6565b506001600160a01b038116600081815260036020526040808220805460ff19169055517fe71f3a50e5ad81964f352c411f1d45e35438ecd1acecef59ac81d9fbbf6cbc0a9190a250565b60028181548110610c4557600080fd5b6000918252602090912001546001600160a01b0316905081565b6000546001600160a01b03163314610cb95760405162461bcd60e51b815260206004820152601a60248201527f4e6f7420617574686f72697a65643a206f6e6c79206f776e65720000000000006044820152606401610293565b6001600160a01b038116610d0f5760405162461bcd60e51b815260206004820152601860248201527f496e76616c696420666163746f727920636f6e747261637400000000000000006044820152606401610293565b600180546001600160a01b0319166001600160a01b0383169081179091556040517fcff5f8af1d0cb4fa17b8582ed4623698000a0be4982e8f08515eca9a1d9f347090600090a250565b6000546001600160a01b03163314610db35760405162461bcd60e51b815260206004820152601a60248201527f4e6f7420617574686f72697a65643a206f6e6c79206f776e65720000000000006044820152606401610293565b6001600160a01b038116610e095760405162461bcd60e51b815260206004820181905260248201527f4e6577206f776e65722063616e6e6f74206265207a65726f20616464726573736044820152606401610293565b600080546001600160a01b038381166001600160a01b0319831681178455604051919092169283917f8be0079c531659141344cd1fd0a4f28419497f9722a3daafe3b4186f6b6457e09190a35050565b6001600160a01b0381168114610e6e57600080fd5b50565b600060208284031215610e8357600080fd5b8135610e8e81610e59565b9392505050565b6020808252825182820181905260009190848201906040850190845b81811015610ed65783516001600160a01b031683529284019291840191600101610eb1565b50909695505050505050565b60008060208385031215610ef557600080fd5b823567ffffffffffffffff80821115610f0d57600080fd5b818501915085601f830112610f2157600080fd5b813581811115610f3057600080fd5b866020828501011115610f4257600080fd5b60209290920196919550909350505050565b60005b83811015610f6f578181015183820152602001610f57565b50506000910152565b82151581526040602082015260008251806040840152610f9f816060850160208701610f54565b601f01601f1916919091016060019392505050565b600060208284031215610fc657600080fd5b5035919050565b600060208284031215610fdf57600080fd5b8151610e8e81610e59565b634e487b7160e01b600052604160045260246000fd5b634e487b7160e01b600052603260045260246000fd5b634e487b7160e01b600052601160045260246000fd5b60006001820161103e5761103e611016565b5060010190565b604051601f8201601f1916810167ffffffffffffffff8111828210171561106e5761106e610fea565b604052919050565b6000602080838503121561108957600080fd5b823567ffffffffffffffff808211156110a157600080fd5b818501915085601f8301126110b557600080fd5b8135818111156110c7576110c7610fea565b8060051b91506110d8848301611045565b81815291830184019184810190888411156110f257600080fd5b938501935b8385101561111c578435925061110c83610e59565b82825293850193908501906110f7565b98975050505050505050565b8181038181111561113b5761113b611016565b92915050565b634e487b7160e01b600052603160045260246000fd5b6000806040838503121561116a57600080fd5b8251801515811461117a57600080fd5b602084015190925067ffffffffffffffff8082111561119857600080fd5b818501915085601f8301126111ac57600080fd5b8151818111156111be576111be610fea565b6111d1601f8201601f1916602001611045565b91508082528660208285010111156111e857600080fd5b6111f9816020840160208601610f54565b508092505050925092905056fea2646970667358221220ebe228559ef74ffd85998ab91a478c975bbc45db1640dd4d474dcd8c530bf78d64736f6c63430008140033","opcodes":"PUSH1 0x80 PUSH1 0x40 MSTORE CALLVALUE DUP1 ISZERO PUSH2 0x10 JUMPI PUSH1 0x0 DUP1 REVERT JUMPDEST POP PUSH1 0x0 DUP1 SLOAD PUSH1 0x1 PUSH1 0x1 PUSH1 0xA0 SHL SUB NOT AND CALLER OR SWAP1 SSTORE PUSH2 0x123C DUP1 PUSH2 0x32 PUSH1 0x0 CODECOPY PUSH1 0x0 RETURN INVALID PUSH1 0x80 PUSH1 0x40 MSTORE CALLVALUE DUP1 ISZERO PUSH2 0x10 JUMPI PUSH1 0x0 DUP1 REVERT JUMPDEST POP PUSH1 0x4 CALLDATASIZE LT PUSH2 0xEA JUMPI PUSH1 0x0 CALLDATALOAD PUSH1 0xE0 SHR DUP1 PUSH4 0xAAE78249 GT PUSH2 0x8C JUMPI DUP1 PUSH4 0xD0BD2067 GT PUSH2 0x66 JUMPI DUP1 PUSH4 0xD0BD2067 EQ PUSH2 0x1EB JUMPI DUP1 PUSH4 0xD4241341 EQ PUSH2 0x1FE JUMPI DUP1 PUSH4 0xDE11C94A EQ PUSH2 0x211 JUMPI DUP1 PUSH4 0xF2FDE38B EQ PUSH2 0x224 JUMPI PUSH1 0x0 DUP1 REVERT JUMPDEST DUP1 PUSH4 0xAAE78249 EQ PUSH2 0x19B JUMPI DUP1 PUSH4 0xC701F955 EQ PUSH2 0x1CE JUMPI DUP1 PUSH4 0xCEB68C23 EQ PUSH2 0x1D8 JUMPI PUSH1 0x0 DUP1 REVERT JUMPDEST DUP1 PUSH4 0x572059E3 GT PUSH2 0xC8 JUMPI DUP1 PUSH4 0x572059E3 EQ PUSH2 0x135 JUMPI DUP1 PUSH4 0x6E04FF0D EQ PUSH2 0x147 JUMPI DUP1 PUSH4 0x8DA5CB5B EQ PUSH2 0x168 JUMPI DUP1 PUSH4 0x9E9C188A EQ PUSH2 0x193 JUMPI PUSH1 0x0 DUP1 REVERT JUMPDEST DUP1 PUSH4 0x256B5A02 EQ PUSH2 0xEF JUMPI DUP1 PUSH4 0x330436EF EQ PUSH2 0x104 JUMPI DUP1 PUSH4 0x4585E33B EQ PUSH2 0x122 JUMPI JUMPDEST PUSH1 0x0 DUP1 REVERT JUMPDEST PUSH2 0x102 PUSH2 0xFD CALLDATASIZE PUSH1 0x4 PUSH2 0xE71 JUMP JUMPDEST PUSH2 0x237 JUMP JUMPDEST STOP JUMPDEST PUSH2 0x10C PUSH2 0x45A JUMP JUMPDEST PUSH1 0x40 MLOAD PUSH2 0x119 SWAP2 SWAP1 PUSH2 0xE95 JUMP JUMPDEST PUSH1 0x40 MLOAD DUP1 SWAP2 SUB SWAP1 RETURN JUMPDEST PUSH2 0x102 PUSH2 0x130 CALLDATASIZE PUSH1 0x4 PUSH2 0xEE2 JUMP JUMPDEST PUSH2 0x527 JUMP JUMPDEST PUSH1 0x2 SLOAD JUMPDEST PUSH1 0x40 MLOAD SWAP1 DUP2 MSTORE PUSH1 0x20 ADD PUSH2 0x119 JUMP JUMPDEST PUSH2 0x15A PUSH2 0x155 CALLDATASIZE PUSH1 0x4 PUSH2 0xEE2 JUMP JUMPDEST PUSH2 0x7E6 JUMP JUMPDEST PUSH1 0x40 MLOAD PUSH2 0x119 SWAP3 SWAP2 SWAP1 PUSH2 0xF78 JUMP JUMPDEST PUSH1 0x0 SLOAD PUSH2 0x17B SWAP1 PUSH1 0x1 PUSH1 0x1 PUSH1 0xA0 SHL SUB AND DUP2 JUMP JUMPDEST PUSH1 0x40 MLOAD PUSH1 0x1 PUSH1 0x1 PUSH1 0xA0 SHL SUB SWAP1 SWAP2 AND DUP2 MSTORE PUSH1 0x20 ADD PUSH2 0x119 JUMP JUMPDEST PUSH2 0x139 PUSH1 0x14 DUP2 JUMP JUMPDEST PUSH2 0x1BE PUSH2 0x1A9 CALLDATASIZE PUSH1 0x4 PUSH2 0xE71 JUMP JUMPDEST PUSH1 0x3 PUSH1 0x20 MSTORE PUSH1 0x0 SWAP1 DUP2 MSTORE PUSH1 0x40 SWAP1 KECCAK256 SLOAD PUSH1 0xFF AND DUP2 JUMP JUMPDEST PUSH1 0x40 MLOAD SWAP1 ISZERO ISZERO DUP2 MSTORE PUSH1 0x20 ADD PUSH2 0x119 JUMP JUMPDEST PUSH2 0x139 PUSH3 0x186A0 DUP2 JUMP JUMPDEST PUSH2 0x102 PUSH2 0x1E6 CALLDATASIZE PUSH1 0x4 PUSH2 0xE71 JUMP JUMPDEST PUSH2 0xA25 JUMP JUMPDEST PUSH2 0x17B PUSH2 0x1F9 CALLDATASIZE PUSH1 0x4 PUSH2 0xFB4 JUMP JUMPDEST PUSH2 0xC35 JUMP JUMPDEST PUSH2 0x102 PUSH2 0x20C CALLDATASIZE PUSH1 0x4 PUSH2 0xE71 JUMP JUMPDEST PUSH2 0xC5F JUMP JUMPDEST PUSH1 0x1 SLOAD PUSH2 0x17B SWAP1 PUSH1 0x1 PUSH1 0x1 PUSH1 0xA0 SHL SUB AND DUP2 JUMP JUMPDEST PUSH2 0x102 PUSH2 0x232 CALLDATASIZE PUSH1 0x4 PUSH2 0xE71 JUMP JUMPDEST PUSH2 0xD59 JUMP JUMPDEST PUSH1 0x0 SLOAD PUSH1 0x1 PUSH1 0x1 PUSH1 0xA0 SHL SUB AND CALLER EQ DUP1 PUSH2 0x25A JUMPI POP PUSH1 0x1 SLOAD PUSH1 0x1 PUSH1 0x1 PUSH1 0xA0 SHL SUB AND CALLER EQ JUMPDEST PUSH2 0x29C JUMPI PUSH1 0x40 MLOAD PUSH3 0x461BCD PUSH1 0xE5 SHL DUP2 MSTORE PUSH1 0x20 PUSH1 0x4 DUP3 ADD MSTORE PUSH1 0xE PUSH1 0x24 DUP3 ADD MSTORE PUSH14 0x139BDD08185D5D1A1BDC9A5E9959 PUSH1 0x92 SHL PUSH1 0x44 DUP3 ADD MSTORE PUSH1 0x64 ADD JUMPDEST PUSH1 0x40 MLOAD DUP1 SWAP2 SUB SWAP1 REVERT JUMPDEST PUSH1 0x1 PUSH1 0x1 PUSH1 0xA0 SHL SUB DUP2 AND PUSH1 0x0 SWAP1 DUP2 MSTORE PUSH1 0x3 PUSH1 0x20 MSTORE PUSH1 0x40 SWAP1 KECCAK256 SLOAD PUSH1 0xFF AND ISZERO PUSH2 0x305 JUMPI PUSH1 0x40 MLOAD PUSH3 0x461BCD PUSH1 0xE5 SHL DUP2 MSTORE PUSH1 0x20 PUSH1 0x4 DUP3 ADD MSTORE PUSH1 0x17 PUSH1 0x24 DUP3 ADD MSTORE PUSH32 0x5661756C7420616C7265616479206D6F6E69746F726564000000000000000000 PUSH1 0x44 DUP3 ADD MSTORE PUSH1 0x64 ADD PUSH2 0x293 JUMP JUMPDEST PUSH1 0x0 DUP2 SWAP1 POP PUSH1 0x0 PUSH1 0x1 PUSH1 0x1 PUSH1 0xA0 SHL SUB AND DUP2 PUSH1 0x1 PUSH1 0x1 PUSH1 0xA0 SHL SUB AND PUSH4 0x2D05D3F PUSH1 0x40 MLOAD DUP2 PUSH4 0xFFFFFFFF AND PUSH1 0xE0 SHL DUP2 MSTORE PUSH1 0x4 ADD PUSH1 0x20 PUSH1 0x40 MLOAD DUP1 DUP4 SUB DUP2 DUP7 GAS STATICCALL ISZERO DUP1 ISZERO PUSH2 0x353 JUMPI RETURNDATASIZE PUSH1 0x0 DUP1 RETURNDATACOPY RETURNDATASIZE PUSH1 0x0 REVERT JUMPDEST POP POP POP POP PUSH1 0x40 MLOAD RETURNDATASIZE PUSH1 0x1F NOT PUSH1 0x1F DUP3 ADD AND DUP3 ADD DUP1 PUSH1 0x40 MSTORE POP DUP2 ADD SWAP1 PUSH2 0x377 SWAP2 SWAP1 PUSH2 0xFCD JUMP JUMPDEST PUSH1 0x1 PUSH1 0x1 PUSH1 0xA0 SHL SUB AND SUB PUSH2 0x3C6 JUMPI PUSH1 0x40 MLOAD PUSH3 0x461BCD PUSH1 0xE5 SHL DUP2 MSTORE PUSH1 0x20 PUSH1 0x4 DUP3 ADD MSTORE PUSH1 0x16 PUSH1 0x24 DUP3 ADD MSTORE PUSH22 0x125B9D985B1A59081D985D5B1D0818DBDB9D1C9858DD PUSH1 0x52 SHL PUSH1 0x44 DUP3 ADD MSTORE PUSH1 0x64 ADD PUSH2 0x293 JUMP JUMPDEST PUSH1 0x2 DUP1 SLOAD PUSH1 0x1 DUP1 DUP3 ADD SWAP1 SWAP3 SSTORE PUSH32 0x405787FA12A823E0F2B7631CC41B3BA8828B3321CA811111FA75CD3AA3BB5ACE ADD DUP1 SLOAD PUSH1 0x1 PUSH1 0x1 PUSH1 0xA0 SHL SUB NOT AND PUSH1 0x1 PUSH1 0x1 PUSH1 0xA0 SHL SUB DUP5 DUP2 AND SWAP2 SWAP1 SWAP2 OR SWAP1 SWAP2 SSTORE DUP4 AND PUSH1 0x0 DUP2 DUP2 MSTORE PUSH1 0x3 PUSH1 0x20 MSTORE PUSH1 0x40 DUP1 DUP3 KECCAK256 DUP1 SLOAD PUSH1 0xFF NOT AND SWAP1 SWAP5 OR SWAP1 SWAP4 SSTORE SWAP2 MLOAD SWAP1 SWAP2 PUSH32 0x7B7EF7A864D96A85497A1ED846ADB39940DD6CCEF678FF6AC8D55505E09B8CC4 SWAP2 LOG2 POP POP JUMP JUMPDEST PUSH1 0x2 SLOAD PUSH1 0x60 SWAP1 PUSH1 0x0 SWAP1 PUSH8 0xFFFFFFFFFFFFFFFF DUP2 GT ISZERO PUSH2 0x47B JUMPI PUSH2 0x47B PUSH2 0xFEA JUMP JUMPDEST PUSH1 0x40 MLOAD SWAP1 DUP1 DUP3 MSTORE DUP1 PUSH1 0x20 MUL PUSH1 0x20 ADD DUP3 ADD PUSH1 0x40 MSTORE DUP1 ISZERO PUSH2 0x4A4 JUMPI DUP2 PUSH1 0x20 ADD PUSH1 0x20 DUP3 MUL DUP1 CALLDATASIZE DUP4 CALLDATACOPY ADD SWAP1 POP JUMPDEST POP SWAP1 POP PUSH1 0x0 JUMPDEST PUSH1 0x2 SLOAD DUP2 LT ISZERO PUSH2 0x521 JUMPI PUSH1 0x2 DUP2 DUP2 SLOAD DUP2 LT PUSH2 0x4C7 JUMPI PUSH2 0x4C7 PUSH2 0x1000 JUMP JUMPDEST SWAP1 PUSH1 0x0 MSTORE PUSH1 0x20 PUSH1 0x0 KECCAK256 ADD PUSH1 0x0 SWAP1 SLOAD SWAP1 PUSH2 0x100 EXP SWAP1 DIV PUSH1 0x1 PUSH1 0x1 PUSH1 0xA0 SHL SUB AND DUP3 DUP3 DUP2 MLOAD DUP2 LT PUSH2 0x4F7 JUMPI PUSH2 0x4F7 PUSH2 0x1000 JUMP JUMPDEST PUSH1 0x1 PUSH1 0x1 PUSH1 0xA0 SHL SUB SWAP1 SWAP3 AND PUSH1 0x20 SWAP3 DUP4 MUL SWAP2 SWAP1 SWAP2 ADD SWAP1 SWAP2 ADD MSTORE DUP1 PUSH2 0x519 DUP2 PUSH2 0x102C JUMP JUMPDEST SWAP2 POP POP PUSH2 0x4AA JUMP JUMPDEST POP SWAP2 SWAP1 POP JUMP JUMPDEST PUSH1 0x0 PUSH2 0x535 DUP3 DUP5 ADD DUP5 PUSH2 0x1076 JUMP JUMPDEST SWAP1 POP PUSH1 0x0 PUSH1 0x14 DUP3 MLOAD GT PUSH2 0x549 JUMPI DUP2 MLOAD PUSH2 0x54C JUMP JUMPDEST PUSH1 0x14 JUMPDEST SWAP1 POP PUSH1 0x0 JUMPDEST DUP2 DUP2 LT ISZERO PUSH2 0x7DF JUMPI PUSH1 0x0 DUP4 DUP3 DUP2 MLOAD DUP2 LT PUSH2 0x56D JUMPI PUSH2 0x56D PUSH2 0x1000 JUMP JUMPDEST PUSH1 0x20 SWAP1 DUP2 MUL SWAP2 SWAP1 SWAP2 ADD DUP2 ADD MLOAD PUSH1 0x1 PUSH1 0x1 PUSH1 0xA0 SHL SUB DUP2 AND PUSH1 0x0 SWAP1 DUP2 MSTORE PUSH1 0x3 SWAP1 SWAP3 MSTORE PUSH1 0x40 SWAP1 SWAP2 KECCAK256 SLOAD SWAP1 SWAP2 POP PUSH1 0xFF AND ISZERO PUSH2 0x7CB JUMPI PUSH1 0x0 DUP2 SWAP1 POP DUP1 PUSH1 0x1 PUSH1 0x1 PUSH1 0xA0 SHL SUB AND PUSH4 0xEA83EC1F PUSH3 0x186A0 PUSH1 0x40 MLOAD DUP3 PUSH4 0xFFFFFFFF AND PUSH1 0xE0 SHL DUP2 MSTORE PUSH1 0x4 ADD PUSH1 0x0 PUSH1 0x40 MLOAD DUP1 DUP4 SUB DUP2 PUSH1 0x0 DUP9 DUP1 EXTCODESIZE ISZERO DUP1 ISZERO PUSH2 0x5E2 JUMPI PUSH1 0x0 DUP1 REVERT JUMPDEST POP DUP8 CALL SWAP4 POP POP POP POP DUP1 ISZERO PUSH2 0x5F4 JUMPI POP PUSH1 0x1 JUMPDEST PUSH2 0x5FF JUMPI POP POP PUSH2 0x7CD JUMP JUMPDEST DUP2 PUSH1 0x1 PUSH1 0x1 PUSH1 0xA0 SHL SUB AND PUSH32 0x2B5D2FA5BAE905D63BEA37BB5470317D4EA7353078D83C08CCA05C9ADDED0742 PUSH1 0x40 MLOAD PUSH2 0x65F SWAP1 PUSH1 0x20 DUP1 DUP3 MSTORE PUSH1 0x14 SWAP1 DUP3 ADD MSTORE PUSH20 0x21B430B4B73634B7359020BABA37B6B0BA34B7B7 PUSH1 0x61 SHL PUSH1 0x40 DUP3 ADD MSTORE PUSH1 0x60 ADD SWAP1 JUMP JUMPDEST PUSH1 0x40 MLOAD DUP1 SWAP2 SUB SWAP1 LOG2 DUP1 PUSH1 0x1 PUSH1 0x1 PUSH1 0xA0 SHL SUB AND BALANCE PUSH1 0x0 SUB PUSH2 0x7C9 JUMPI PUSH1 0x0 JUMPDEST PUSH1 0x2 SLOAD DUP2 LT ISZERO PUSH2 0x781 JUMPI DUP3 PUSH1 0x1 PUSH1 0x1 PUSH1 0xA0 SHL SUB AND PUSH1 0x2 DUP3 DUP2 SLOAD DUP2 LT PUSH2 0x6A3 JUMPI PUSH2 0x6A3 PUSH2 0x1000 JUMP JUMPDEST PUSH1 0x0 SWAP2 DUP3 MSTORE PUSH1 0x20 SWAP1 SWAP2 KECCAK256 ADD SLOAD PUSH1 0x1 PUSH1 0x1 PUSH1 0xA0 SHL SUB AND SUB PUSH2 0x76F JUMPI PUSH1 0x2 DUP1 SLOAD PUSH2 0x6CD SWAP1 PUSH1 0x1 SWAP1 PUSH2 0x1128 JUMP JUMPDEST DUP2 SLOAD DUP2 LT PUSH2 0x6DD JUMPI PUSH2 0x6DD PUSH2 0x1000 JUMP JUMPDEST PUSH1 0x0 SWAP2 DUP3 MSTORE PUSH1 0x20 SWAP1 SWAP2 KECCAK256 ADD SLOAD PUSH1 0x2 DUP1 SLOAD PUSH1 0x1 PUSH1 0x1 PUSH1 0xA0 SHL SUB SWAP1 SWAP3 AND SWAP2 DUP4 SWAP1 DUP2 LT PUSH2 0x709 JUMPI PUSH2 0x709 PUSH2 0x1000 JUMP JUMPDEST SWAP1 PUSH1 0x0 MSTORE PUSH1 0x20 PUSH1 0x0 KECCAK256 ADD PUSH1 0x0 PUSH2 0x100 EXP DUP2 SLOAD DUP2 PUSH1 0x1 PUSH1 0x1 PUSH1 0xA0 SHL SUB MUL NOT AND SWAP1 DUP4 PUSH1 0x1 PUSH1 0x1 PUSH1 0xA0 SHL SUB AND MUL OR SWAP1 SSTORE POP PUSH1 0x2 DUP1 SLOAD DUP1 PUSH2 0x748 JUMPI PUSH2 0x748 PUSH2 0x1141 JUMP JUMPDEST PUSH1 0x0 DUP3 DUP2 MSTORE PUSH1 0x20 SWAP1 KECCAK256 DUP2 ADD PUSH1 0x0 NOT SWAP1 DUP2 ADD DUP1 SLOAD PUSH1 0x1 PUSH1 0x1 PUSH1 0xA0 SHL SUB NOT AND SWAP1 SSTORE ADD SWAP1 SSTORE PUSH2 0x781 JUMP JUMPDEST DUP1 PUSH2 0x779 DUP2 PUSH2 0x102C JUMP JUMPDEST SWAP2 POP POP PUSH2 0x67C JUMP JUMPDEST POP PUSH1 0x1 PUSH1 0x1 PUSH1 0xA0 SHL SUB DUP3 AND PUSH1 0x0 DUP2 DUP2 MSTORE PUSH1 0x3 PUSH1 0x20 MSTORE PUSH1 0x40 DUP1 DUP3 KECCAK256 DUP1 SLOAD PUSH1 0xFF NOT AND SWAP1 SSTORE MLOAD PUSH32 0xE71F3A50E5AD81964F352C411F1D45E35438ECD1ACECEF59AC81D9FBBF6CBC0A SWAP2 SWAP1 LOG2 JUMPDEST POP JUMPDEST POP JUMPDEST DUP1 PUSH2 0x7D7 DUP2 PUSH2 0x102C JUMP JUMPDEST SWAP2 POP POP PUSH2 0x551 JUMP JUMPDEST POP POP POP POP POP JUMP JUMPDEST PUSH1 0x40 DUP1 MLOAD PUSH1 0x14 DUP1 DUP3 MSTORE PUSH2 0x2A0 DUP3 ADD SWAP1 SWAP3 MSTORE PUSH1 0x0 SWAP2 PUSH1 0x60 SWAP2 DUP4 SWAP2 PUSH1 0x20 DUP3 ADD PUSH2 0x280 DUP1 CALLDATASIZE DUP4 CALLDATACOPY ADD SWAP1 POP POP SWAP1 POP PUSH1 0x0 DUP1 PUSH1 0x14 PUSH1 0x2 DUP1 SLOAD SWAP1 POP GT PUSH2 0x828 JUMPI PUSH1 0x2 SLOAD PUSH2 0x82B JUMP JUMPDEST PUSH1 0x14 JUMPDEST SWAP1 POP PUSH1 0x0 JUMPDEST DUP2 DUP2 LT DUP1 ISZERO PUSH2 0x83F JUMPI POP PUSH1 0x14 DUP4 LT JUMPDEST ISZERO PUSH2 0x928 JUMPI PUSH1 0x0 PUSH1 0x2 DUP3 DUP2 SLOAD DUP2 LT PUSH2 0x859 JUMPI PUSH2 0x859 PUSH2 0x1000 JUMP JUMPDEST PUSH1 0x0 SWAP2 DUP3 MSTORE PUSH1 0x20 DUP3 KECCAK256 ADD SLOAD PUSH1 0x40 DUP1 MLOAD PUSH4 0x329DC70F PUSH1 0xE1 SHL DUP2 MSTORE SWAP1 MLOAD PUSH1 0x1 PUSH1 0x1 PUSH1 0xA0 SHL SUB SWAP1 SWAP3 AND SWAP4 POP DUP4 SWAP3 PUSH4 0x653B8E1E SWAP3 PUSH1 0x4 DUP1 DUP5 ADD SWAP4 DUP3 SWAP1 SUB ADD DUP2 DUP7 GAS STATICCALL SWAP3 POP POP POP DUP1 ISZERO PUSH2 0x8C9 JUMPI POP PUSH1 0x40 MLOAD RETURNDATASIZE PUSH1 0x0 DUP3 RETURNDATACOPY PUSH1 0x1F RETURNDATASIZE SWAP1 DUP2 ADD PUSH1 0x1F NOT AND DUP3 ADD PUSH1 0x40 MSTORE PUSH2 0x8C6 SWAP2 SWAP1 DUP2 ADD SWAP1 PUSH2 0x1157 JUMP JUMPDEST PUSH1 0x1 JUMPDEST PUSH2 0x8D3 JUMPI POP PUSH2 0x916 JUMP JUMPDEST DUP2 ISZERO PUSH2 0x912 JUMPI DUP3 DUP8 DUP8 DUP2 MLOAD DUP2 LT PUSH2 0x8EC JUMPI PUSH2 0x8EC PUSH2 0x1000 JUMP JUMPDEST PUSH1 0x1 PUSH1 0x1 PUSH1 0xA0 SHL SUB SWAP1 SWAP3 AND PUSH1 0x20 SWAP3 DUP4 MUL SWAP2 SWAP1 SWAP2 ADD SWAP1 SWAP2 ADD MSTORE DUP6 PUSH2 0x90E DUP2 PUSH2 0x102C JUMP JUMPDEST SWAP7 POP POP JUMPDEST POP POP POP JUMPDEST DUP1 PUSH2 0x920 DUP2 PUSH2 0x102C JUMP JUMPDEST SWAP2 POP POP PUSH2 0x830 JUMP JUMPDEST POP DUP2 ISZERO PUSH2 0xA04 JUMPI PUSH1 0x0 DUP3 PUSH8 0xFFFFFFFFFFFFFFFF DUP2 GT ISZERO PUSH2 0x94A JUMPI PUSH2 0x94A PUSH2 0xFEA JUMP JUMPDEST PUSH1 0x40 MLOAD SWAP1 DUP1 DUP3 MSTORE DUP1 PUSH1 0x20 MUL PUSH1 0x20 ADD DUP3 ADD PUSH1 0x40 MSTORE DUP1 ISZERO PUSH2 0x973 JUMPI DUP2 PUSH1 0x20 ADD PUSH1 0x20 DUP3 MUL DUP1 CALLDATASIZE DUP4 CALLDATACOPY ADD SWAP1 POP JUMPDEST POP SWAP1 POP PUSH1 0x0 JUMPDEST DUP4 DUP2 LT ISZERO PUSH2 0x9D7 JUMPI DUP5 DUP2 DUP2 MLOAD DUP2 LT PUSH2 0x993 JUMPI PUSH2 0x993 PUSH2 0x1000 JUMP JUMPDEST PUSH1 0x20 MUL PUSH1 0x20 ADD ADD MLOAD DUP3 DUP3 DUP2 MLOAD DUP2 LT PUSH2 0x9AD JUMPI PUSH2 0x9AD PUSH2 0x1000 JUMP JUMPDEST PUSH1 0x1 PUSH1 0x1 PUSH1 0xA0 SHL SUB SWAP1 SWAP3 AND PUSH1 0x20 SWAP3 DUP4 MUL SWAP2 SWAP1 SWAP2 ADD SWAP1 SWAP2 ADD MSTORE DUP1 PUSH2 0x9CF DUP2 PUSH2 0x102C JUMP JUMPDEST SWAP2 POP POP PUSH2 0x979 JUMP JUMPDEST POP PUSH1 0x1 SWAP6 POP DUP1 PUSH1 0x40 MLOAD PUSH1 0x20 ADD PUSH2 0x9ED SWAP2 SWAP1 PUSH2 0xE95 JUMP JUMPDEST PUSH1 0x40 MLOAD PUSH1 0x20 DUP2 DUP4 SUB SUB DUP2 MSTORE SWAP1 PUSH1 0x40 MSTORE SWAP5 POP POP PUSH2 0xA1B JUMP JUMPDEST PUSH1 0x0 SWAP5 POP PUSH1 0x40 MLOAD DUP1 PUSH1 0x20 ADD PUSH1 0x40 MSTORE DUP1 PUSH1 0x0 DUP2 MSTORE POP SWAP4 POP JUMPDEST POP POP POP SWAP3 POP SWAP3 SWAP1 POP JUMP JUMPDEST PUSH1 0x0 SLOAD PUSH1 0x1 PUSH1 0x1 PUSH1 0xA0 SHL SUB AND CALLER EQ DUP1 PUSH2 0xA48 JUMPI POP PUSH1 0x1 SLOAD PUSH1 0x1 PUSH1 0x1 PUSH1 0xA0 SHL SUB AND CALLER EQ JUMPDEST PUSH2 0xA85 JUMPI PUSH1 0x40 MLOAD PUSH3 0x461BCD PUSH1 0xE5 SHL DUP2 MSTORE PUSH1 0x20 PUSH1 0x4 DUP3 ADD MSTORE PUSH1 0xE PUSH1 0x24 DUP3 ADD MSTORE PUSH14 0x139BDD08185D5D1A1BDC9A5E9959 PUSH1 0x92 SHL PUSH1 0x44 DUP3 ADD MSTORE PUSH1 0x64 ADD PUSH2 0x293 JUMP JUMPDEST PUSH1 0x1 PUSH1 0x1 PUSH1 0xA0 SHL SUB DUP2 AND PUSH1 0x0 SWAP1 DUP2 MSTORE PUSH1 0x3 PUSH1 0x20 MSTORE PUSH1 0x40 SWAP1 KECCAK256 SLOAD PUSH1 0xFF AND PUSH2 0xAE3 JUMPI PUSH1 0x40 MLOAD PUSH3 0x461BCD PUSH1 0xE5 SHL DUP2 MSTORE PUSH1 0x20 PUSH1 0x4 DUP3 ADD MSTORE PUSH1 0x13 PUSH1 0x24 DUP3 ADD MSTORE PUSH19 0x15985D5B1D081B9BDD081B5BDB9A5D1BDC9959 PUSH1 0x6A SHL PUSH1 0x44 DUP3 ADD MSTORE PUSH1 0x64 ADD PUSH2 0x293 JUMP JUMPDEST PUSH1 0x0 JUMPDEST PUSH1 0x2 SLOAD DUP2 LT ISZERO PUSH2 0xBEB JUMPI DUP2 PUSH1 0x1 PUSH1 0x1 PUSH1 0xA0 SHL SUB AND PUSH1 0x2 DUP3 DUP2 SLOAD DUP2 LT PUSH2 0xB0D JUMPI PUSH2 0xB0D PUSH2 0x1000 JUMP JUMPDEST PUSH1 0x0 SWAP2 DUP3 MSTORE PUSH1 0x20 SWAP1 SWAP2 KECCAK256 ADD SLOAD PUSH1 0x1 PUSH1 0x1 PUSH1 0xA0 SHL SUB AND SUB PUSH2 0xBD9 JUMPI PUSH1 0x2 DUP1 SLOAD PUSH2 0xB37 SWAP1 PUSH1 0x1 SWAP1 PUSH2 0x1128 JUMP JUMPDEST DUP2 SLOAD DUP2 LT PUSH2 0xB47 JUMPI PUSH2 0xB47 PUSH2 0x1000 JUMP JUMPDEST PUSH1 0x0 SWAP2 DUP3 MSTORE PUSH1 0x20 SWAP1 SWAP2 KECCAK256 ADD SLOAD PUSH1 0x2 DUP1 SLOAD PUSH1 0x1 PUSH1 0x1 PUSH1 0xA0 SHL SUB SWAP1 SWAP3 AND SWAP2 DUP4 SWAP1 DUP2 LT PUSH2 0xB73 JUMPI PUSH2 0xB73 PUSH2 0x1000 JUMP JUMPDEST SWAP1 PUSH1 0x0 MSTORE PUSH1 0x20 PUSH1 0x0 KECCAK256 ADD PUSH1 0x0 PUSH2 0x100 EXP DUP2 SLOAD DUP2 PUSH1 0x1 PUSH1 0x1 PUSH1 0xA0 SHL SUB MUL NOT AND SWAP1 DUP4 PUSH1 0x1 PUSH1 0x1 PUSH1 0xA0 SHL SUB AND MUL OR SWAP1 SSTORE POP PUSH1 0x2 DUP1 SLOAD DUP1 PUSH2 0xBB2 JUMPI PUSH2 0xBB2 PUSH2 0x1141 JUMP JUMPDEST PUSH1 0x0 DUP3 DUP2 MSTORE PUSH1 0x20 SWAP1 KECCAK256 DUP2 ADD PUSH1 0x0 NOT SWAP1 DUP2 ADD DUP1 SLOAD PUSH1 0x1 PUSH1 0x1 PUSH1 0xA0 SHL SUB NOT AND SWAP1 SSTORE ADD SWAP1 SSTORE PUSH2 0xBEB JUMP JUMPDEST DUP1 PUSH2 0xBE3 DUP2 PUSH2 0x102C JUMP JUMPDEST SWAP2 POP POP PUSH2 0xAE6 JUMP JUMPDEST POP PUSH1 0x1 PUSH1 0x1 PUSH1 0xA0 SHL SUB DUP2 AND PUSH1 0x0 DUP2 DUP2 MSTORE PUSH1 0x3 PUSH1 0x20 MSTORE PUSH1 0x40 DUP1 DUP3 KECCAK256 DUP1 SLOAD PUSH1 0xFF NOT AND SWAP1 SSTORE MLOAD PUSH32 0xE71F3A50E5AD81964F352C411F1D45E35438ECD1ACECEF59AC81D9FBBF6CBC0A SWAP2 SWAP1 LOG2 POP JUMP JUMPDEST PUSH1 0x2 DUP2 DUP2 SLOAD DUP2 LT PUSH2 0xC45 JUMPI PUSH1 0x0 DUP1 REVERT JUMPDEST PUSH1 0x0 SWAP2 DUP3 MSTORE PUSH1 0x20 SWAP1 SWAP2 KECCAK256 ADD SLOAD PUSH1 0x1 PUSH1 0x1 PUSH1 0xA0 SHL SUB AND SWAP1 POP DUP2 JUMP JUMPDEST PUSH1 0x0 SLOAD PUSH1 0x1 PUSH1 0x1 PUSH1 0xA0 SHL SUB AND CALLER EQ PUSH2 0xCB9 JUMPI PUSH1 0x40 MLOAD PUSH3 0x461BCD PUSH1 0xE5 SHL DUP2 MSTORE PUSH1 0x20 PUSH1 0x4 DUP3 ADD MSTORE PUSH1 0x1A PUSH1 0x24 DUP3 ADD MSTORE PUSH32 0x4E6F7420617574686F72697A65643A206F6E6C79206F776E6572000000000000 PUSH1 0x44 DUP3 ADD MSTORE PUSH1 0x64 ADD PUSH2 0x293 JUMP JUMPDEST PUSH1 0x1 PUSH1 0x1 PUSH1 0xA0 SHL SUB DUP2 AND PUSH2 0xD0F JUMPI PUSH1 0x40 MLOAD PUSH3 0x461BCD PUSH1 0xE5 SHL DUP2 MSTORE PUSH1 0x20 PUSH1 0x4 DUP3 ADD MSTORE PUSH1 0x18 PUSH1 0x24 DUP3 ADD MSTORE PUSH32 0x496E76616C696420666163746F727920636F6E74726163740000000000000000 PUSH1 0x44 DUP3 ADD MSTORE PUSH1 0x64 ADD PUSH2 0x293 JUMP JUMPDEST PUSH1 0x1 DUP1 SLOAD PUSH1 0x1 PUSH1 0x1 PUSH1 0xA0 SHL SUB NOT AND PUSH1 0x1 PUSH1 0x1 PUSH1 0xA0 SHL SUB DUP4 AND SWAP1 DUP2 OR SWAP1 SWAP2 SSTORE PUSH1 0x40 MLOAD PUSH32 0xCFF5F8AF1D0CB4FA17B8582ED4623698000A0BE4982E8F08515ECA9A1D9F3470 SWAP1 PUSH1 0x0 SWAP1 LOG2 POP JUMP JUMPDEST PUSH1 0x0 SLOAD PUSH1 0x1 PUSH1 0x1 PUSH1 0xA0 SHL SUB AND CALLER EQ PUSH2 0xDB3 JUMPI PUSH1 0x40 MLOAD PUSH3 0x461BCD PUSH1 0xE5 SHL DUP2 MSTORE PUSH1 0x20 PUSH1 0x4 DUP3 ADD MSTORE PUSH1 0x1A PUSH1 0x24 DUP3 ADD MSTORE PUSH32 0x4E6F7420617574686F72697A65643A206F6E6C79206F776E6572000000000000 PUSH1 0x44 DUP3 ADD MSTORE PUSH1 0x64 ADD PUSH2 0x293 JUMP JUMPDEST PUSH1 0x1 PUSH1 0x1 PUSH1 0xA0 SHL SUB DUP2 AND PUSH2 0xE09 JUMPI PUSH1 0x40 MLOAD PUSH3 0x461BCD PUSH1 0xE5 SHL DUP2 MSTORE PUSH1 0x20 PUSH1 0x4 DUP3 ADD DUP2 SWAP1 MSTORE PUSH1 0x24 DUP3 ADD MSTORE PUSH32 0x4E6577206F776E65722063616E6E6F74206265207A65726F2061646472657373 PUSH1 0x44 DUP3 ADD MSTORE PUSH1 0x64 ADD PUSH2 0x293 JUMP JUMPDEST PUSH1 0x0 DUP1 SLOAD PUSH1 0x1 PUSH1 0x1 PUSH1 0xA0 SHL SUB DUP4 DUP2 AND PUSH1 0x1 PUSH1 0x1 PUSH1 0xA0 SHL SUB NOT DUP4 AND DUP2 OR DUP5 SSTORE PUSH1 0x40 MLOAD SWAP2 SWAP1 SWAP3 AND SWAP3 DUP4 SWAP2 PUSH32 0x8BE0079C531659141344CD1FD0A4F28419497F9722A3DAAFE3B4186F6B6457E0 SWAP2 SWAP1 LOG3 POP POP JUMP JUMPDEST PUSH1 0x1 PUSH1 0x1 PUSH1 0xA0 SHL SUB DUP2 AND DUP2 EQ PUSH2 0xE6E JUMPI PUSH1 0x0 DUP1 REVERT JUMPDEST POP JUMP JUMPDEST PUSH1 0x0 PUSH1 0x20 DUP3 DUP5 SUB SLT ISZERO PUSH2 0xE83 JUMPI PUSH1 0x0 DUP1 REVERT JUMPDEST DUP2 CALLDATALOAD PUSH2 0xE8E DUP2 PUSH2 0xE59 JUMP JUMPDEST SWAP4 SWAP3 POP POP POP JUMP JUMPDEST PUSH1 0x20 DUP1 DUP3 MSTORE DUP3 MLOAD DUP3 DUP3 ADD DUP2 SWAP1 MSTORE PUSH1 0x0 SWAP2 SWAP1 DUP5 DUP3 ADD SWAP1 PUSH1 0x40 DUP6 ADD SWAP1 DUP5 JUMPDEST DUP2 DUP2 LT ISZERO PUSH2 0xED6 JUMPI DUP4 MLOAD PUSH1 0x1 PUSH1 0x1 PUSH1 0xA0 SHL SUB AND DUP4 MSTORE SWAP3 DUP5 ADD SWAP3 SWAP2 DUP5 ADD SWAP2 PUSH1 0x1 ADD PUSH2 0xEB1 JUMP JUMPDEST POP SWAP1 SWAP7 SWAP6 POP POP POP POP POP POP JUMP JUMPDEST PUSH1 0x0 DUP1 PUSH1 0x20 DUP4 DUP6 SUB SLT ISZERO PUSH2 0xEF5 JUMPI PUSH1 0x0 DUP1 REVERT JUMPDEST DUP3 CALLDATALOAD PUSH8 0xFFFFFFFFFFFFFFFF DUP1 DUP3 GT ISZERO PUSH2 0xF0D JUMPI PUSH1 0x0 DUP1 REVERT JUMPDEST DUP2 DUP6 ADD SWAP2 POP DUP6 PUSH1 0x1F DUP4 ADD SLT PUSH2 0xF21 JUMPI PUSH1 0x0 DUP1 REVERT JUMPDEST DUP2 CALLDATALOAD DUP2 DUP2 GT ISZERO PUSH2 0xF30 JUMPI PUSH1 0x0 DUP1 REVERT JUMPDEST DUP7 PUSH1 0x20 DUP3 DUP6 ADD ADD GT ISZERO PUSH2 0xF42 JUMPI PUSH1 0x0 DUP1 REVERT JUMPDEST PUSH1 0x20 SWAP3 SWAP1 SWAP3 ADD SWAP7 SWAP2 SWAP6 POP SWAP1 SWAP4 POP POP POP POP JUMP JUMPDEST PUSH1 0x0 JUMPDEST DUP4 DUP2 LT ISZERO PUSH2 0xF6F JUMPI DUP2 DUP2 ADD MLOAD DUP4 DUP3 ADD MSTORE PUSH1 0x20 ADD PUSH2 0xF57 JUMP JUMPDEST POP POP PUSH1 0x0 SWAP2 ADD MSTORE JUMP JUMPDEST DUP3 ISZERO ISZERO DUP2 MSTORE PUSH1 0x40 PUSH1 0x20 DUP3 ADD MSTORE PUSH1 0x0 DUP3 MLOAD DUP1 PUSH1 0x40 DUP5 ADD MSTORE PUSH2 0xF9F DUP2 PUSH1 0x60 DUP6 ADD PUSH1 0x20 DUP8 ADD PUSH2 0xF54 JUMP JUMPDEST PUSH1 0x1F ADD PUSH1 0x1F NOT AND SWAP2 SWAP1 SWAP2 ADD PUSH1 0x60 ADD SWAP4 SWAP3 POP POP POP JUMP JUMPDEST PUSH1 0x0 PUSH1 0x20 DUP3 DUP5 SUB SLT ISZERO PUSH2 0xFC6 JUMPI PUSH1 0x0 DUP1 REVERT JUMPDEST POP CALLDATALOAD SWAP2 SWAP1 POP JUMP JUMPDEST PUSH1 0x0 PUSH1 0x20 DUP3 DUP5 SUB SLT ISZERO PUSH2 0xFDF JUMPI PUSH1 0x0 DUP1 REVERT JUMPDEST DUP2 MLOAD PUSH2 0xE8E DUP2 PUSH2 0xE59 JUMP JUMPDEST PUSH4 0x4E487B71 PUSH1 0xE0 SHL PUSH1 0x0 MSTORE PUSH1 0x41 PUSH1 0x4 MSTORE PUSH1 0x24 PUSH1 0x0 REVERT JUMPDEST PUSH4 0x4E487B71 PUSH1 0xE0 SHL PUSH1 0x0 MSTORE PUSH1 0x32 PUSH1 0x4 MSTORE PUSH1 0x24 PUSH1 0x0 REVERT JUMPDEST PUSH4 0x4E487B71 PUSH1 0xE0 SHL PUSH1 0x0 MSTORE PUSH1 0x11 PUSH1 0x4 MSTORE PUSH1 0x24 PUSH1 0x0 REVERT JUMPDEST PUSH1 0x0 PUSH1 0x1 DUP3 ADD PUSH2 0x103E JUMPI PUSH2 0x103E PUSH2 0x1016 JUMP JUMPDEST POP PUSH1 0x1 ADD SWAP1 JUMP JUMPDEST PUSH1 0x40 MLOAD PUSH1 0x1F DUP3 ADD PUSH1 0x1F NOT AND DUP2 ADD PUSH8 0xFFFFFFFFFFFFFFFF DUP2 GT DUP3 DUP3 LT OR ISZERO PUSH2 0x106E JUMPI PUSH2 0x106E PUSH2 0xFEA JUMP JUMPDEST PUSH1 0x40 MSTORE SWAP2 SWAP1 POP JUMP JUMPDEST PUSH1 0x0 PUSH1 0x20 DUP1 DUP4 DUP6 SUB SLT ISZERO PUSH2 0x1089 JUMPI PUSH1 0x0 DUP1 REVERT JUMPDEST DUP3 CALLDATALOAD PUSH8 0xFFFFFFFFFFFFFFFF DUP1 DUP3 GT ISZERO PUSH2 0x10A1 JUMPI PUSH1 0x0 DUP1 REVERT JUMPDEST DUP2 DUP6 ADD SWAP2 POP DUP6 PUSH1 0x1F DUP4 ADD SLT PUSH2 0x10B5 JUMPI PUSH1 0x0 DUP1 REVERT JUMPDEST DUP2 CALLDATALOAD DUP2 DUP2 GT ISZERO PUSH2 0x10C7 JUMPI PUSH2 0x10C7 PUSH2 0xFEA JUMP JUMPDEST DUP1 PUSH1 0x5 SHL SWAP2 POP PUSH2 0x10D8 DUP5 DUP4 ADD PUSH2 0x1045 JUMP JUMPDEST DUP2 DUP2 MSTORE SWAP2 DUP4 ADD DUP5 ADD SWAP2 DUP5 DUP2 ADD SWAP1 DUP9 DUP5 GT ISZERO PUSH2 0x10F2 JUMPI PUSH1 0x0 DUP1 REVERT JUMPDEST SWAP4 DUP6 ADD SWAP4 JUMPDEST DUP4 DUP6 LT ISZERO PUSH2 0x111C JUMPI DUP5 CALLDATALOAD SWAP3 POP PUSH2 0x110C DUP4 PUSH2 0xE59 JUMP JUMPDEST DUP3 DUP3 MSTORE SWAP4 DUP6 ADD SWAP4 SWAP1 DUP6 ADD SWAP1 PUSH2 0x10F7 JUMP JUMPDEST SWAP9 SWAP8 POP POP POP POP POP POP POP POP JUMP JUMPDEST DUP2 DUP2 SUB DUP2 DUP2 GT ISZERO PUSH2 0x113B JUMPI PUSH2 0x113B PUSH2 0x1016 JUMP JUMPDEST SWAP3 SWAP2 POP POP JUMP JUMPDEST PUSH4 0x4E487B71 PUSH1 0xE0 SHL PUSH1 0x0 MSTORE PUSH1 0x31 PUSH1 0x4 MSTORE PUSH1 0x24 PUSH1 0x0 REVERT JUMPDEST PUSH1 0x0 DUP1 PUSH1 0x40 DUP4 DUP6 SUB SLT ISZERO PUSH2 0x116A JUMPI PUSH1 0x0 DUP1 REVERT JUMPDEST DUP3 MLOAD DUP1 ISZERO ISZERO DUP2 EQ PUSH2 0x117A JUMPI PUSH1 0x0 DUP1 REVERT JUMPDEST PUSH1 0x20 DUP5 ADD MLOAD SWAP1 SWAP3 POP PUSH8 0xFFFFFFFFFFFFFFFF DUP1 DUP3 GT ISZERO PUSH2 0x1198 JUMPI PUSH1 0x0 DUP1 REVERT JUMPDEST DUP2 DUP6 ADD SWAP2 POP DUP6 PUSH1 0x1F DUP4 ADD SLT PUSH2 0x11AC JUMPI PUSH1 0x0 DUP1 REVERT JUMPDEST DUP2 MLOAD DUP2 DUP2 GT ISZERO PUSH2 0x11BE JUMPI PUSH2 0x11BE PUSH2 0xFEA JUMP JUMPDEST PUSH2 0x11D1 PUSH1 0x1F DUP3 ADD PUSH1 0x1F NOT AND PUSH1 0x20 ADD PUSH2 0x1045 JUMP JUMPDEST SWAP2 POP DUP1 DUP3 MSTORE DUP7 PUSH1 0x20 DUP3 DUP6 ADD ADD GT ISZERO PUSH2 0x11E8 JUMPI PUSH1 0x0 DUP1 REVERT JUMPDEST PUSH2 0x11F9 DUP2 PUSH1 0x20 DUP5 ADD PUSH1 0x20 DUP7 ADD PUSH2 0xF54 JUMP JUMPDEST POP DUP1 SWAP3 POP POP POP SWAP3 POP SWAP3 SWAP1 POP JUMP INVALID LOG2 PUSH5 0x6970667358 0x22 SLT KECCAK256 0xEB 0xE2 0x28 SSTORE SWAP15 0xF7 0x4F REVERT DUP6 SWAP10 DUP11 0xB9 BYTE SELFBALANCE DUP13 SWAP8 JUMPDEST 0xBC GASLIMIT 0xDB AND BLOCKHASH 0xDD 0x4D SELFBALANCE 0x4D 0xCD DUP13 MSTORE8 SIGNEXTEND 0xF7 DUP14 PUSH5 0x736F6C6343 STOP ADDMOD EQ STOP CALLER "},"methodIdentifiers":{"MAX_VAULTS_PER_UPKEEP()":"9e9c188a","WITHDRAWAL_GAS_LIMIT()":"c701f955","addVault(address)":"256b5a02","checkUpkeep(bytes)":"6e04ff0d","factoryContract()":"de11c94a","getMonitoredVaultCount()":"572059e3","getMonitoredVaults()":"330436ef","isMonitored(address)":"aae78249","monitoredVaults(uint256)":"d0bd2067","owner()":"8da5cb5b","performUpkeep(bytes)":"4585e33b","removeVault(address)":"ceb68c23","setFactoryContract(address)":"d4241341","transferOwnership(address)":"f2fde38b"}}}}}