{
  "_format": "hh-sol-artifact-1",
  "contractName": "VaultAutomation",
  "sourceName": "contracts/VaultAutomation.sol",
  "abi": [
    {
      "inputs": [],
      "stateMutability": "nonpayable",
      "type": "constructor"
    },
    {
      "anonymous": false,
      "inputs": [
        {
          "indexed": true,
          "internalType": "address",
          "name": "vault",
          "type": "address"
        },
        {
          "indexed": false,
          "internalType": "string",
          "name": "reason",
          "type": "string"
        }
      ],
      "name": "AutoWithdrawTriggered",
      "type": "event"
    },
    {
      "anonymous": false,
      "inputs": [
        {
          "indexed": true,
          "internalType": "address",
          "name": "factoryContract",
          "type": "address"
        }
      ],
      "name": "FactoryContractSet",
      "type": "event"
    },
    {
      "anonymous": false,
      "inputs": [
        {
          "indexed": true,
          "internalType": "address",
          "name": "previousOwner",
          "type": "address"
        },
        {
          "indexed": true,
          "internalType": "address",
          "name": "newOwner",
          "type": "address"
        }
      ],
      "name": "OwnershipTransferred",
      "type": "event"
    },
    {
      "anonymous": false,
      "inputs": [
        {
          "indexed": true,
          "internalType": "address",
          "name": "vault",
          "type": "address"
        }
      ],
      "name": "VaultAdded",
      "type": "event"
    },
    {
      "anonymous": false,
      "inputs": [
        {
          "indexed": true,
          "internalType": "address",
          "name": "vault",
          "type": "address"
        }
      ],
      "name": "VaultRemoved",
      "type": "event"
    },
    {
      "inputs": [],
      "name": "MAX_VAULTS_PER_UPKEEP",
      "outputs": [
        {
          "internalType": "uint256",
          "name": "",
          "type": "uint256"
        }
      ],
      "stateMutability": "view",
      "type": "function"
    },
    {
      "inputs": [],
      "name": "WITHDRAWAL_GAS_LIMIT",
      "outputs": [
        {
          "internalType": "uint256",
          "name": "",
          "type": "uint256"
        }
      ],
      "stateMutability": "view",
      "type": "function"
    },
    {
      "inputs": [
        {
          "internalType": "address",
          "name": "vault",
          "type": "address"
        }
      ],
      "name": "addVault",
      "outputs": [],
      "stateMutability": "nonpayable",
      "type": "function"
    },
    {
      "inputs": [
        {
          "internalType": "bytes",
          "name": "",
          "type": "bytes"
        }
      ],
      "name": "checkUpkeep",
      "outputs": [
        {
          "internalType": "bool",
          "name": "upkeepNeeded",
          "type": "bool"
        },
        {
          "internalType": "bytes",
          "name": "performData",
          "type": "bytes"
        }
      ],
      "stateMutability": "view",
      "type": "function"
    },
    {
      "inputs": [],
      "name": "factoryContract",
      "outputs": [
        {
          "internalType": "address",
          "name": "",
          "type": "address"
        }
      ],
      "stateMutability": "view",
      "type": "function"
    },
    {
      "inputs": [],
      "name": "getMonitoredVaultCount",
      "outputs": [
        {
          "internalType": "uint256",
          "name": "",
          "type": "uint256"
        }
      ],
      "stateMutability": "view",
      "type": "function"
    },
    {
      "inputs": [],
      "name": "getMonitoredVaults",
      "outputs": [
        {
          "internalType": "address[]",
          "name": "",
          "type": "address[]"
        }
      ],
      "stateMutability": "view",
      "type": "function"
    },
    {
      "inputs": [
        {
          "internalType": "address",
          "name": "",
          "type": "address"
        }
      ],
      "name": "isMonitored",
      "outputs": [
        {
          "internalType": "bool",
          "name": "",
          "type": "bool"
        }
      ],
      "stateMutability": "view",
      "type": "function"
    },
    {
      "inputs": [
        {
          "internalType": "uint256",
          "name": "",
          "type": "uint256"
        }
      ],
      "name": "monitoredVaults",
      "outputs": [
        {
          "internalType": "contract TimeCapsuleVault",
          "name": "",
          "type": "address"
        }
      ],
      "stateMutability": "view",
      "type": "function"
    },
    {
      "inputs": [],
      "name": "owner",
      "outputs": [
        {
          "internalType": "address",
          "name": "",
          "type": "address"
        }
      ],
      "stateMutability": "view",
      "type": "function"
    },
    {
      "inputs": [
        {
          "internalType": "bytes",
          "name": "performData",
          "type": "bytes"
        }
      ],
      "name": "performUpkeep",
      "outputs": [],
      "stateMutability": "nonpayable",
      "type": "function"
    },
    {
      "inputs": [
        {
          "internalType": "address",
          "name": "vault",
          "type": "address"
        }
      ],
      "name": "removeVault",
      "outputs": [],
      "stateMutability": "nonpayable",
      "type": "function"
    },
    {
      "inputs": [
        {
          "internalType": "address",
          "name": "_factoryContract",
          "type": "address"
        }
      ],
      "name": "setFactoryContract",
      "outputs": [],
      "stateMutability": "nonpayable",
      "type": "function"
    },
    {
      "inputs": [
        {
          "internalType": "address",
          "name": "newOwner",
          "type": "address"
        }
      ],
      "name": "transferOwnership",
      "outputs": [],
      "stateMutability": "nonpayable",
      "type": "function"
    }
  ],
  "bytecode": "0x608060405234801561001057600080fd5b50600080546001600160a01b0319163317905561123c806100326000396000f3fe608060405234801561001057600080fd5b50600436106100ea5760003560e01c8063aae782491161008c578063d0bd206711610066578063d0bd2067146101eb578063d4241341146101fe578063de11c94a14610211578063f2fde38b1461022457600080fd5b8063aae782491461019b578063c701f955146101ce578063ceb68c23146101d857600080fd5b8063572059e3116100c8578063572059e3146101355780636e04ff0d146101475780638da5cb5b146101685780639e9c188a1461019357600080fd5b8063256b5a02146100ef578063330436ef146101045780634585e33b14610122575b600080fd5b6101026100fd366004610e71565b610237565b005b61010c61045a565b6040516101199190610e95565b60405180910390f35b610102610130366004610ee2565b610527565b6002545b604051908152602001610119565b61015a610155366004610ee2565b6107e6565b604051610119929190610f78565b60005461017b906001600160a01b031681565b6040516001600160a01b039091168152602001610119565b610139601481565b6101be6101a9366004610e71565b60036020526000908152604090205460ff1681565b6040519015158152602001610119565b610139620186a081565b6101026101e6366004610e71565b610a25565b61017b6101f9366004610fb4565b610c35565b61010261020c366004610e71565b610c5f565b60015461017b906001600160a01b031681565b610102610232366004610e71565b610d59565b6000546001600160a01b031633148061025a57506001546001600160a01b031633145b61029c5760405162461bcd60e51b815260206004820152600e60248201526d139bdd08185d5d1a1bdc9a5e995960921b60448201526064015b60405180910390fd5b6001600160a01b03811660009081526003602052604090205460ff16156103055760405162461bcd60e51b815260206004820152601760248201527f5661756c7420616c7265616479206d6f6e69746f7265640000000000000000006044820152606401610293565b600081905060006001600160a01b0316816001600160a01b03166302d05d3f6040518163ffffffff1660e01b8152600401602060405180830381865afa158015610353573d6000803e3d6000fd5b505050506040513d601f19601f820116820180604052508101906103779190610fcd565b6001600160a01b0316036103c65760405162461bcd60e51b8152602060048201526016602482015275125b9d985b1a59081d985d5b1d0818dbdb9d1c9858dd60521b6044820152606401610293565b6002805460018082019092557f405787fa12a823e0f2b7631cc41b3ba8828b3321ca811111fa75cd3aa3bb5ace0180546001600160a01b0319166001600160a01b03848116919091179091558316600081815260036020526040808220805460ff1916909417909355915190917f7b7ef7a864d96a85497a1ed846adb39940dd6ccef678ff6ac8d55505e09b8cc491a25050565b60025460609060009067ffffffffffffffff81111561047b5761047b610fea565b6040519080825280602002602001820160405280156104a4578160200160208202803683370190505b50905060005b60025481101561052157600281815481106104c7576104c7611000565b9060005260206000200160009054906101000a90046001600160a01b03168282815181106104f7576104f7611000565b6001600160a01b0390921660209283029190910190910152806105198161102c565b9150506104aa565b50919050565b600061053582840184611076565b90506000601482511161054957815161054c565b60145b905060005b818110156107df57600083828151811061056d5761056d611000565b6020908102919091018101516001600160a01b0381166000908152600390925260409091205490915060ff16156107cb576000819050806001600160a01b031663ea83ec1f620186a06040518263ffffffff1660e01b8152600401600060405180830381600088803b1580156105e257600080fd5b5087f1935050505080156105f4575060015b6105ff5750506107cd565b816001600160a01b03167f2b5d2fa5bae905d63bea37bb5470317d4ea7353078d83c08cca05c9added074260405161065f9060208082526014908201527321b430b4b73634b7359020baba37b6b0ba34b7b760611b604082015260600190565b60405180910390a2806001600160a01b0316316000036107c95760005b60025481101561078157826001600160a01b0316600282815481106106a3576106a3611000565b6000918252602090912001546001600160a01b03160361076f57600280546106cd90600190611128565b815481106106dd576106dd611000565b600091825260209091200154600280546001600160a01b03909216918390811061070957610709611000565b9060005260206000200160006101000a8154816001600160a01b0302191690836001600160a01b03160217905550600280548061074857610748611141565b600082815260209020810160001990810180546001600160a01b0319169055019055610781565b806107798161102c565b91505061067c565b506001600160a01b038216600081815260036020526040808220805460ff19169055517fe71f3a50e5ad81964f352c411f1d45e35438ecd1acecef59ac81d9fbbf6cbc0a9190a25b505b505b806107d78161102c565b915050610551565b5050505050565b6040805160148082526102a08201909252600091606091839160208201610280803683370190505090506000806014600280549050116108285760025461082b565b60145b905060005b818110801561083f5750601483105b156109285760006002828154811061085957610859611000565b60009182526020822001546040805163329dc70f60e11b815290516001600160a01b039092169350839263653b8e1e926004808401938290030181865afa9250505080156108c957506040513d6000823e601f3d908101601f191682016040526108c69190810190611157565b60015b6108d35750610916565b811561091257828787815181106108ec576108ec611000565b6001600160a01b03909216602092830291909101909101528561090e8161102c565b9650505b5050505b806109208161102c565b915050610830565b508115610a045760008267ffffffffffffffff81111561094a5761094a610fea565b604051908082528060200260200182016040528015610973578160200160208202803683370190505b50905060005b838110156109d75784818151811061099357610993611000565b60200260200101518282815181106109ad576109ad611000565b6001600160a01b0390921660209283029190910190910152806109cf8161102c565b915050610979565b5060019550806040516020016109ed9190610e95565b604051602081830303815290604052945050610a1b565b600094506040518060200160405280600081525093505b5050509250929050565b6000546001600160a01b0316331480610a4857506001546001600160a01b031633145b610a855760405162461bcd60e51b815260206004820152600e60248201526d139bdd08185d5d1a1bdc9a5e995960921b6044820152606401610293565b6001600160a01b03811660009081526003602052604090205460ff16610ae35760405162461bcd60e51b815260206004820152601360248201527215985d5b1d081b9bdd081b5bdb9a5d1bdc9959606a1b6044820152606401610293565b60005b600254811015610beb57816001600160a01b031660028281548110610b0d57610b0d611000565b6000918252602090912001546001600160a01b031603610bd95760028054610b3790600190611128565b81548110610b4757610b47611000565b600091825260209091200154600280546001600160a01b039092169183908110610b7357610b73611000565b9060005260206000200160006101000a8154816001600160a01b0302191690836001600160a01b031602179055506002805480610bb257610bb2611141565b600082815260209020810160001990810180546001600160a01b0319169055019055610beb565b80610be38161102c565b915050610ae6565b506001600160a01b038116600081815260036020526040808220805460ff19169055517fe71f3a50e5ad81964f352c411f1d45e35438ecd1acecef59ac81d9fbbf6cbc0a9190a250565b60028181548110610c4557600080fd5b6000918252602090912001546001600160a01b0316905081565b6000546001600160a01b03163314610cb95760405162461bcd60e51b815260206004820152601a60248201527f4e6f7420617574686f72697a65643a206f6e6c79206f776e65720000000000006044820152606401610293565b6001600160a01b038116610d0f5760405162461bcd60e51b815260206004820152601860248201527f496e76616c696420666163746f727920636f6e747261637400000000000000006044820152606401610293565b600180546001600160a01b0319166001600160a01b0383169081179091556040517fcff5f8af1d0cb4fa17b8582ed4623698000a0be4982e8f08515eca9a1d9f347090600090a250565b6000546001600160a01b03163314610db35760405162461bcd60e51b815260206004820152601a60248201527f4e6f7420617574686f72697a65643a206f6e6c79206f776e65720000000000006044820152606401610293565b6001600160a01b038116610e095760405162461bcd60e51b815260206004820181905260248201527f4e6577206f776e65722063616e6e6f74206265207a65726f20616464726573736044820152606401610293565b600080546001600160a01b038381166001600160a01b0319831681178455604051919092169283917f8be0079c531659141344cd1fd0a4f28419497f9722a3daafe3b4186f6b6457e09190a35050565b6001600160a01b0381168114610e6e57600080fd5b50565b600060208284031215610e8357600080fd5b8135610e8e81610e59565b9392505050565b6020808252825182820181905260009190848201906040850190845b81811015610ed65783516001600160a01b031683529284019291840191600101610eb1565b50909695505050505050565b60008060208385031215610ef557600080fd5b823567ffffffffffffffff80821115610f0d57600080fd5b818501915085601f830112610f2157600080fd5b813581811115610f3057600080fd5b866020828501011115610f4257600080fd5b60209290920196919550909350505050565b60005b83811015610f6f578181015183820152602001610f57565b50506000910152565b82151581526040602082015260008251806040840152610f9f816060850160208701610f54565b601f01601f1916919091016060019392505050565b600060208284031215610fc657600080fd5b5035919050565b600060208284031215610fdf57600080fd5b8151610e8e81610e59565b634e487b7160e01b600052604160045260246000fd5b634e487b7160e01b600052603260045260246000fd5b634e487b7160e01b600052601160045260246000fd5b60006001820161103e5761103e611016565b5060010190565b604051601f8201601f1916810167ffffffffffffffff8111828210171561106e5761106e610fea565b604052919050565b6000602080838503121561108957600080fd5b823567ffffffffffffffff808211156110a157600080fd5b818501915085601f8301126110b557600080fd5b8135818111156110c7576110c7610fea565b8060051b91506110d8848301611045565b81815291830184019184810190888411156110f257600080fd5b938501935b8385101561111c578435925061110c83610e59565b82825293850193908501906110f7565b98975050505050505050565b8181038181111561113b5761113b611016565b92915050565b634e487b7160e01b600052603160045260246000fd5b6000806040838503121561116a57600080fd5b8251801515811461117a57600080fd5b602084015190925067ffffffffffffffff8082111561119857600080fd5b818501915085601f8301126111ac57600080fd5b8151818111156111be576111be610fea565b6111d1601f8201601f1916602001611045565b91508082528660208285010111156111e857600080fd5b6111f9816020840160208601610f54565b508092505050925092905056fea2646970667358221220ebe228559ef74ffd85998ab91a478c975bbc45db1640dd4d474dcd8c530bf78d64736f6c63430008140033",
  "linkReferences": {},
  "deployedLinkReferences": {}
}