{
  "_format": "hh-sol-artifact-1",
  "contractName": "ERC20TimeCapsuleVault",
  "sourceName": "contracts/ERC20TimeCapsuleVault.sol",
  "abi": [
    {
      "inputs": [
        {
          "internalType": "uint256",
          "name": "_unlockTime",
          "type": "uint256"
        },
        {
          "internalType": "address",
          "name": "_owner",
          "type": "address"
        },
        {
          "internalType": "uint256",
          "name": "_targetPrice",
          "type": "uint256"
        },
        {
          "internalType": "uint256",
          "name": "_targetAmount",
          "type": "uint256"
        },
        {
          "internalType": "address",
          "name": "_priceFeedAddress",
          "type": "address"
        },
        {
          "internalType": "address",
          "name": "_tokenAddress",
          "type": "address"
        }
      ],
      "stateMutability": "nonpayable",
      "type": "constructor"
    },
    {
      "inputs": [
        {
          "internalType": "address",
          "name": "token",
          "type": "address"
        }
      ],
      "name": "SafeERC20FailedOperation",
      "type": "error"
    },
    {
      "anonymous": false,
      "inputs": [
        {
          "indexed": true,
          "internalType": "address",
          "name": "creator",
          "type": "address"
        },
        {
          "indexed": false,
          "internalType": "uint256",
          "name": "amount",
          "type": "uint256"
        },
        {
          "indexed": false,
          "internalType": "string",
          "name": "reason",
          "type": "string"
        }
      ],
      "name": "AutoWithdrawal",
      "type": "event"
    },
    {
      "anonymous": false,
      "inputs": [
        {
          "indexed": true,
          "internalType": "address",
          "name": "depositor",
          "type": "address"
        },
        {
          "indexed": false,
          "internalType": "uint256",
          "name": "amount",
          "type": "uint256"
        }
      ],
      "name": "Deposit",
      "type": "event"
    },
    {
      "anonymous": false,
      "inputs": [
        {
          "indexed": false,
          "internalType": "uint256",
          "name": "currentAmount",
          "type": "uint256"
        },
        {
          "indexed": false,
          "internalType": "uint256",
          "name": "targetAmount",
          "type": "uint256"
        },
        {
          "indexed": false,
          "internalType": "uint256",
          "name": "progressPercentage",
          "type": "uint256"
        }
      ],
      "name": "GoalProgress",
      "type": "event"
    },
    {
      "anonymous": false,
      "inputs": [
        {
          "indexed": false,
          "internalType": "int256",
          "name": "newPrice",
          "type": "int256"
        }
      ],
      "name": "PriceUpdated",
      "type": "event"
    },
    {
      "anonymous": false,
      "inputs": [
        {
          "indexed": false,
          "internalType": "string",
          "name": "reason",
          "type": "string"
        }
      ],
      "name": "VaultUnlocked",
      "type": "event"
    },
    {
      "anonymous": false,
      "inputs": [
        {
          "indexed": true,
          "internalType": "address",
          "name": "creator",
          "type": "address"
        },
        {
          "indexed": false,
          "internalType": "uint256",
          "name": "amount",
          "type": "uint256"
        }
      ],
      "name": "Withdrawal",
      "type": "event"
    },
    {
      "inputs": [],
      "name": "MAX_LOCK_DURATION",
      "outputs": [
        {
          "internalType": "uint256",
          "name": "",
          "type": "uint256"
        }
      ],
      "stateMutability": "view",
      "type": "function"
    },
    {
      "inputs": [],
      "name": "MAX_PRICE_CHANGE",
      "outputs": [
        {
          "internalType": "uint256",
          "name": "",
          "type": "uint256"
        }
      ],
      "stateMutability": "view",
      "type": "function"
    },
    {
      "inputs": [],
      "name": "MAX_TARGET_AMOUNT",
      "outputs": [
        {
          "internalType": "uint256",
          "name": "",
          "type": "uint256"
        }
      ],
      "stateMutability": "view",
      "type": "function"
    },
    {
      "inputs": [],
      "name": "MIN_LOCK_DURATION",
      "outputs": [
        {
          "internalType": "uint256",
          "name": "",
          "type": "uint256"
        }
      ],
      "stateMutability": "view",
      "type": "function"
    },
    {
      "inputs": [],
      "name": "PRICE_DECIMALS",
      "outputs": [
        {
          "internalType": "uint256",
          "name": "",
          "type": "uint256"
        }
      ],
      "stateMutability": "view",
      "type": "function"
    },
    {
      "inputs": [],
      "name": "createdAt",
      "outputs": [
        {
          "internalType": "uint256",
          "name": "",
          "type": "uint256"
        }
      ],
      "stateMutability": "view",
      "type": "function"
    },
    {
      "inputs": [],
      "name": "creator",
      "outputs": [
        {
          "internalType": "address",
          "name": "",
          "type": "address"
        }
      ],
      "stateMutability": "view",
      "type": "function"
    },
    {
      "inputs": [
        {
          "internalType": "uint256",
          "name": "amount",
          "type": "uint256"
        }
      ],
      "name": "deposit",
      "outputs": [],
      "stateMutability": "nonpayable",
      "type": "function"
    },
    {
      "inputs": [],
      "name": "emergencyWithdraw",
      "outputs": [],
      "stateMutability": "nonpayable",
      "type": "function"
    },
    {
      "inputs": [],
      "name": "getBalance",
      "outputs": [
        {
          "internalType": "uint256",
          "name": "",
          "type": "uint256"
        }
      ],
      "stateMutability": "view",
      "type": "function"
    },
    {
      "inputs": [],
      "name": "getCurrentPrice",
      "outputs": [
        {
          "internalType": "int256",
          "name": "",
          "type": "int256"
        }
      ],
      "stateMutability": "view",
      "type": "function"
    },
    {
      "inputs": [],
      "name": "getProgressPercentage",
      "outputs": [
        {
          "internalType": "uint256",
          "name": "",
          "type": "uint256"
        }
      ],
      "stateMutability": "view",
      "type": "function"
    },
    {
      "inputs": [],
      "name": "isGoalLock",
      "outputs": [
        {
          "internalType": "bool",
          "name": "",
          "type": "bool"
        }
      ],
      "stateMutability": "view",
      "type": "function"
    },
    {
      "inputs": [],
      "name": "isPriceLock",
      "outputs": [
        {
          "internalType": "bool",
          "name": "",
          "type": "bool"
        }
      ],
      "stateMutability": "view",
      "type": "function"
    },
    {
      "inputs": [],
      "name": "isUnlocked",
      "outputs": [
        {
          "internalType": "bool",
          "name": "",
          "type": "bool"
        }
      ],
      "stateMutability": "view",
      "type": "function"
    },
    {
      "inputs": [],
      "name": "priceFeed",
      "outputs": [
        {
          "internalType": "contract AggregatorV3Interface",
          "name": "",
          "type": "address"
        }
      ],
      "stateMutability": "view",
      "type": "function"
    },
    {
      "inputs": [
        {
          "internalType": "address",
          "name": "tokenAddress",
          "type": "address"
        },
        {
          "internalType": "uint256",
          "name": "amount",
          "type": "uint256"
        }
      ],
      "name": "recoverToken",
      "outputs": [],
      "stateMutability": "nonpayable",
      "type": "function"
    },
    {
      "inputs": [],
      "name": "targetAmount",
      "outputs": [
        {
          "internalType": "uint256",
          "name": "",
          "type": "uint256"
        }
      ],
      "stateMutability": "view",
      "type": "function"
    },
    {
      "inputs": [],
      "name": "targetPrice",
      "outputs": [
        {
          "internalType": "uint256",
          "name": "",
          "type": "uint256"
        }
      ],
      "stateMutability": "view",
      "type": "function"
    },
    {
      "inputs": [],
      "name": "token",
      "outputs": [
        {
          "internalType": "contract IERC20",
          "name": "",
          "type": "address"
        }
      ],
      "stateMutability": "view",
      "type": "function"
    },
    {
      "inputs": [],
      "name": "unlockTime",
      "outputs": [
        {
          "internalType": "uint256",
          "name": "",
          "type": "uint256"
        }
      ],
      "stateMutability": "view",
      "type": "function"
    },
    {
      "inputs": [],
      "name": "withdraw",
      "outputs": [],
      "stateMutability": "nonpayable",
      "type": "function"
    }
  ],
  "bytecode": "0x60a06040523480156200001157600080fd5b50604051620015f1380380620015f183398101604081905262000034916200047c565b6001600160a01b038516620000905760405162461bcd60e51b815260206004820152601560248201527f496e76616c6964206f776e65722061646472657373000000000000000000000060448201526064015b60405180910390fd5b6001600160a01b038216620000e85760405162461bcd60e51b815260206004820152601a60248201527f496e76616c696420707269636520666565642061646472657373000000000000604482015260640162000087565b6001600160a01b038116620001405760405162461bcd60e51b815260206004820152601560248201527f496e76616c696420746f6b656e20616464726573730000000000000000000000604482015260640162000087565b85156200025857428611620001985760405162461bcd60e51b815260206004820152601d60248201527f556e6c6f636b2074696d65206d75737420626520696e20667574757265000000604482015260640162000087565b620001a86312cc030042620004e2565b861115620001f95760405162461bcd60e51b815260206004820152601660248201527f4c6f636b206475726174696f6e20746f6f206c6f6e6700000000000000000000604482015260640162000087565b62000207610e1042620004e2565b861015620002585760405162461bcd60e51b815260206004820152601760248201527f4c6f636b206475726174696f6e20746f6f2073686f7274000000000000000000604482015260640162000087565b82156200030e5769021e19e0c9bab2400000831115620002bb5760405162461bcd60e51b815260206004820152601660248201527f54617267657420616d6f756e7420746f6f206869676800000000000000000000604482015260640162000087565b60018310156200030e5760405162461bcd60e51b815260206004820152601560248201527f54617267657420616d6f756e7420746f6f206c6f770000000000000000000000604482015260640162000087565b8315620003675760008411620003675760405162461bcd60e51b815260206004820152601d60248201527f546172676574207072696365206d75737420626520706f736974697665000000604482015260640162000087565b600080546001600160a01b03199081166001600160a01b038881169190911790925560018890556002869055600385905560048054909116848316179055600580549183166001600160a81b031990921691909117851515600160a01b021760ff60a81b1916841515600160a81b0217905585151580620003e85750600084115b80620003f45750600083115b6200044e5760405162461bcd60e51b8152602060048201526024808201527f4174206c65617374206f6e65206c6f636b20636f6e646974696f6e20726571756044820152631a5c995960e21b606482015260840162000087565b505042608052506200050a92505050565b80516001600160a01b03811681146200047757600080fd5b919050565b60008060008060008060c087890312156200049657600080fd5b86519550620004a8602088016200045f565b94506040870151935060608701519250620004c6608088016200045f565b9150620004d660a088016200045f565b90509295509295509295565b808201808211156200050457634e487b7160e01b600052601160045260246000fd5b92915050565b6080516110c46200052d6000396000818161024801526108fa01526110c46000f3fe608060405234801561001057600080fd5b50600436106101425760003560e01c8063953b8fb8116100b8578063db2e21bc1161007c578063db2e21bc1461026a578063dc38679c14610272578063eb91d37e1461027b578063ecd0b47d14610283578063f1a640f814610297578063fc0c546a1461029f57600080fd5b8063953b8fb814610203578063b29a81401461020c578063b6b55f251461021f578063b732388114610232578063cf09e0d01461024357600080fd5b80633ccfd60b1161010a5780633ccfd60b146101a65780634f1bfc9e146101b05780636fd670b9146101bb578063741bef1a146101df57806378b4330f146101f25780638380edb7146101fb57600080fd5b806302d05d3f1461014757806312065fe0146101775780631931136c1461018d5780632084bf9f14610195578063251c1aa31461019d575b600080fd5b60005461015a906001600160a01b031681565b6040516001600160a01b0390911681526020015b60405180910390f35b61017f6102b2565b60405190815260200161016e565b61017f610324565b61017f603281565b61017f60015481565b6101ae6103d9565b005b61017f6312cc030081565b6005546101cf90600160a81b900460ff1681565b604051901515815260200161016e565b60045461015a906001600160a01b031681565b61017f610e1081565b6101cf6105eb565b61017f60035481565b6101ae61021a366004610f25565b6105f5565b6101ae61022d366004610f5d565b61069b565b61017f69021e19e0c9bab240000081565b61017f7f000000000000000000000000000000000000000000000000000000000000000081565b6101ae6108cb565b61017f60025481565b61017f610a9a565b6005546101cf90600160a01b900460ff1681565b61017f600881565b60055461015a906001600160a01b031681565b6005546040516370a0823160e01b81523060048201526000916001600160a01b0316906370a0823190602401602060405180830381865afa1580156102fb573d6000803e3d6000fd5b505050506040513d601f19601f8201168201806040525081019061031f9190610f76565b905090565b600554600090600160a81b900460ff1615806103405750600354155b1561034b5750600090565b6005546040516370a0823160e01b81523060048201526000916001600160a01b0316906370a0823190602401602060405180830381865afa158015610394573d6000803e3d6000fd5b505050506040513d601f19601f820116820180604052508101906103b89190610f76565b6003549091506103c9826064610fa5565b6103d39190610fc2565b91505090565b6000546001600160a01b0316331461040c5760405162461bcd60e51b815260040161040390610fe4565b60405180910390fd5b600554600160b01b900460ff16156104665760405162461bcd60e51b815260206004820152601f60248201527f5265656e7472616e637947756172643a207265656e7472616e742063616c6c006044820152606401610403565b6005805460ff60b01b1916600160b01b179055610481610b1f565b6104c55760405162461bcd60e51b815260206004820152601560248201527415985d5b1d081a5cc81cdd1a5b1b081b1bd8dad959605a1b6044820152606401610403565b6005546040516370a0823160e01b81523060048201526000916001600160a01b0316906370a0823190602401602060405180830381865afa15801561050e573d6000803e3d6000fd5b505050506040513d601f19601f820116820180604052508101906105329190610f76565b90506000811161057c5760405162461bcd60e51b81526020600482015260156024820152744e6f20746f6b656e7320746f20776974686472617760581b6044820152606401610403565b600054600554610599916001600160a01b03918216911683610c98565b6000546040518281526001600160a01b03909116907f7fcf532c15f0a6db0bd6d0e038bea71d30d808c7d98cb3bf7268a95bf5081b659060200160405180910390a2506005805460ff60b01b19169055565b600061031f610b1f565b6000546001600160a01b0316331461061f5760405162461bcd60e51b815260040161040390610fe4565b6005546001600160a01b039081169083160361067d5760405162461bcd60e51b815260206004820152601a60248201527f43616e6e6f74207265636f766572207661756c7420746f6b656e0000000000006044820152606401610403565b600054610697906001600160a01b03848116911683610c98565b5050565b600081116106f95760405162461bcd60e51b815260206004820152602560248201527f4465706f73697420616d6f756e74206d75737420626520677265617465722074604482015264068616e20360dc1b6064820152608401610403565b6005546040516370a0823160e01b815233600482015282916001600160a01b0316906370a0823190602401602060405180830381865afa158015610741573d6000803e3d6000fd5b505050506040513d601f19601f820116820180604052508101906107659190610f76565b10156107b35760405162461bcd60e51b815260206004820152601a60248201527f496e73756666696369656e7420746f6b656e2062616c616e63650000000000006044820152606401610403565b600554604051636eb1769f60e11b815233600482015230602482015282916001600160a01b03169063dd62ed3e90604401602060405180830381865afa158015610801573d6000803e3d6000fd5b505050506040513d601f19601f820116820180604052508101906108259190610f76565b10156108735760405162461bcd60e51b815260206004820152601c60248201527f496e73756666696369656e7420746f6b656e20616c6c6f77616e6365000000006044820152606401610403565b60055461088b906001600160a01b0316333084610cfc565b60405181815233907fe1fffcc4923d04b559f4d29a8bfc6cda04eb5b0d3c460751c2402c5c5cc9109c9060200160405180910390a26108c8610d3b565b50565b6000546001600160a01b031633146108f55760405162461bcd60e51b815260040161040390610fe4565b6109227f000000000000000000000000000000000000000000000000000000000000000062278d0061100c565b4210156109805760405162461bcd60e51b815260206004820152602660248201527f456d657267656e6379207769746864726177616c206e6f7420617661696c61626044820152651b19481e595d60d21b6064820152608401610403565b6005546040516370a0823160e01b81523060048201526000916001600160a01b0316906370a0823190602401602060405180830381865afa1580156109c9573d6000803e3d6000fd5b505050506040513d601f19601f820116820180604052508101906109ed9190610f76565b905060008111610a375760405162461bcd60e51b81526020600482015260156024820152744e6f20746f6b656e7320746f20776974686472617760581b6044820152606401610403565b600054600554610a54916001600160a01b03918216911683610c98565b6000546040518281526001600160a01b03909116907f7fcf532c15f0a6db0bd6d0e038bea71d30d808c7d98cb3bf7268a95bf5081b65906020015b60405180910390a250565b6000600460009054906101000a90046001600160a01b03166001600160a01b031663feaf968c6040518163ffffffff1660e01b815260040160a060405180830381865afa925050508015610b0b575060408051601f3d908101601f19168201909252610b089181019061103e565b60015b610b155750600090565b5091949350505050565b600080600154118015610b3457506001544210155b15610b3f5750600190565b600554600160a01b900460ff168015610b5a57506000600254115b15610bf0576004805460408051633fabe5a360e21b815290516001600160a01b039092169263feaf968c928282019260a092908290030181865afa925050508015610bc2575060408051601f3d908101601f19168201909252610bbf9181019061103e565b60015b15610bf057600084138015610bd957506002548410155b15610bea5760019550505050505090565b50505050505b600554600160a81b900460ff168015610c0b57506000600354115b15610c92576005546040516370a0823160e01b81523060048201526000916001600160a01b0316906370a0823190602401602060405180830381865afa158015610c59573d6000803e3d6000fd5b505050506040513d601f19601f82011682018060405250810190610c7d9190610f76565b90506003548110610c9057600191505090565b505b50600090565b6040516001600160a01b03838116602483015260448201839052610cf791859182169063a9059cbb906064015b604051602081830303815290604052915060e01b6020820180516001600160e01b038381831617835250505050610eb4565b505050565b6040516001600160a01b038481166024830152838116604483015260648201839052610d359186918216906323b872dd90608401610cc5565b50505050565b610d43610b1f565b8015610db957506005546040516370a0823160e01b81523060048201526000916001600160a01b0316906370a0823190602401602060405180830381865afa158015610d93573d6000803e3d6000fd5b505050506040513d601f19601f82011682018060405250810190610db79190610f76565b115b15610eb2576005546040516370a0823160e01b81523060048201526000916001600160a01b0316906370a0823190602401602060405180830381865afa158015610e07573d6000803e3d6000fd5b505050506040513d601f19601f82011682018060405250810190610e2b9190610f76565b600054600554919250610e4b916001600160a01b03908116911683610c98565b6000546040516001600160a01b03909116907f4ad0472683bd43f275a5e9c98856d62b677f894e5b5bc4fa3aa491c93548e10090610a8f90848152604060208201819052600e908201526d15985d5b1d081d5b9b1bd8dad95960921b606082015260800190565b565b600080602060008451602086016000885af180610ed7576040513d6000823e3d81fd5b50506000513d91508115610eef578060011415610efc565b6001600160a01b0384163b155b15610d3557604051635274afe760e01b81526001600160a01b0385166004820152602401610403565b60008060408385031215610f3857600080fd5b82356001600160a01b0381168114610f4f57600080fd5b946020939093013593505050565b600060208284031215610f6f57600080fd5b5035919050565b600060208284031215610f8857600080fd5b5051919050565b634e487b7160e01b600052601160045260246000fd5b8082028115828204841417610fbc57610fbc610f8f565b92915050565b600082610fdf57634e487b7160e01b600052601260045260246000fd5b500490565b6020808252600e908201526d139bdd08185d5d1a1bdc9a5e995960921b604082015260600190565b80820180821115610fbc57610fbc610f8f565b805169ffffffffffffffffffff8116811461103957600080fd5b919050565b600080600080600060a0868803121561105657600080fd5b61105f8661101f565b94506020860151935060408601519250606086015191506110826080870161101f565b9050929550929590935056fea26469706673582212202f611e23da5c938f1f46038df830476629fdd07729e359aacf0c478ff4774fc964736f6c63430008140033",
  "linkReferences": {},
  "deployedLinkReferences": {}
}