{
  "_format": "hh-sol-artifact-1",
  "contractName": "VaultFactory",
  "sourceName": "contracts/VaultFactory.sol",
  "abi": [
    {
      "inputs": [
        {
          "internalType": "address",
          "name": "_automationContract",
          "type": "address"
        }
      ],
      "stateMutability": "nonpayable",
      "type": "constructor"
    },
    {
      "anonymous": false,
      "inputs": [
        {
          "indexed": true,
          "internalType": "address",
          "name": "automationContract",
          "type": "address"
        }
      ],
      "name": "AutomationContractSet",
      "type": "event"
    },
    {
      "anonymous": false,
      "inputs": [
        {
          "indexed": true,
          "internalType": "address",
          "name": "user",
          "type": "address"
        },
        {
          "indexed": true,
          "internalType": "address",
          "name": "vaultAddress",
          "type": "address"
        },
        {
          "indexed": true,
          "internalType": "address",
          "name": "tokenAddress",
          "type": "address"
        },
        {
          "indexed": false,
          "internalType": "uint256",
          "name": "vaultId",
          "type": "uint256"
        }
      ],
      "name": "ERC20VaultCreated",
      "type": "event"
    },
    {
      "anonymous": false,
      "inputs": [
        {
          "indexed": true,
          "internalType": "address",
          "name": "previousOwner",
          "type": "address"
        },
        {
          "indexed": true,
          "internalType": "address",
          "name": "newOwner",
          "type": "address"
        }
      ],
      "name": "OwnershipTransferred",
      "type": "event"
    },
    {
      "anonymous": false,
      "inputs": [
        {
          "indexed": true,
          "internalType": "address",
          "name": "user",
          "type": "address"
        },
        {
          "indexed": true,
          "internalType": "address",
          "name": "vaultAddress",
          "type": "address"
        },
        {
          "indexed": true,
          "internalType": "uint256",
          "name": "vaultId",
          "type": "uint256"
        },
        {
          "indexed": false,
          "internalType": "bool",
          "name": "isERC20",
          "type": "bool"
        }
      ],
      "name": "VaultCreated",
      "type": "event"
    },
    {
      "anonymous": false,
      "inputs": [
        {
          "indexed": true,
          "internalType": "address",
          "name": "user",
          "type": "address"
        },
        {
          "indexed": true,
          "internalType": "address",
          "name": "vaultAddress",
          "type": "address"
        }
      ],
      "name": "VaultRemoved",
      "type": "event"
    },
    {
      "inputs": [],
      "name": "MAX_VAULTS_PER_USER",
      "outputs": [
        {
          "internalType": "uint256",
          "name": "",
          "type": "uint256"
        }
      ],
      "stateMutability": "view",
      "type": "function"
    },
    {
      "inputs": [],
      "name": "automationContract",
      "outputs": [
        {
          "internalType": "contract VaultAutomation",
          "name": "",
          "type": "address"
        }
      ],
      "stateMutability": "view",
      "type": "function"
    },
    {
      "inputs": [
        {
          "internalType": "uint256",
          "name": "_unlockTime",
          "type": "uint256"
        },
        {
          "internalType": "uint256",
          "name": "_targetPrice",
          "type": "uint256"
        },
        {
          "internalType": "uint256",
          "name": "_targetAmount",
          "type": "uint256"
        },
        {
          "internalType": "address",
          "name": "_priceFeedAddress",
          "type": "address"
        },
        {
          "internalType": "address",
          "name": "_tokenAddress",
          "type": "address"
        }
      ],
      "name": "createERC20Vault",
      "outputs": [
        {
          "internalType": "address",
          "name": "",
          "type": "address"
        }
      ],
      "stateMutability": "nonpayable",
      "type": "function"
    },
    {
      "inputs": [
        {
          "internalType": "uint256",
          "name": "_unlockTime",
          "type": "uint256"
        },
        {
          "internalType": "uint256",
          "name": "_targetPrice",
          "type": "uint256"
        },
        {
          "internalType": "uint256",
          "name": "_targetAmount",
          "type": "uint256"
        },
        {
          "internalType": "address",
          "name": "_priceFeedAddress",
          "type": "address"
        }
      ],
      "name": "createVault",
      "outputs": [
        {
          "internalType": "address",
          "name": "",
          "type": "address"
        }
      ],
      "stateMutability": "nonpayable",
      "type": "function"
    },
    {
      "inputs": [],
      "name": "getTotalVaultsCreated",
      "outputs": [
        {
          "internalType": "uint256",
          "name": "",
          "type": "uint256"
        }
      ],
      "stateMutability": "view",
      "type": "function"
    },
    {
      "inputs": [
        {
          "internalType": "address",
          "name": "_user",
          "type": "address"
        }
      ],
      "name": "getUserVaultCount",
      "outputs": [
        {
          "internalType": "uint256",
          "name": "",
          "type": "uint256"
        }
      ],
      "stateMutability": "view",
      "type": "function"
    },
    {
      "inputs": [
        {
          "internalType": "address",
          "name": "_user",
          "type": "address"
        }
      ],
      "name": "getUserVaults",
      "outputs": [
        {
          "internalType": "address[]",
          "name": "",
          "type": "address[]"
        }
      ],
      "stateMutability": "view",
      "type": "function"
    },
    {
      "inputs": [
        {
          "internalType": "address",
          "name": "_user",
          "type": "address"
        },
        {
          "internalType": "uint256",
          "name": "_offset",
          "type": "uint256"
        },
        {
          "internalType": "uint256",
          "name": "_limit",
          "type": "uint256"
        }
      ],
      "name": "getUserVaultsPaginated",
      "outputs": [
        {
          "internalType": "address[]",
          "name": "",
          "type": "address[]"
        }
      ],
      "stateMutability": "view",
      "type": "function"
    },
    {
      "inputs": [
        {
          "internalType": "address",
          "name": "",
          "type": "address"
        }
      ],
      "name": "isERC20Vault",
      "outputs": [
        {
          "internalType": "bool",
          "name": "",
          "type": "bool"
        }
      ],
      "stateMutability": "view",
      "type": "function"
    },
    {
      "inputs": [
        {
          "internalType": "address",
          "name": "_vaultAddress",
          "type": "address"
        }
      ],
      "name": "isValidVault",
      "outputs": [
        {
          "internalType": "bool",
          "name": "",
          "type": "bool"
        }
      ],
      "stateMutability": "view",
      "type": "function"
    },
    {
      "inputs": [
        {
          "internalType": "address",
          "name": "_vaultAddress",
          "type": "address"
        }
      ],
      "name": "isVaultERC20",
      "outputs": [
        {
          "internalType": "bool",
          "name": "",
          "type": "bool"
        }
      ],
      "stateMutability": "view",
      "type": "function"
    },
    {
      "inputs": [],
      "name": "owner",
      "outputs": [
        {
          "internalType": "address",
          "name": "",
          "type": "address"
        }
      ],
      "stateMutability": "view",
      "type": "function"
    },
    {
      "inputs": [
        {
          "internalType": "address",
          "name": "_vaultAddress",
          "type": "address"
        }
      ],
      "name": "removeVault",
      "outputs": [],
      "stateMutability": "nonpayable",
      "type": "function"
    },
    {
      "inputs": [
        {
          "internalType": "address",
          "name": "_automationContract",
          "type": "address"
        }
      ],
      "name": "setAutomationContract",
      "outputs": [],
      "stateMutability": "nonpayable",
      "type": "function"
    },
    {
      "inputs": [],
      "name": "totalVaultsCreated",
      "outputs": [
        {
          "internalType": "uint256",
          "name": "",
          "type": "uint256"
        }
      ],
      "stateMutability": "view",
      "type": "function"
    },
    {
      "inputs": [
        {
          "internalType": "address",
          "name": "newOwner",
          "type": "address"
        }
      ],
      "name": "transferOwnership",
      "outputs": [],
      "stateMutability": "nonpayable",
      "type": "function"
    },
    {
      "inputs": [
        {
          "internalType": "address",
          "name": "",
          "type": "address"
        },
        {
          "internalType": "uint256",
          "name": "",
          "type": "uint256"
        }
      ],
      "name": "userVaults",
      "outputs": [
        {
          "internalType": "address",
          "name": "",
          "type": "address"
        }
      ],
      "stateMutability": "view",
      "type": "function"
    },
    {
      "inputs": [
        {
          "internalType": "address",
          "name": "",
          "type": "address"
        }
      ],
      "name": "validVaults",
      "outputs": [
        {
          "internalType": "bool",
          "name": "",
          "type": "bool"
        }
      ],
      "stateMutability": "view",
      "type": "function"
    }
  ],
  "bytecode": "0x608060405234801561001057600080fd5b506040516200513d3803806200513d833981016040819052610031916100a0565b600080546001600160a01b031916331790556001600160a01b0381161561009a57600580546001600160a01b0319166001600160a01b0383169081179091556040517f76545612bb0e1af54ab4727d697f5cce4ad94fb1d870bb3c82ecd1cd82434c0090600090a25b506100d0565b6000602082840312156100b257600080fd5b81516001600160a01b03811681146100c957600080fd5b9392505050565b61505d80620000e06000396000f3fe60806040523480156200001157600080fd5b50600436106200012d5760003560e01c80637012803611620000af5780639c841fef116200007a5780639c841fef14620002bb578063ceb68c2314620002d2578063dec4848314620002e9578063e7f3c69c146200030f578063f2fde38b146200032657600080fd5b80637012803614620002705780637da740231462000279578063828edbe814620002905780638da5cb5b14620002a757600080fd5b8063303baa9c11620000fc578063303baa9c14620001e057806362909f0a14620001f85780636421945014620002115780636657fc6714620002405780636b112afa146200026657600080fd5b80630689d5ed14620001325780631927b48c146200016357806325e39197146200017a5780632971251914620001a0575b600080fd5b60055462000146906001600160a01b031681565b6040516001600160a01b0390911681526020015b60405180910390f35b620001466200017436600462001844565b6200033d565b620001916200018b3660046200189f565b6200083f565b6040516200015a9190620018d7565b620001cf620001b136600462001926565b6001600160a01b031660009081526003602052604090205460ff1690565b60405190151581526020016200015a565b620001e9606481565b6040519081526020016200015a565b6200020f6200020936600462001926565b62000a07565b005b620001cf6200022236600462001926565b6001600160a01b031660009081526002602052604090205460ff1690565b620001cf6200025136600462001926565b60026020526000908152604090205460ff1681565b620001e960045481565b600454620001e9565b620001466200028a36600462001946565b62000b05565b620001e9620002a136600462001926565b62000f4b565b60005462000146906001600160a01b031681565b62000146620002cc3660046200198a565b62000f92565b6200020f620002e336600462001926565b62000fcb565b620001cf620002fa36600462001926565b60036020526000908152604090205460ff1681565b620001916200032036600462001926565b6200166a565b6200020f6200033736600462001926565b6200170b565b60008585856000831180620003525750600082115b806200035e5750600081115b620003865760405162461bcd60e51b81526004016200037d90620019b9565b60405180910390fd5b82156200043857428311620003de5760405162461bcd60e51b815260206004820152601d60248201527f556e6c6f636b2074696d65206d75737420626520696e2066757475726500000060448201526064016200037d565b620003ee426312cc030062001a13565b831115620004385760405162461bcd60e51b81526020600482015260166024820152754c6f636b206475726174696f6e20746f6f206c6f6e6760501b60448201526064016200037d565b8015620004df5760018110156200048a5760405162461bcd60e51b815260206004820152601560248201527454617267657420616d6f756e7420746f6f206c6f7760581b60448201526064016200037d565b69021e19e0c9bab2400000811115620004df5760405162461bcd60e51b81526020600482015260166024820152750a8c2e4cecae840c2dadeeadce840e8dede40d0d2ced60531b60448201526064016200037d565b8115620005385760008211620005385760405162461bcd60e51b815260206004820152601d60248201527f546172676574207072696365206d75737420626520706f73697469766500000060448201526064016200037d565b6001600160a01b038616620005905760405162461bcd60e51b815260206004820152601a60248201527f496e76616c69642070726963652066656564206164647265737300000000000060448201526064016200037d565b6001600160a01b038516620005e05760405162461bcd60e51b8152602060048201526015602482015274496e76616c696420746f6b656e206164647265737360581b60448201526064016200037d565b33600090815260016020526040902054606411620006415760405162461bcd60e51b815260206004820152601d60248201527f546f6f206d616e79207661756c747320666f722074686973207573657200000060448201526064016200037d565b600089338a8a8a8a60405162000657906200180f565b9586526001600160a01b03948516602087015260408601939093526060850191909152821660808401521660a082015260c001604051809103906000f080158015620006a7573d6000803e3d6000fd5b50336000908152600160208181526040808420805480850182559085528285200180546001600160a01b0319166001600160a01b038716908117909155845260028252808420805460ff199081168517909155600390925283208054909116909117905560048054929350839291620007208362001a2f565b90915550506005546001600160a01b03161562000793576005546040516312b5ad0160e11b81526001600160a01b0383811660048301529091169063256b5a0290602401600060405180830381600087803b1580156200077f57600080fd5b505af192505050801562000791575060015b505b600454604051600181526001600160a01b0383169033907fe8b80fcad15c881ebe8a57bf7807e089701f28542513db71116ba260557e07d49060200160405180910390a4866001600160a01b0316816001600160a01b0316336001600160a01b03167ff499f8be644244e4644ed89024833c827e778f159ec3dcf2df63350c99b11c926004546040516200082991815260200190565b60405180910390a49a9950505050505050505050565b60606001600160a01b0384166200086a5760405162461bcd60e51b81526004016200037d9062001a4b565b6000821180156200087c575060328211155b620008ba5760405162461bcd60e51b815260206004820152600d60248201526c125b9d985b1a59081b1a5b5a5d609a1b60448201526064016200037d565b6001600160a01b03841660009081526001602052604090208054808510620008f5575050604080516000815260208101909152905062000a00565b600062000903858762001a13565b905081811115620009115750805b60006200091f878362001a8f565b905060008167ffffffffffffffff8111156200093f576200093f62001a79565b60405190808252806020026020018201604052801562000969578160200160208202803683370190505b50905060005b82811015620009f8578562000985828b62001a13565b8154811062000998576200099862001aa5565b9060005260206000200160009054906101000a90046001600160a01b0316828281518110620009cb57620009cb62001aa5565b6001600160a01b039092166020928302919091019091015280620009ef8162001a2f565b9150506200096f565b509450505050505b9392505050565b6000546001600160a01b0316331462000a635760405162461bcd60e51b815260206004820152601a60248201527f4e6f7420617574686f72697a65643a206f6e6c79206f776e657200000000000060448201526064016200037d565b6001600160a01b03811662000abb5760405162461bcd60e51b815260206004820152601b60248201527f496e76616c6964206175746f6d6174696f6e20636f6e7472616374000000000060448201526064016200037d565b600580546001600160a01b0319166001600160a01b0383169081179091556040517f76545612bb0e1af54ab4727d697f5cce4ad94fb1d870bb3c82ecd1cd82434c0090600090a250565b6000848484600083118062000b1a5750600082115b8062000b265750600081115b62000b455760405162461bcd60e51b81526004016200037d90620019b9565b821562000bf75742831162000b9d5760405162461bcd60e51b815260206004820152601d60248201527f556e6c6f636b2074696d65206d75737420626520696e2066757475726500000060448201526064016200037d565b62000bad426312cc030062001a13565b83111562000bf75760405162461bcd60e51b81526020600482015260166024820152754c6f636b206475726174696f6e20746f6f206c6f6e6760501b60448201526064016200037d565b801562000ca45766038d7ea4c6800081101562000c4f5760405162461bcd60e51b815260206004820152601560248201527454617267657420616d6f756e7420746f6f206c6f7760581b60448201526064016200037d565b69021e19e0c9bab240000081111562000ca45760405162461bcd60e51b81526020600482015260166024820152750a8c2e4cecae840c2dadeeadce840e8dede40d0d2ced60531b60448201526064016200037d565b811562000cfd576000821162000cfd5760405162461bcd60e51b815260206004820152601d60248201527f546172676574207072696365206d75737420626520706f73697469766500000060448201526064016200037d565b6001600160a01b03851662000d555760405162461bcd60e51b815260206004820152601a60248201527f496e76616c69642070726963652066656564206164647265737300000000000060448201526064016200037d565b3360009081526001602052604090205460641162000db65760405162461bcd60e51b815260206004820152601d60248201527f546f6f206d616e79207661756c747320666f722074686973207573657200000060448201526064016200037d565b6000883389898960405162000dcb906200181d565b9485526001600160a01b0393841660208601526040850192909252606084015216608082015260a001604051809103906000f08015801562000e11573d6000803e3d6000fd5b50336000908152600160208181526040808420805480850182559085528285200180546001600160a01b0319166001600160a01b038716908117909155845260028252808420805460ff19908116909417905560039091528220805490911690556004805492935083929162000e878362001a2f565b90915550506005546001600160a01b03161562000efa576005546040516312b5ad0160e11b81526001600160a01b0383811660048301529091169063256b5a0290602401600060405180830381600087803b15801562000ee657600080fd5b505af192505050801562000ef8575060015b505b600454604051600081526001600160a01b0383169033907fe8b80fcad15c881ebe8a57bf7807e089701f28542513db71116ba260557e07d49060200160405180910390a49998505050505050505050565b60006001600160a01b03821662000f765760405162461bcd60e51b81526004016200037d9062001a4b565b506001600160a01b031660009081526001602052604090205490565b6001602052816000526040600020818154811062000faf57600080fd5b6000918252602090912001546001600160a01b03169150829050565b6001600160a01b0381166200101b5760405162461bcd60e51b8152602060048201526015602482015274496e76616c6964207661756c74206164647265737360581b60448201526064016200037d565b6001600160a01b03811660009081526002602052604090205460ff166200108f5760405162461bcd60e51b815260206004820152602160248201527f5661756c74206e6f742063726561746564206279207468697320666163746f726044820152607960f81b60648201526084016200037d565b6001600160a01b03811660009081526003602052604090205460ff168015620012ce576000829050336001600160a01b0316816001600160a01b03166302d05d3f6040518163ffffffff1660e01b8152600401602060405180830381865afa15801562001100573d6000803e3d6000fd5b505050506040513d601f19601f8201168201806040525081019062001126919062001abb565b6001600160a01b031614620011725760405162461bcd60e51b81526020600482015260116024820152702737ba103b30bab63a1031b932b0ba37b960791b60448201526064016200037d565b806001600160a01b0316638380edb76040518163ffffffff1660e01b8152600401602060405180830381865afa158015620011b1573d6000803e3d6000fd5b505050506040513d601f19601f82011682018060405250810190620011d7919062001af1565b156200121e5760405162461bcd60e51b815260206004820152601560248201527415985d5b1d081a5cc81cdd1a5b1b081b1bd8dad959605a1b60448201526064016200037d565b806001600160a01b03166312065fe06040518163ffffffff1660e01b8152600401602060405180830381865afa1580156200125d573d6000803e3d6000fd5b505050506040513d601f19601f8201168201806040525081019062001283919062001b0f565b15620012c75760405162461bcd60e51b81526020600482015260126024820152715661756c74206973206e6f7420656d70747960701b60448201526064016200037d565b506200149d565b6000829050336001600160a01b0316816001600160a01b03166302d05d3f6040518163ffffffff1660e01b8152600401602060405180830381865afa1580156200131c573d6000803e3d6000fd5b505050506040513d601f19601f8201168201806040525081019062001342919062001abb565b6001600160a01b0316146200138e5760405162461bcd60e51b81526020600482015260116024820152702737ba103b30bab63a1031b932b0ba37b960791b60448201526064016200037d565b6000816001600160a01b0316639ae8ad456040518163ffffffff1660e01b8152600401600060405180830381865afa158015620013cf573d6000803e3d6000fd5b505050506040513d6000823e601f3d908101601f19168201604052620013f9919081019062001b29565b5050505050505050905080156200144b5760405162461bcd60e51b815260206004820152601560248201527415985d5b1d081a5cc81cdd1a5b1b081b1bd8dad959605a1b60448201526064016200037d565b6001600160a01b03821631156200149a5760405162461bcd60e51b81526020600482015260126024820152715661756c74206973206e6f7420656d70747960701b60448201526064016200037d565b50505b33600090815260016020526040812090805b8254811015620015cd57846001600160a01b0316838281548110620014d857620014d862001aa5565b6000918252602090912001546001600160a01b031603620015b85782548390620015059060019062001a8f565b8154811062001518576200151862001aa5565b9060005260206000200160009054906101000a90046001600160a01b03168382815481106200154b576200154b62001aa5565b9060005260206000200160006101000a8154816001600160a01b0302191690836001600160a01b03160217905550828054806200158c576200158c62001c6b565b600082815260209020810160001990810180546001600160a01b031916905501905560019150620015cd565b80620015c48162001a2f565b915050620014af565b50806200161d5760405162461bcd60e51b815260206004820152601e60248201527f5661756c74206e6f7420666f756e6420696e20757365722773206c697374000060448201526064016200037d565b6001600160a01b038416600081815260026020526040808220805460ff191690555133917f395da61c7f5ffbcabe770aa45c9f22dd3a6ee925f912cce668d7058ea472bc2c91a350505050565b60606001600160a01b038216620016955760405162461bcd60e51b81526004016200037d9062001a4b565b6001600160a01b03821660009081526001602090815260409182902080548351818402810184019094528084529091830182828015620016ff57602002820191906000526020600020905b81546001600160a01b03168152600190910190602001808311620016e0575b50505050509050919050565b6000546001600160a01b03163314620017675760405162461bcd60e51b815260206004820152601a60248201527f4e6f7420617574686f72697a65643a206f6e6c79206f776e657200000000000060448201526064016200037d565b6001600160a01b038116620017bf5760405162461bcd60e51b815260206004820181905260248201527f4e6577206f776e65722063616e6e6f74206265207a65726f206164647265737360448201526064016200037d565b600080546001600160a01b038381166001600160a01b0319831681178455604051919092169283917f8be0079c531659141344cd1fd0a4f28419497f9722a3daafe3b4186f6b6457e09190a35050565b6115f18062001c8283390190565b611db5806200327383390190565b6001600160a01b03811681146200184157600080fd5b50565b600080600080600060a086880312156200185d57600080fd5b85359450602086013593506040860135925060608601356200187f816200182b565b9150608086013562001891816200182b565b809150509295509295909350565b600080600060608486031215620018b557600080fd5b8335620018c2816200182b565b95602085013595506040909401359392505050565b6020808252825182820181905260009190848201906040850190845b818110156200191a5783516001600160a01b031683529284019291840191600101620018f3565b50909695505050505050565b6000602082840312156200193957600080fd5b813562000a00816200182b565b600080600080608085870312156200195d57600080fd5b84359350602085013592506040850135915060608501356200197f816200182b565b939692955090935050565b600080604083850312156200199e57600080fd5b8235620019ab816200182b565b946020939093013593505050565b60208082526024908201527f4174206c65617374206f6e65206c6f636b20636f6e646974696f6e20726571756040820152631a5c995960e21b606082015260800190565b634e487b7160e01b600052601160045260246000fd5b8082018082111562001a295762001a29620019fd565b92915050565b60006001820162001a445762001a44620019fd565b5060010190565b602080825260149082015273496e76616c69642075736572206164647265737360601b604082015260600190565b634e487b7160e01b600052604160045260246000fd5b8181038181111562001a295762001a29620019fd565b634e487b7160e01b600052603260045260246000fd5b60006020828403121562001ace57600080fd5b815162000a00816200182b565b8051801515811462001aec57600080fd5b919050565b60006020828403121562001b0457600080fd5b62000a008262001adb565b60006020828403121562001b2257600080fd5b5051919050565b60008060008060008060008060006101208a8c03121562001b4957600080fd5b62001b548a62001adb565b985060208a0151975060408a0151965062001b7260608b0162001adb565b955062001b8260808b0162001adb565b945060a08a0151935060c08a0151925060e08a015191506101008a015167ffffffffffffffff8082111562001bb657600080fd5b818c0191508c601f83011262001bcb57600080fd5b81518181111562001be05762001be062001a79565b604051601f8201601f19908116603f0116810190838211818310171562001c0b5762001c0b62001a79565b816040528281528f602084870101111562001c2557600080fd5b600093505b8284101562001c4d57602084860101516020858301015260208401935062001c2a565b60006020848301015280955050505050509295985092959850929598565b634e487b7160e01b600052603160045260246000fdfe60a06040523480156200001157600080fd5b50604051620015f1380380620015f183398101604081905262000034916200047c565b6001600160a01b038516620000905760405162461bcd60e51b815260206004820152601560248201527f496e76616c6964206f776e65722061646472657373000000000000000000000060448201526064015b60405180910390fd5b6001600160a01b038216620000e85760405162461bcd60e51b815260206004820152601a60248201527f496e76616c696420707269636520666565642061646472657373000000000000604482015260640162000087565b6001600160a01b038116620001405760405162461bcd60e51b815260206004820152601560248201527f496e76616c696420746f6b656e20616464726573730000000000000000000000604482015260640162000087565b85156200025857428611620001985760405162461bcd60e51b815260206004820152601d60248201527f556e6c6f636b2074696d65206d75737420626520696e20667574757265000000604482015260640162000087565b620001a86312cc030042620004e2565b861115620001f95760405162461bcd60e51b815260206004820152601660248201527f4c6f636b206475726174696f6e20746f6f206c6f6e6700000000000000000000604482015260640162000087565b62000207610e1042620004e2565b861015620002585760405162461bcd60e51b815260206004820152601760248201527f4c6f636b206475726174696f6e20746f6f2073686f7274000000000000000000604482015260640162000087565b82156200030e5769021e19e0c9bab2400000831115620002bb5760405162461bcd60e51b815260206004820152601660248201527f54617267657420616d6f756e7420746f6f206869676800000000000000000000604482015260640162000087565b60018310156200030e5760405162461bcd60e51b815260206004820152601560248201527f54617267657420616d6f756e7420746f6f206c6f770000000000000000000000604482015260640162000087565b8315620003675760008411620003675760405162461bcd60e51b815260206004820152601d60248201527f546172676574207072696365206d75737420626520706f736974697665000000604482015260640162000087565b600080546001600160a01b03199081166001600160a01b038881169190911790925560018890556002869055600385905560048054909116848316179055600580549183166001600160a81b031990921691909117851515600160a01b021760ff60a81b1916841515600160a81b0217905585151580620003e85750600084115b80620003f45750600083115b6200044e5760405162461bcd60e51b8152602060048201526024808201527f4174206c65617374206f6e65206c6f636b20636f6e646974696f6e20726571756044820152631a5c995960e21b606482015260840162000087565b505042608052506200050a92505050565b80516001600160a01b03811681146200047757600080fd5b919050565b60008060008060008060c087890312156200049657600080fd5b86519550620004a8602088016200045f565b94506040870151935060608701519250620004c6608088016200045f565b9150620004d660a088016200045f565b90509295509295509295565b808201808211156200050457634e487b7160e01b600052601160045260246000fd5b92915050565b6080516110c46200052d6000396000818161024801526108fa01526110c46000f3fe608060405234801561001057600080fd5b50600436106101425760003560e01c8063953b8fb8116100b8578063db2e21bc1161007c578063db2e21bc1461026a578063dc38679c14610272578063eb91d37e1461027b578063ecd0b47d14610283578063f1a640f814610297578063fc0c546a1461029f57600080fd5b8063953b8fb814610203578063b29a81401461020c578063b6b55f251461021f578063b732388114610232578063cf09e0d01461024357600080fd5b80633ccfd60b1161010a5780633ccfd60b146101a65780634f1bfc9e146101b05780636fd670b9146101bb578063741bef1a146101df57806378b4330f146101f25780638380edb7146101fb57600080fd5b806302d05d3f1461014757806312065fe0146101775780631931136c1461018d5780632084bf9f14610195578063251c1aa31461019d575b600080fd5b60005461015a906001600160a01b031681565b6040516001600160a01b0390911681526020015b60405180910390f35b61017f6102b2565b60405190815260200161016e565b61017f610324565b61017f603281565b61017f60015481565b6101ae6103d9565b005b61017f6312cc030081565b6005546101cf90600160a81b900460ff1681565b604051901515815260200161016e565b60045461015a906001600160a01b031681565b61017f610e1081565b6101cf6105eb565b61017f60035481565b6101ae61021a366004610f25565b6105f5565b6101ae61022d366004610f5d565b61069b565b61017f69021e19e0c9bab240000081565b61017f7f000000000000000000000000000000000000000000000000000000000000000081565b6101ae6108cb565b61017f60025481565b61017f610a9a565b6005546101cf90600160a01b900460ff1681565b61017f600881565b60055461015a906001600160a01b031681565b6005546040516370a0823160e01b81523060048201526000916001600160a01b0316906370a0823190602401602060405180830381865afa1580156102fb573d6000803e3d6000fd5b505050506040513d601f19601f8201168201806040525081019061031f9190610f76565b905090565b600554600090600160a81b900460ff1615806103405750600354155b1561034b5750600090565b6005546040516370a0823160e01b81523060048201526000916001600160a01b0316906370a0823190602401602060405180830381865afa158015610394573d6000803e3d6000fd5b505050506040513d601f19601f820116820180604052508101906103b89190610f76565b6003549091506103c9826064610fa5565b6103d39190610fc2565b91505090565b6000546001600160a01b0316331461040c5760405162461bcd60e51b815260040161040390610fe4565b60405180910390fd5b600554600160b01b900460ff16156104665760405162461bcd60e51b815260206004820152601f60248201527f5265656e7472616e637947756172643a207265656e7472616e742063616c6c006044820152606401610403565b6005805460ff60b01b1916600160b01b179055610481610b1f565b6104c55760405162461bcd60e51b815260206004820152601560248201527415985d5b1d081a5cc81cdd1a5b1b081b1bd8dad959605a1b6044820152606401610403565b6005546040516370a0823160e01b81523060048201526000916001600160a01b0316906370a0823190602401602060405180830381865afa15801561050e573d6000803e3d6000fd5b505050506040513d601f19601f820116820180604052508101906105329190610f76565b90506000811161057c5760405162461bcd60e51b81526020600482015260156024820152744e6f20746f6b656e7320746f20776974686472617760581b6044820152606401610403565b600054600554610599916001600160a01b03918216911683610c98565b6000546040518281526001600160a01b03909116907f7fcf532c15f0a6db0bd6d0e038bea71d30d808c7d98cb3bf7268a95bf5081b659060200160405180910390a2506005805460ff60b01b19169055565b600061031f610b1f565b6000546001600160a01b0316331461061f5760405162461bcd60e51b815260040161040390610fe4565b6005546001600160a01b039081169083160361067d5760405162461bcd60e51b815260206004820152601a60248201527f43616e6e6f74207265636f766572207661756c7420746f6b656e0000000000006044820152606401610403565b600054610697906001600160a01b03848116911683610c98565b5050565b600081116106f95760405162461bcd60e51b815260206004820152602560248201527f4465706f73697420616d6f756e74206d75737420626520677265617465722074604482015264068616e20360dc1b6064820152608401610403565b6005546040516370a0823160e01b815233600482015282916001600160a01b0316906370a0823190602401602060405180830381865afa158015610741573d6000803e3d6000fd5b505050506040513d601f19601f820116820180604052508101906107659190610f76565b10156107b35760405162461bcd60e51b815260206004820152601a60248201527f496e73756666696369656e7420746f6b656e2062616c616e63650000000000006044820152606401610403565b600554604051636eb1769f60e11b815233600482015230602482015282916001600160a01b03169063dd62ed3e90604401602060405180830381865afa158015610801573d6000803e3d6000fd5b505050506040513d601f19601f820116820180604052508101906108259190610f76565b10156108735760405162461bcd60e51b815260206004820152601c60248201527f496e73756666696369656e7420746f6b656e20616c6c6f77616e6365000000006044820152606401610403565b60055461088b906001600160a01b0316333084610cfc565b60405181815233907fe1fffcc4923d04b559f4d29a8bfc6cda04eb5b0d3c460751c2402c5c5cc9109c9060200160405180910390a26108c8610d3b565b50565b6000546001600160a01b031633146108f55760405162461bcd60e51b815260040161040390610fe4565b6109227f000000000000000000000000000000000000000000000000000000000000000062278d0061100c565b4210156109805760405162461bcd60e51b815260206004820152602660248201527f456d657267656e6379207769746864726177616c206e6f7420617661696c61626044820152651b19481e595d60d21b6064820152608401610403565b6005546040516370a0823160e01b81523060048201526000916001600160a01b0316906370a0823190602401602060405180830381865afa1580156109c9573d6000803e3d6000fd5b505050506040513d601f19601f820116820180604052508101906109ed9190610f76565b905060008111610a375760405162461bcd60e51b81526020600482015260156024820152744e6f20746f6b656e7320746f20776974686472617760581b6044820152606401610403565b600054600554610a54916001600160a01b03918216911683610c98565b6000546040518281526001600160a01b03909116907f7fcf532c15f0a6db0bd6d0e038bea71d30d808c7d98cb3bf7268a95bf5081b65906020015b60405180910390a250565b6000600460009054906101000a90046001600160a01b03166001600160a01b031663feaf968c6040518163ffffffff1660e01b815260040160a060405180830381865afa925050508015610b0b575060408051601f3d908101601f19168201909252610b089181019061103e565b60015b610b155750600090565b5091949350505050565b600080600154118015610b3457506001544210155b15610b3f5750600190565b600554600160a01b900460ff168015610b5a57506000600254115b15610bf0576004805460408051633fabe5a360e21b815290516001600160a01b039092169263feaf968c928282019260a092908290030181865afa925050508015610bc2575060408051601f3d908101601f19168201909252610bbf9181019061103e565b60015b15610bf057600084138015610bd957506002548410155b15610bea5760019550505050505090565b50505050505b600554600160a81b900460ff168015610c0b57506000600354115b15610c92576005546040516370a0823160e01b81523060048201526000916001600160a01b0316906370a0823190602401602060405180830381865afa158015610c59573d6000803e3d6000fd5b505050506040513d601f19601f82011682018060405250810190610c7d9190610f76565b90506003548110610c9057600191505090565b505b50600090565b6040516001600160a01b03838116602483015260448201839052610cf791859182169063a9059cbb906064015b604051602081830303815290604052915060e01b6020820180516001600160e01b038381831617835250505050610eb4565b505050565b6040516001600160a01b038481166024830152838116604483015260648201839052610d359186918216906323b872dd90608401610cc5565b50505050565b610d43610b1f565b8015610db957506005546040516370a0823160e01b81523060048201526000916001600160a01b0316906370a0823190602401602060405180830381865afa158015610d93573d6000803e3d6000fd5b505050506040513d601f19601f82011682018060405250810190610db79190610f76565b115b15610eb2576005546040516370a0823160e01b81523060048201526000916001600160a01b0316906370a0823190602401602060405180830381865afa158015610e07573d6000803e3d6000fd5b505050506040513d601f19601f82011682018060405250810190610e2b9190610f76565b600054600554919250610e4b916001600160a01b03908116911683610c98565b6000546040516001600160a01b03909116907f4ad0472683bd43f275a5e9c98856d62b677f894e5b5bc4fa3aa491c93548e10090610a8f90848152604060208201819052600e908201526d15985d5b1d081d5b9b1bd8dad95960921b606082015260800190565b565b600080602060008451602086016000885af180610ed7576040513d6000823e3d81fd5b50506000513d91508115610eef578060011415610efc565b6001600160a01b0384163b155b15610d3557604051635274afe760e01b81526001600160a01b0385166004820152602401610403565b60008060408385031215610f3857600080fd5b82356001600160a01b0381168114610f4f57600080fd5b946020939093013593505050565b600060208284031215610f6f57600080fd5b5035919050565b600060208284031215610f8857600080fd5b5051919050565b634e487b7160e01b600052601160045260246000fd5b8082028115828204841417610fbc57610fbc610f8f565b92915050565b600082610fdf57634e487b7160e01b600052601260045260246000fd5b500490565b6020808252600e908201526d139bdd08185d5d1a1bdc9a5e995960921b604082015260600190565b80820180821115610fbc57610fbc610f8f565b805169ffffffffffffffffffff8116811461103957600080fd5b919050565b600080600080600060a0868803121561105657600080fd5b61105f8661101f565b94506020860151935060408601519250606086015191506110826080870161101f565b9050929550929590935056fea26469706673582212202f611e23da5c938f1f46038df830476629fdd07729e359aacf0c478ff4774fc964736f6c6343000814003360a06040523480156200001157600080fd5b5060405162001db538038062001db583398101604081905262000034916200041a565b6001600160a01b038416620000905760405162461bcd60e51b815260206004820152601560248201527f496e76616c6964206f776e65722061646472657373000000000000000000000060448201526064015b60405180910390fd5b6001600160a01b038116620000e85760405162461bcd60e51b815260206004820152601a60248201527f496e76616c696420707269636520666565642061646472657373000000000000604482015260640162000087565b84156200020057428511620001405760405162461bcd60e51b815260206004820152601d60248201527f556e6c6f636b2074696d65206d75737420626520696e20667574757265000000604482015260640162000087565b620001506312cc0300426200046f565b851115620001a15760405162461bcd60e51b815260206004820152601660248201527f4c6f636b206475726174696f6e20746f6f206c6f6e6700000000000000000000604482015260640162000087565b620001af610e10426200046f565b851015620002005760405162461bcd60e51b815260206004820152601760248201527f4c6f636b206475726174696f6e20746f6f2073686f7274000000000000000000604482015260640162000087565b8115620002bc5769021e19e0c9bab2400000821115620002635760405162461bcd60e51b815260206004820152601660248201527f54617267657420616d6f756e7420746f6f206869676800000000000000000000604482015260640162000087565b66038d7ea4c68000821015620002bc5760405162461bcd60e51b815260206004820152601560248201527f54617267657420616d6f756e7420746f6f206c6f770000000000000000000000604482015260640162000087565b8215620003155760008311620003155760405162461bcd60e51b815260206004820152601d60248201527f546172676574207072696365206d75737420626520706f736974697665000000604482015260640162000087565b600080546001600160a01b0319166001600160a01b0386811691909117909155600186905560028490556003839055600480549183166001600160a81b031990921691909117841515600160a01b021760ff60a81b1916831515600160a81b0217905584151580620003875750600083115b80620003935750600082115b620003ed5760405162461bcd60e51b8152602060048201526024808201527f4174206c65617374206f6e65206c6f636b20636f6e646974696f6e20726571756044820152631a5c995960e21b606482015260840162000087565b5050426080525062000497915050565b80516001600160a01b03811681146200041557600080fd5b919050565b600080600080600060a086880312156200043357600080fd5b855194506200044560208701620003fd565b935060408601519250606086015191506200046360808701620003fd565b90509295509295909350565b808201808211156200049157634e487b7160e01b600052601160045260246000fd5b92915050565b6080516118f4620004c1600039600081816102f801528181610ebc015261111f01526118f46000f3fe60806040526004361061012a5760003560e01c8063953b8fb8116100ab578063d0e30db01161006f578063d0e30db01461031a578063db2e21bc14610322578063dc38679c14610337578063ea83ec1f1461034d578063ecd0b47d14610362578063f1a640f81461038357600080fd5b8063953b8fb8146102735780639ae8ad4514610289578063b7323881146102b3578063cb9a8c7e146102d1578063cf09e0d0146102e657600080fd5b8063653b8e1e116100f2578063653b8e1e146101d45780636fd670b9146101f7578063741bef1a1461022857806378b4330f146102485780638e15f4731461025e57600080fd5b806302d05d3f1461012f5780632084bf9f1461016c578063251c1aa31461018f5780633ccfd60b146101a55780634f1bfc9e146101bc575b600080fd5b34801561013b57600080fd5b5060005461014f906001600160a01b031681565b6040516001600160a01b0390911681526020015b60405180910390f35b34801561017857600080fd5b50610181603281565b604051908152602001610163565b34801561019b57600080fd5b5061018160015481565b3480156101b157600080fd5b506101ba610398565b005b3480156101c857600080fd5b506101816312cc030081565b3480156101e057600080fd5b506101e961073a565b604051610163929190611646565b34801561020357600080fd5b5060045461021890600160a81b900460ff1681565b6040519015158152602001610163565b34801561023457600080fd5b5060045461014f906001600160a01b031681565b34801561025457600080fd5b50610181610e1081565b34801561026a57600080fd5b50610181610925565b34801561027f57600080fd5b5061018160035481565b34801561029557600080fd5b5061029e610bb0565b60405161016399989796959493929190611669565b3480156102bf57600080fd5b5061018169021e19e0c9bab240000081565b3480156102dd57600080fd5b50610218610eaa565b3480156102f257600080fd5b506101817f000000000000000000000000000000000000000000000000000000000000000081565b6101ba610f13565b34801561032e57600080fd5b506101ba611088565b34801561034357600080fd5b5061018160025481565b34801561035957600080fd5b506101ba611358565b34801561036e57600080fd5b5060045461021890600160a01b900460ff1681565b34801561038f57600080fd5b50610181600881565b6000546001600160a01b031633146103e85760405162461bcd60e51b815260206004820152600e60248201526d139bdd08185d5d1a1bdc9a5e995960921b60448201526064015b60405180910390fd5b600454600160b01b900460ff16156104125760405162461bcd60e51b81526004016103df906116c4565b6004805460ff60b01b1916600160b01b179055476104685760405162461bcd60e51b81526020600482015260136024820152724e6f7468696e6720746f20776974686472617760681b60448201526064016103df565b600080604051806020016040528060008152509050600060015411801561049157506001544210155b156104c4575050604080518082019091526011815270151a5b59481b1bd8dac8195e1c1a5c9959607a1b60208201526001905b600454600160a01b900460ff1680156104db575081155b1561057e57306001600160a01b0316638e15f4736040518163ffffffff1660e01b8152600401602060405180830381865afa92505050801561053a575060408051601f3d908101601f19168201909252610537918101906116fb565b60015b1561057e57600254811061057c576001925060405180604001604052806014815260200173141c9a58d9481d185c99d95d081c995858da195960621b81525091505b505b600454600160a81b900460ff168015610595575081155b156105d35760035447106105d357505060408051808201909152601381527211dbd85b08185b5bdd5b9d081c995858da1959606a1b60208201526001905b816106185760405162461bcd60e51b815260206004820152601560248201527415985d5b1d081a5cc81cdd1a5b1b081b1bd8dad959605a1b60448201526064016103df565b600080546040514792916001600160a01b03169083908381818185875af1925050503d8060008114610666576040519150601f19603f3d011682016040523d82523d6000602084013e61066b565b606091505b50509050806106ae5760405162461bcd60e51b815260206004820152600f60248201526e151c985b9cd9995c8819985a5b1959608a1b60448201526064016103df565b7f783a90694c9f00c5f34817271a9bf8afb388f51995e3be1f9bc413b4af1548a8836040516106dd9190611714565b60405180910390a16000546040518381526001600160a01b03909116907f7fcf532c15f0a6db0bd6d0e038bea71d30d808c7d98cb3bf7268a95bf5081b659060200160405180910390a250506004805460ff60b01b191690555050565b60006060476000036107785750506040805180820190915260148152734e6f2066756e647320746f20776974686472617760601b6020820152600091565b600060015411801561078c57506001544210155b156107c0575050604080518082019091526011815270151a5b59481b1bd8dac8195e1c1a5c9959607a1b6020820152600191565b600454600160a01b900460ff16156108a457306001600160a01b0316638e15f4736040518163ffffffff1660e01b8152600401602060405180830381865afa92505050801561082c575060408051601f3d908101601f19168201909252610829918101906116fb565b60015b6108645750506040805180820190915260168152755072696365206665656420756e617661696c61626c6560501b6020820152600091565b60025481106108a2575050604080518082019091526014815273141c9a58d9481d185c99d95d081c995858da195960621b6020820152600192909150565b505b600454600160a81b900460ff1680156108bf57506003544710155b156108f557505060408051808201909152601381527211dbd85b08185b5bdd5b9d081c995858da1959606a1b6020820152600191565b505060408051808201909152601281527115985d5b1d081cdd1a5b1b081b1bd8dad95960721b6020820152600091565b6000600460009054906101000a90046001600160a01b03166001600160a01b031663feaf968c6040518163ffffffff1660e01b815260040160a060405180830381865afa925050508015610996575060408051601f3d908101601f191682019092526109939181019061174d565b60015b6109e25760405162461bcd60e51b815260206004820152601f60248201527f4661696c656420746f206765742070726963652066726f6d206f7261636c650060448201526064016103df565b60008413610a325760405162461bcd60e51b815260206004820152601960248201527f496e76616c69642070726963652066726f6d206f7261636c650000000000000060448201526064016103df565b60008211610a775760405162461bcd60e51b8152602060048201526012602482015271526f756e64206e6f7420636f6d706c65746560701b60448201526064016103df565b610e10610a8483426117b3565b10610ac65760405162461bcd60e51b8152602060048201526012602482015271141c9a58d94819185d18481d1bdbc81bdb1960721b60448201526064016103df565b6000600554138015610ada57506000600654115b15610ba657600060065442610aef91906117b3565b9050610e10811015610ba45760006005548613610b2d57600554610b1387826117cc565b610b1e9060646117f3565b610b289190611839565b610b4f565b600554610b3a81886117cc565b610b459060646117f3565b610b4f9190611839565b90506032811115610ba25760405162461bcd60e51b815260206004820152601860248201527f5072696365206368616e676520746f6f2065787472656d65000000000000000060448201526064016103df565b505b505b5091949350505050565b6000806000806000806000806060306001600160a01b0316638e15f4736040518163ffffffff1660e01b8152600401602060405180830381865afa925050508015610c18575060408051601f3d908101601f19168201909252610c15918101906116fb565b60015b610c255760009750610c28565b97505b600154421015610c455742600154610c4091906117b3565b610c48565b60005b60045460035491985060ff600160a01b820481169850600160a81b9091041695504794509250848015610c7d57506000600354115b610c88576000610ca0565b600354610c96856064611867565b610ca0919061187e565b915060008060015411610cb4576000610cbb565b6001544210155b600454909150600090600160a01b900460ff168015610cda575060008a115b610ce5576000610cec565b6002548a10155b600454909150600090600160a81b900460ff16610d0a576000610d11565b6003548710155b90508215610d4e5760009b5060405180604001604052806011815260200170151a5b59481b1bd8dac8195e1c1a5c9959607a1b8152509350610e9c565b8115610d8c5760009b5060405180604001604052806014815260200173141c9a58d9481d185c99d95d081c995858da195960621b8152509350610e9c565b8015610dc95760009b506040518060400160405280601381526020017211dbd85b08185b5bdd5b9d081c995858da1959606a1b8152509350610e9c565b60045460019c50600160a81b900460ff1615610e1c576040518060400160405280601781526020017f57616974696e6720666f7220676f616c20616d6f756e740000000000000000008152509350610e9c565b600454600160a01b900460ff1615610e6b576040518060400160405280601881526020017f57616974696e6720666f722070726963652074617267657400000000000000008152509350610e9c565b6040518060400160405280601581526020017457616974696e6720666f722074696d65206c6f636b60581b81525093505b505050909192939495969798565b600080600060015411610eea57610ee57f00000000000000000000000000000000000000000000000000000000000000006301e13380611892565b610efb565b600154610efb906301e13380611892565b9050804210158015610f0d5750600047115b91505090565b66038d7ea4c68000341015610f6a5760405162461bcd60e51b815260206004820152601c60248201527f4d696e696d756d206465706f73697420697320302e303031204554480000000060448201526064016103df565b69021e19e0c9bab2400000471115610fd05760405162461bcd60e51b815260206004820152602360248201527f5661756c7420776f756c6420657863656564206d6178696d756d20636170616360448201526269747960e81b60648201526084016103df565b600454600160a81b900460ff1615611049576003544790600090610ff5836064611867565b610fff919061187e565b60035460408051858152602081019290925281018290529091507ff6621229b3a1f86bff573cc1432f4f5d4bcf0e65338fde4dfaf2e37e731152cd9060600160405180910390a150505b60405134815233907fe1fffcc4923d04b559f4d29a8bfc6cda04eb5b0d3c460751c2402c5c5cc9109c9060200160405180910390a261108661135c565b565b6000546001600160a01b031633146110d35760405162461bcd60e51b815260206004820152600e60248201526d139bdd08185d5d1a1bdc9a5e995960921b60448201526064016103df565b600454600160b01b900460ff16156110fd5760405162461bcd60e51b81526004016103df906116c4565b6004805460ff60b01b1916600160b01b17905560015460009061114d576111487f00000000000000000000000000000000000000000000000000000000000000006301e13380611892565b61115e565b60015461115e906301e13380611892565b9050804210156111bc5760405162461bcd60e51b8152602060048201526024808201527f456d657267656e6379207769746864726177206e6f7420617661696c61626c65604482015263081e595d60e21b60648201526084016103df565b600047116112025760405162461bcd60e51b81526020600482015260136024820152724e6f7468696e6720746f20776974686472617760681b60448201526064016103df565b600080546040514792916001600160a01b03169083908381818185875af1925050503d8060008114611250576040519150601f19603f3d011682016040523d82523d6000602084013e611255565b606091505b50509050806112a65760405162461bcd60e51b815260206004820152601960248201527f456d657267656e6379207472616e73666572206661696c65640000000000000060448201526064016103df565b7f783a90694c9f00c5f34817271a9bf8afb388f51995e3be1f9bc413b4af1548a86040516112fc90602080825260149082015273115b595c99d95b98de481dda5d1a191c985dd85b60621b604082015260600190565b60405180910390a16000546040518381526001600160a01b03909116907f7fcf532c15f0a6db0bd6d0e038bea71d30d808c7d98cb3bf7268a95bf5081b659060200160405180910390a250506004805460ff60b01b1916905550565b6110865b600454600160b01b900460ff16156113865760405162461bcd60e51b81526004016103df906116c4565b6004805460ff60b01b1916600160b01b17905547156115f15760008060405180602001604052806000815250905060006001541180156113c857506001544210155b156113fb575050604080518082019091526011815270151a5b59481b1bd8dac8195e1c1a5c9959607a1b60208201526001905b600454600160a01b900460ff168015611412575081155b156114bb57306001600160a01b0316638e15f4736040518163ffffffff1660e01b8152600401602060405180830381865afa925050508015611471575060408051601f3d908101601f1916820190925261146e918101906116fb565b60015b61147c5750506115f1565b60025481106114b9576001925060405180604001604052806014815260200173141c9a58d9481d185c99d95d081c995858da195960621b81525091505b505b600454600160a81b900460ff1680156114d2575081155b1561151057600354471061151057505060408051808201909152601381527211dbd85b08185b5bdd5b9d081c995858da1959606a1b60208201526001905b81156115ee57600080546040514792916001600160a01b03169083908381818185875af1925050503d8060008114611564576040519150601f19603f3d011682016040523d82523d6000602084013e611569565b606091505b5050905080156115eb576000546040516001600160a01b03909116907f4ad0472683bd43f275a5e9c98856d62b677f894e5b5bc4fa3aa491c93548e100906115b490859087906118a5565b60405180910390a27f783a90694c9f00c5f34817271a9bf8afb388f51995e3be1f9bc413b4af1548a8836040516106dd9190611714565b50505b50505b6004805460ff60b01b19169055565b6000815180845260005b818110156116265760208185018101518683018201520161160a565b506000602082860101526020601f19601f83011685010191505092915050565b82151581526040602082015260006116616040830184611600565b949350505050565b60006101208b151583528a6020840152896040840152881515606084015287151560808401528660a08401528560c08401528460e0840152806101008401526116b481840185611600565b9c9b505050505050505050505050565b6020808252601f908201527f5265656e7472616e637947756172643a207265656e7472616e742063616c6c00604082015260600190565b60006020828403121561170d57600080fd5b5051919050565b6020815260006117276020830184611600565b9392505050565b805169ffffffffffffffffffff8116811461174857600080fd5b919050565b600080600080600060a0868803121561176557600080fd5b61176e8661172e565b94506020860151935060408601519250606086015191506117916080870161172e565b90509295509295909350565b634e487b7160e01b600052601160045260246000fd5b818103818111156117c6576117c661179d565b92915050565b81810360008312801583831316838312821617156117ec576117ec61179d565b5092915050565b80820260008212600160ff1b8414161561180f5761180f61179d565b81810583148215176117c6576117c661179d565b634e487b7160e01b600052601260045260246000fd5b60008261184857611848611823565b600160ff1b8214600019841416156118625761186261179d565b500590565b80820281158282048414176117c6576117c661179d565b60008261188d5761188d611823565b500490565b808201808211156117c6576117c661179d565b828152604060208201526000611661604083018461160056fea264697066735822122019b6cbe183f999650349a8c2fec0712debd8928627c492e775827e43af0e0b1164736f6c63430008140033a26469706673582212204903b6ac15d026d4c60cccbf9603a4ab6a7961ba08fdf4a99d60131d432e045564736f6c63430008140033",
  "linkReferences": {},
  "deployedLinkReferences": {}
}