{
  "_format": "hh-sol-artifact-1",
  "contractName": "TimeCapsuleVault",
  "sourceName": "contracts/TimeCapsuleVault.sol",
  "abi": [
    {
      "inputs": [
        {
          "internalType": "uint256",
          "name": "_unlockTime",
          "type": "uint256"
        },
        {
          "internalType": "address",
          "name": "_owner",
          "type": "address"
        },
        {
          "internalType": "uint256",
          "name": "_targetPrice",
          "type": "uint256"
        },
        {
          "internalType": "uint256",
          "name": "_targetAmount",
          "type": "uint256"
        },
        {
          "internalType": "address",
          "name": "_priceFeedAddress",
          "type": "address"
        }
      ],
      "stateMutability": "nonpayable",
      "type": "constructor"
    },
    {
      "anonymous": false,
      "inputs": [
        {
          "indexed": true,
          "internalType": "address",
          "name": "creator",
          "type": "address"
        },
        {
          "indexed": false,
          "internalType": "uint256",
          "name": "amount",
          "type": "uint256"
        },
        {
          "indexed": false,
          "internalType": "string",
          "name": "reason",
          "type": "string"
        }
      ],
      "name": "AutoWithdrawal",
      "type": "event"
    },
    {
      "anonymous": false,
      "inputs": [
        {
          "indexed": true,
          "internalType": "address",
          "name": "depositor",
          "type": "address"
        },
        {
          "indexed": false,
          "internalType": "uint256",
          "name": "amount",
          "type": "uint256"
        }
      ],
      "name": "Deposit",
      "type": "event"
    },
    {
      "anonymous": false,
      "inputs": [
        {
          "indexed": false,
          "internalType": "uint256",
          "name": "currentAmount",
          "type": "uint256"
        },
        {
          "indexed": false,
          "internalType": "uint256",
          "name": "targetAmount",
          "type": "uint256"
        },
        {
          "indexed": false,
          "internalType": "uint256",
          "name": "progressPercentage",
          "type": "uint256"
        }
      ],
      "name": "GoalProgress",
      "type": "event"
    },
    {
      "anonymous": false,
      "inputs": [
        {
          "indexed": false,
          "internalType": "int256",
          "name": "newPrice",
          "type": "int256"
        }
      ],
      "name": "PriceUpdated",
      "type": "event"
    },
    {
      "anonymous": false,
      "inputs": [
        {
          "indexed": false,
          "internalType": "string",
          "name": "reason",
          "type": "string"
        }
      ],
      "name": "VaultUnlocked",
      "type": "event"
    },
    {
      "anonymous": false,
      "inputs": [
        {
          "indexed": true,
          "internalType": "address",
          "name": "creator",
          "type": "address"
        },
        {
          "indexed": false,
          "internalType": "uint256",
          "name": "amount",
          "type": "uint256"
        }
      ],
      "name": "Withdrawal",
      "type": "event"
    },
    {
      "inputs": [],
      "name": "MAX_LOCK_DURATION",
      "outputs": [
        {
          "internalType": "uint256",
          "name": "",
          "type": "uint256"
        }
      ],
      "stateMutability": "view",
      "type": "function"
    },
    {
      "inputs": [],
      "name": "MAX_PRICE_CHANGE",
      "outputs": [
        {
          "internalType": "uint256",
          "name": "",
          "type": "uint256"
        }
      ],
      "stateMutability": "view",
      "type": "function"
    },
    {
      "inputs": [],
      "name": "MAX_TARGET_AMOUNT",
      "outputs": [
        {
          "internalType": "uint256",
          "name": "",
          "type": "uint256"
        }
      ],
      "stateMutability": "view",
      "type": "function"
    },
    {
      "inputs": [],
      "name": "MIN_LOCK_DURATION",
      "outputs": [
        {
          "internalType": "uint256",
          "name": "",
          "type": "uint256"
        }
      ],
      "stateMutability": "view",
      "type": "function"
    },
    {
      "inputs": [],
      "name": "PRICE_DECIMALS",
      "outputs": [
        {
          "internalType": "uint256",
          "name": "",
          "type": "uint256"
        }
      ],
      "stateMutability": "view",
      "type": "function"
    },
    {
      "inputs": [],
      "name": "canAutoWithdraw",
      "outputs": [
        {
          "internalType": "bool",
          "name": "canUnlock",
          "type": "bool"
        },
        {
          "internalType": "string",
          "name": "reason",
          "type": "string"
        }
      ],
      "stateMutability": "view",
      "type": "function"
    },
    {
      "inputs": [],
      "name": "canEmergencyWithdraw",
      "outputs": [
        {
          "internalType": "bool",
          "name": "",
          "type": "bool"
        }
      ],
      "stateMutability": "view",
      "type": "function"
    },
    {
      "inputs": [],
      "name": "createdAt",
      "outputs": [
        {
          "internalType": "uint256",
          "name": "",
          "type": "uint256"
        }
      ],
      "stateMutability": "view",
      "type": "function"
    },
    {
      "inputs": [],
      "name": "creator",
      "outputs": [
        {
          "internalType": "address",
          "name": "",
          "type": "address"
        }
      ],
      "stateMutability": "view",
      "type": "function"
    },
    {
      "inputs": [],
      "name": "deposit",
      "outputs": [],
      "stateMutability": "payable",
      "type": "function"
    },
    {
      "inputs": [],
      "name": "emergencyWithdraw",
      "outputs": [],
      "stateMutability": "nonpayable",
      "type": "function"
    },
    {
      "inputs": [],
      "name": "getLatestPrice",
      "outputs": [
        {
          "internalType": "int256",
          "name": "",
          "type": "int256"
        }
      ],
      "stateMutability": "view",
      "type": "function"
    },
    {
      "inputs": [],
      "name": "getLockStatus",
      "outputs": [
        {
          "internalType": "bool",
          "name": "isLocked",
          "type": "bool"
        },
        {
          "internalType": "uint256",
          "name": "currentPrice",
          "type": "uint256"
        },
        {
          "internalType": "uint256",
          "name": "timeRemaining",
          "type": "uint256"
        },
        {
          "internalType": "bool",
          "name": "isPriceBased",
          "type": "bool"
        },
        {
          "internalType": "bool",
          "name": "isGoalBased",
          "type": "bool"
        },
        {
          "internalType": "uint256",
          "name": "currentAmount",
          "type": "uint256"
        },
        {
          "internalType": "uint256",
          "name": "goalAmount",
          "type": "uint256"
        },
        {
          "internalType": "uint256",
          "name": "progressPercentage",
          "type": "uint256"
        },
        {
          "internalType": "string",
          "name": "unlockReason",
          "type": "string"
        }
      ],
      "stateMutability": "view",
      "type": "function"
    },
    {
      "inputs": [],
      "name": "isGoalLock",
      "outputs": [
        {
          "internalType": "bool",
          "name": "",
          "type": "bool"
        }
      ],
      "stateMutability": "view",
      "type": "function"
    },
    {
      "inputs": [],
      "name": "isPriceLock",
      "outputs": [
        {
          "internalType": "bool",
          "name": "",
          "type": "bool"
        }
      ],
      "stateMutability": "view",
      "type": "function"
    },
    {
      "inputs": [],
      "name": "priceFeed",
      "outputs": [
        {
          "internalType": "contract AggregatorV3Interface",
          "name": "",
          "type": "address"
        }
      ],
      "stateMutability": "view",
      "type": "function"
    },
    {
      "inputs": [],
      "name": "targetAmount",
      "outputs": [
        {
          "internalType": "uint256",
          "name": "",
          "type": "uint256"
        }
      ],
      "stateMutability": "view",
      "type": "function"
    },
    {
      "inputs": [],
      "name": "targetPrice",
      "outputs": [
        {
          "internalType": "uint256",
          "name": "",
          "type": "uint256"
        }
      ],
      "stateMutability": "view",
      "type": "function"
    },
    {
      "inputs": [],
      "name": "triggerAutoWithdraw",
      "outputs": [],
      "stateMutability": "nonpayable",
      "type": "function"
    },
    {
      "inputs": [],
      "name": "unlockTime",
      "outputs": [
        {
          "internalType": "uint256",
          "name": "",
          "type": "uint256"
        }
      ],
      "stateMutability": "view",
      "type": "function"
    },
    {
      "inputs": [],
      "name": "withdraw",
      "outputs": [],
      "stateMutability": "nonpayable",
      "type": "function"
    }
  ],
  "bytecode": "0x60a06040523480156200001157600080fd5b5060405162001db538038062001db583398101604081905262000034916200041a565b6001600160a01b038416620000905760405162461bcd60e51b815260206004820152601560248201527f496e76616c6964206f776e65722061646472657373000000000000000000000060448201526064015b60405180910390fd5b6001600160a01b038116620000e85760405162461bcd60e51b815260206004820152601a60248201527f496e76616c696420707269636520666565642061646472657373000000000000604482015260640162000087565b84156200020057428511620001405760405162461bcd60e51b815260206004820152601d60248201527f556e6c6f636b2074696d65206d75737420626520696e20667574757265000000604482015260640162000087565b620001506312cc0300426200046f565b851115620001a15760405162461bcd60e51b815260206004820152601660248201527f4c6f636b206475726174696f6e20746f6f206c6f6e6700000000000000000000604482015260640162000087565b620001af610e10426200046f565b851015620002005760405162461bcd60e51b815260206004820152601760248201527f4c6f636b206475726174696f6e20746f6f2073686f7274000000000000000000604482015260640162000087565b8115620002bc5769021e19e0c9bab2400000821115620002635760405162461bcd60e51b815260206004820152601660248201527f54617267657420616d6f756e7420746f6f206869676800000000000000000000604482015260640162000087565b66038d7ea4c68000821015620002bc5760405162461bcd60e51b815260206004820152601560248201527f54617267657420616d6f756e7420746f6f206c6f770000000000000000000000604482015260640162000087565b8215620003155760008311620003155760405162461bcd60e51b815260206004820152601d60248201527f546172676574207072696365206d75737420626520706f736974697665000000604482015260640162000087565b600080546001600160a01b0319166001600160a01b0386811691909117909155600186905560028490556003839055600480549183166001600160a81b031990921691909117841515600160a01b021760ff60a81b1916831515600160a81b0217905584151580620003875750600083115b80620003935750600082115b620003ed5760405162461bcd60e51b8152602060048201526024808201527f4174206c65617374206f6e65206c6f636b20636f6e646974696f6e20726571756044820152631a5c995960e21b606482015260840162000087565b5050426080525062000497915050565b80516001600160a01b03811681146200041557600080fd5b919050565b600080600080600060a086880312156200043357600080fd5b855194506200044560208701620003fd565b935060408601519250606086015191506200046360808701620003fd565b90509295509295909350565b808201808211156200049157634e487b7160e01b600052601160045260246000fd5b92915050565b6080516118f4620004c1600039600081816102f801528181610ebc015261111f01526118f46000f3fe60806040526004361061012a5760003560e01c8063953b8fb8116100ab578063d0e30db01161006f578063d0e30db01461031a578063db2e21bc14610322578063dc38679c14610337578063ea83ec1f1461034d578063ecd0b47d14610362578063f1a640f81461038357600080fd5b8063953b8fb8146102735780639ae8ad4514610289578063b7323881146102b3578063cb9a8c7e146102d1578063cf09e0d0146102e657600080fd5b8063653b8e1e116100f2578063653b8e1e146101d45780636fd670b9146101f7578063741bef1a1461022857806378b4330f146102485780638e15f4731461025e57600080fd5b806302d05d3f1461012f5780632084bf9f1461016c578063251c1aa31461018f5780633ccfd60b146101a55780634f1bfc9e146101bc575b600080fd5b34801561013b57600080fd5b5060005461014f906001600160a01b031681565b6040516001600160a01b0390911681526020015b60405180910390f35b34801561017857600080fd5b50610181603281565b604051908152602001610163565b34801561019b57600080fd5b5061018160015481565b3480156101b157600080fd5b506101ba610398565b005b3480156101c857600080fd5b506101816312cc030081565b3480156101e057600080fd5b506101e961073a565b604051610163929190611646565b34801561020357600080fd5b5060045461021890600160a81b900460ff1681565b6040519015158152602001610163565b34801561023457600080fd5b5060045461014f906001600160a01b031681565b34801561025457600080fd5b50610181610e1081565b34801561026a57600080fd5b50610181610925565b34801561027f57600080fd5b5061018160035481565b34801561029557600080fd5b5061029e610bb0565b60405161016399989796959493929190611669565b3480156102bf57600080fd5b5061018169021e19e0c9bab240000081565b3480156102dd57600080fd5b50610218610eaa565b3480156102f257600080fd5b506101817f000000000000000000000000000000000000000000000000000000000000000081565b6101ba610f13565b34801561032e57600080fd5b506101ba611088565b34801561034357600080fd5b5061018160025481565b34801561035957600080fd5b506101ba611358565b34801561036e57600080fd5b5060045461021890600160a01b900460ff1681565b34801561038f57600080fd5b50610181600881565b6000546001600160a01b031633146103e85760405162461bcd60e51b815260206004820152600e60248201526d139bdd08185d5d1a1bdc9a5e995960921b60448201526064015b60405180910390fd5b600454600160b01b900460ff16156104125760405162461bcd60e51b81526004016103df906116c4565b6004805460ff60b01b1916600160b01b179055476104685760405162461bcd60e51b81526020600482015260136024820152724e6f7468696e6720746f20776974686472617760681b60448201526064016103df565b600080604051806020016040528060008152509050600060015411801561049157506001544210155b156104c4575050604080518082019091526011815270151a5b59481b1bd8dac8195e1c1a5c9959607a1b60208201526001905b600454600160a01b900460ff1680156104db575081155b1561057e57306001600160a01b0316638e15f4736040518163ffffffff1660e01b8152600401602060405180830381865afa92505050801561053a575060408051601f3d908101601f19168201909252610537918101906116fb565b60015b1561057e57600254811061057c576001925060405180604001604052806014815260200173141c9a58d9481d185c99d95d081c995858da195960621b81525091505b505b600454600160a81b900460ff168015610595575081155b156105d35760035447106105d357505060408051808201909152601381527211dbd85b08185b5bdd5b9d081c995858da1959606a1b60208201526001905b816106185760405162461bcd60e51b815260206004820152601560248201527415985d5b1d081a5cc81cdd1a5b1b081b1bd8dad959605a1b60448201526064016103df565b600080546040514792916001600160a01b03169083908381818185875af1925050503d8060008114610666576040519150601f19603f3d011682016040523d82523d6000602084013e61066b565b606091505b50509050806106ae5760405162461bcd60e51b815260206004820152600f60248201526e151c985b9cd9995c8819985a5b1959608a1b60448201526064016103df565b7f783a90694c9f00c5f34817271a9bf8afb388f51995e3be1f9bc413b4af1548a8836040516106dd9190611714565b60405180910390a16000546040518381526001600160a01b03909116907f7fcf532c15f0a6db0bd6d0e038bea71d30d808c7d98cb3bf7268a95bf5081b659060200160405180910390a250506004805460ff60b01b191690555050565b60006060476000036107785750506040805180820190915260148152734e6f2066756e647320746f20776974686472617760601b6020820152600091565b600060015411801561078c57506001544210155b156107c0575050604080518082019091526011815270151a5b59481b1bd8dac8195e1c1a5c9959607a1b6020820152600191565b600454600160a01b900460ff16156108a457306001600160a01b0316638e15f4736040518163ffffffff1660e01b8152600401602060405180830381865afa92505050801561082c575060408051601f3d908101601f19168201909252610829918101906116fb565b60015b6108645750506040805180820190915260168152755072696365206665656420756e617661696c61626c6560501b6020820152600091565b60025481106108a2575050604080518082019091526014815273141c9a58d9481d185c99d95d081c995858da195960621b6020820152600192909150565b505b600454600160a81b900460ff1680156108bf57506003544710155b156108f557505060408051808201909152601381527211dbd85b08185b5bdd5b9d081c995858da1959606a1b6020820152600191565b505060408051808201909152601281527115985d5b1d081cdd1a5b1b081b1bd8dad95960721b6020820152600091565b6000600460009054906101000a90046001600160a01b03166001600160a01b031663feaf968c6040518163ffffffff1660e01b815260040160a060405180830381865afa925050508015610996575060408051601f3d908101601f191682019092526109939181019061174d565b60015b6109e25760405162461bcd60e51b815260206004820152601f60248201527f4661696c656420746f206765742070726963652066726f6d206f7261636c650060448201526064016103df565b60008413610a325760405162461bcd60e51b815260206004820152601960248201527f496e76616c69642070726963652066726f6d206f7261636c650000000000000060448201526064016103df565b60008211610a775760405162461bcd60e51b8152602060048201526012602482015271526f756e64206e6f7420636f6d706c65746560701b60448201526064016103df565b610e10610a8483426117b3565b10610ac65760405162461bcd60e51b8152602060048201526012602482015271141c9a58d94819185d18481d1bdbc81bdb1960721b60448201526064016103df565b6000600554138015610ada57506000600654115b15610ba657600060065442610aef91906117b3565b9050610e10811015610ba45760006005548613610b2d57600554610b1387826117cc565b610b1e9060646117f3565b610b289190611839565b610b4f565b600554610b3a81886117cc565b610b459060646117f3565b610b4f9190611839565b90506032811115610ba25760405162461bcd60e51b815260206004820152601860248201527f5072696365206368616e676520746f6f2065787472656d65000000000000000060448201526064016103df565b505b505b5091949350505050565b6000806000806000806000806060306001600160a01b0316638e15f4736040518163ffffffff1660e01b8152600401602060405180830381865afa925050508015610c18575060408051601f3d908101601f19168201909252610c15918101906116fb565b60015b610c255760009750610c28565b97505b600154421015610c455742600154610c4091906117b3565b610c48565b60005b60045460035491985060ff600160a01b820481169850600160a81b9091041695504794509250848015610c7d57506000600354115b610c88576000610ca0565b600354610c96856064611867565b610ca0919061187e565b915060008060015411610cb4576000610cbb565b6001544210155b600454909150600090600160a01b900460ff168015610cda575060008a115b610ce5576000610cec565b6002548a10155b600454909150600090600160a81b900460ff16610d0a576000610d11565b6003548710155b90508215610d4e5760009b5060405180604001604052806011815260200170151a5b59481b1bd8dac8195e1c1a5c9959607a1b8152509350610e9c565b8115610d8c5760009b5060405180604001604052806014815260200173141c9a58d9481d185c99d95d081c995858da195960621b8152509350610e9c565b8015610dc95760009b506040518060400160405280601381526020017211dbd85b08185b5bdd5b9d081c995858da1959606a1b8152509350610e9c565b60045460019c50600160a81b900460ff1615610e1c576040518060400160405280601781526020017f57616974696e6720666f7220676f616c20616d6f756e740000000000000000008152509350610e9c565b600454600160a01b900460ff1615610e6b576040518060400160405280601881526020017f57616974696e6720666f722070726963652074617267657400000000000000008152509350610e9c565b6040518060400160405280601581526020017457616974696e6720666f722074696d65206c6f636b60581b81525093505b505050909192939495969798565b600080600060015411610eea57610ee57f00000000000000000000000000000000000000000000000000000000000000006301e13380611892565b610efb565b600154610efb906301e13380611892565b9050804210158015610f0d5750600047115b91505090565b66038d7ea4c68000341015610f6a5760405162461bcd60e51b815260206004820152601c60248201527f4d696e696d756d206465706f73697420697320302e303031204554480000000060448201526064016103df565b69021e19e0c9bab2400000471115610fd05760405162461bcd60e51b815260206004820152602360248201527f5661756c7420776f756c6420657863656564206d6178696d756d20636170616360448201526269747960e81b60648201526084016103df565b600454600160a81b900460ff1615611049576003544790600090610ff5836064611867565b610fff919061187e565b60035460408051858152602081019290925281018290529091507ff6621229b3a1f86bff573cc1432f4f5d4bcf0e65338fde4dfaf2e37e731152cd9060600160405180910390a150505b60405134815233907fe1fffcc4923d04b559f4d29a8bfc6cda04eb5b0d3c460751c2402c5c5cc9109c9060200160405180910390a261108661135c565b565b6000546001600160a01b031633146110d35760405162461bcd60e51b815260206004820152600e60248201526d139bdd08185d5d1a1bdc9a5e995960921b60448201526064016103df565b600454600160b01b900460ff16156110fd5760405162461bcd60e51b81526004016103df906116c4565b6004805460ff60b01b1916600160b01b17905560015460009061114d576111487f00000000000000000000000000000000000000000000000000000000000000006301e13380611892565b61115e565b60015461115e906301e13380611892565b9050804210156111bc5760405162461bcd60e51b8152602060048201526024808201527f456d657267656e6379207769746864726177206e6f7420617661696c61626c65604482015263081e595d60e21b60648201526084016103df565b600047116112025760405162461bcd60e51b81526020600482015260136024820152724e6f7468696e6720746f20776974686472617760681b60448201526064016103df565b600080546040514792916001600160a01b03169083908381818185875af1925050503d8060008114611250576040519150601f19603f3d011682016040523d82523d6000602084013e611255565b606091505b50509050806112a65760405162461bcd60e51b815260206004820152601960248201527f456d657267656e6379207472616e73666572206661696c65640000000000000060448201526064016103df565b7f783a90694c9f00c5f34817271a9bf8afb388f51995e3be1f9bc413b4af1548a86040516112fc90602080825260149082015273115b595c99d95b98de481dda5d1a191c985dd85b60621b604082015260600190565b60405180910390a16000546040518381526001600160a01b03909116907f7fcf532c15f0a6db0bd6d0e038bea71d30d808c7d98cb3bf7268a95bf5081b659060200160405180910390a250506004805460ff60b01b1916905550565b6110865b600454600160b01b900460ff16156113865760405162461bcd60e51b81526004016103df906116c4565b6004805460ff60b01b1916600160b01b17905547156115f15760008060405180602001604052806000815250905060006001541180156113c857506001544210155b156113fb575050604080518082019091526011815270151a5b59481b1bd8dac8195e1c1a5c9959607a1b60208201526001905b600454600160a01b900460ff168015611412575081155b156114bb57306001600160a01b0316638e15f4736040518163ffffffff1660e01b8152600401602060405180830381865afa925050508015611471575060408051601f3d908101601f1916820190925261146e918101906116fb565b60015b61147c5750506115f1565b60025481106114b9576001925060405180604001604052806014815260200173141c9a58d9481d185c99d95d081c995858da195960621b81525091505b505b600454600160a81b900460ff1680156114d2575081155b1561151057600354471061151057505060408051808201909152601381527211dbd85b08185b5bdd5b9d081c995858da1959606a1b60208201526001905b81156115ee57600080546040514792916001600160a01b03169083908381818185875af1925050503d8060008114611564576040519150601f19603f3d011682016040523d82523d6000602084013e611569565b606091505b5050905080156115eb576000546040516001600160a01b03909116907f4ad0472683bd43f275a5e9c98856d62b677f894e5b5bc4fa3aa491c93548e100906115b490859087906118a5565b60405180910390a27f783a90694c9f00c5f34817271a9bf8afb388f51995e3be1f9bc413b4af1548a8836040516106dd9190611714565b50505b50505b6004805460ff60b01b19169055565b6000815180845260005b818110156116265760208185018101518683018201520161160a565b506000602082860101526020601f19601f83011685010191505092915050565b82151581526040602082015260006116616040830184611600565b949350505050565b60006101208b151583528a6020840152896040840152881515606084015287151560808401528660a08401528560c08401528460e0840152806101008401526116b481840185611600565b9c9b505050505050505050505050565b6020808252601f908201527f5265656e7472616e637947756172643a207265656e7472616e742063616c6c00604082015260600190565b60006020828403121561170d57600080fd5b5051919050565b6020815260006117276020830184611600565b9392505050565b805169ffffffffffffffffffff8116811461174857600080fd5b919050565b600080600080600060a0868803121561176557600080fd5b61176e8661172e565b94506020860151935060408601519250606086015191506117916080870161172e565b90509295509295909350565b634e487b7160e01b600052601160045260246000fd5b818103818111156117c6576117c661179d565b92915050565b81810360008312801583831316838312821617156117ec576117ec61179d565b5092915050565b80820260008212600160ff1b8414161561180f5761180f61179d565b81810583148215176117c6576117c661179d565b634e487b7160e01b600052601260045260246000fd5b60008261184857611848611823565b600160ff1b8214600019841416156118625761186261179d565b500590565b80820281158282048414176117c6576117c661179d565b60008261188d5761188d611823565b500490565b808201808211156117c6576117c661179d565b828152604060208201526000611661604083018461160056fea264697066735822122019b6cbe183f999650349a8c2fec0712debd8928627c492e775827e43af0e0b1164736f6c63430008140033",
  "linkReferences": {},
  "deployedLinkReferences": {}
}